:020000040800F2
:10000000380A0024AD020008433A0008D937000836
:10001000413A0008810400089F47000800000000E2
:10002000000000000000000000000000233C000869
:10003000FD05000800000000453A0008253C0008C6
:10004000C7020008C7020008C7020008C70200086C
:10005000C7020008C7020008C7020008C70200085C
:10006000C7020008C7020008C7020008DF04000832
:10007000EB040008C7020008C7020008C702000816
:10008000C7020008C7020008C7020008C70200082C
:10009000C7020008C7020008C7020008C70200081C
:1000A000C7020008C7020008C7020008C70200080C
:1000B000C7020008C7020008C7020008C7020008FC
:1000C000C7020008C7020008C7020008C7020008EC
:1000D000C7020008C702000893470008C7020008CB
:1000E000FF050008C702000800000000C702000862
:1000F000C7020008C7020008C7020008C7020008BC
:10010000C7020008C7020008C7020008C7020008AB
:10011000C7020008C7020008C7020008C70200089B
:10012000C7020008C7020008C7020008C70200088B
:10013000C7020008C7020008C7020008C70200087B
:1001400000000000000000000000000000000000AF
:10015000C7020008C7020008C7020008C70200085B
:10016000C7020008C7020008C7020008C70200084B
:10017000C7020008C7020008C7020008000000000C
:10018000C7020008C7020008C7020008C70200082B
:10019000C7020008C7020008C7020008C70200081B
:1001A000C7020008C7020008C7020008C70200080B
:1001B000C7020008C7020008C7020008C7020008FB
:1001C000C7020008C7020008C7020008C7020008EB
:1001D000C7020008C7020008C7020008C7020008DB
:1001E000C7020008C7020008C7020008C7020008CB
:1001F000C7020008C7020008C7020008C7020008BB
:10020000C7020008C7020008C7020008C7020008AA
:10021000C7020008C7020008C7020008C70200089A
:10022000C7020008C7020008C7020008000000005B
:10023000C7020008C702000800000000C70200084B
:10024000C7020008C7020008C7020008C70200086A
:10025000C7020008C7020008C7020008C70200085A
:10026000C7020008C7020008C7020008C70200084A
:10027000C7020008C7020008C7020008000000000B
:10028000C702000800000000C702000800000000CC
:1002900000000000C7020008DFF80CD000F07AF878
:1002A00000480047F9470008380A002406488047FC
:1002B00006480047FEE7FEE7FEE7FEE7FEE7FEE74B
:1002C000FEE7FEE7FEE7FEE7E73C000899020008CC
:1002D0002DE9F05F0546002092469B46884606467B
:1002E000814640241BE0284641464746224600F00E
:1002F00041F853465A46C01A914110D31146184648
:10030000224600F028F82D1A67EB01084F462246D6
:100310000120002100F01FF817EB00094E41201EBC
:10032000A4F10104DFDC484631462A464346BDE8D5
:10033000F09FD2B201E000F8012B491EFBD27047BA
:100340000022F6E710B513460A4604461946FFF7A1
:10035000F0FF204610BD202A04DB203A00FA02F10B
:10036000002070479140C2F1200320FA03F31943A3
:1003700090407047202A04DB203A21FA02F0002145
:10038000704721FA02F3D040C2F1200291400843A5
:1003900019467047064C074D06E0E06840F001033F
:1003A00094E8070098471034AC42F6D3FFF778FF83
:1003B0001849000838490008B0B50446006881684B
:1003C00001F00301012925D1016811F0010F21D0AD
:1003D000816801F00D01012912D1816841F002010B
:1003E00081600321016001F007FD054620688068F7
:1003F00010F0010F0ED001F0FFFC401B0328F5D3D5
:10040000606D40F010006065A06D40F00100A065D7
:100410000120B0BD0020B0BDB0B5044600688168C1
:1004200001F00301012903D1016811F0010F25D169
:1004300081683F22C8F20002114209D0606D40F08D
:1004400010006065A06D40F00100A0650120B0BD06
:10045000816841F00101816001F0CEFC0546206811
:10046000016811F0010F09D1816841F0010181603B
:1004700001F0C2FC401B0328F1D3DFE70020B0BD30
:10048000FEE710B5846B204600F0F6FE01202071D7
:1004900010BD10B5846B204600F06BFE012020716A
:1004A00010BD10B5846B206940F004002061204627
:1004B00000F04FFF0120207110BD10B5846B206942
:1004C00040F004002061204600F055FE012020711C
:1004D00010BD806B00F03CBF806B00F04BBE40F263
:1004E000F440C2F2004001F06BB840F27C40C2F22E
:1004F000004001F065B801684AF6F832CAF2FD72B0
:100500008B18CAB28C2B0DD8A2F108014CF6CD4243
:1005100045F60003CCF6CC42C5F60203A1FB02125D
:10052000110918E04FF6F0334FF0080CCBF6FD73CD
:100530000B44A2F110014AF6AB22CAF6AA22A92B5B
:1005400040F60003A1FB0212C4F202034FEA1211AB
:1005500038BF0CEB1211012203F1800C03EB810375
:1005600002FA01F1C0E9183C81667047B0B5D0F8D5
:1005700058E0D0E919C4CCF80440C46E1CB1D0E9ED
:100580001CC4CCF80440D0F800C04FF6F074CBF691
:10059000FD746444B4F5956F0CD8C46D3F2505FA1D
:1005A00004F4CEF80840DCF8005025F48025CCF89F
:1005B000005014E04AF6F835CAF2FD7565448C2DFA
:1005C00088BFB0BDC56D45F2044E0124C5F6020ECC
:1005D00004FA05F5DEF800402C43CEF80040CCF8D4
:1005E00004308068402802BFCCF80820CCF80C10FA
:1005F000B0BDCCF80810CCF80C20B0BD70474FF45B
:10060000005001F013BB704770B5044690F85000DD
:1006100016460D46012804BF022070BD012084F853
:1006200050002046FFF7C8FE616D10B141F0100187
:100630002EE041F20212914341F00201616521680E
:100640008A6822F0804232438A608A6822F48032CB
:100650002A438A608A6842F000428A608A68B2F15E
:10066000FF3F0ADC4FF0FF324FF6FF1301329A4290
:1006700008D28E68B6F1FF3FF8DD616D012262F3AA
:10068000010105E0606D20F0120040F01001012032
:10069000002284F85020616570BD0000B0B581B0C3
:1006A0000022009290F85020012A01D10221C5E2D7
:1006B000012380F850300268946814F0040F40F071
:1006C00099820C68A340D4692343D3614B68042BFF
:1006D00019D84FF4F86C126B9CFAACF4D1E900E332
:1006E000B4FA84F463431F2404FA03F39A439CFA94
:1006F000ACF34C68B3FA83F363430EFA03F313438A
:100700000268136356E0092B1BD84FF4F86C526B48
:100710009CFAACF4D1E900E3B4FA84F4053B6343FA
:100720001F2404FA03F39A439CFAACF34C68B3FA1F
:1007300083F3053C63430EFA03F3134302685363E8
:1007400038E00E2B1BD84FF4F86C926B9CFAACF48B
:10075000D1E900E3B4FA84F40A3B63431F2404FAAA
:1007600003F39A439CFAACF34C68B3FA83F30A3C64
:1007700063430EFA03F31343026893631AE04FF4E2
:10078000F86CD26B9CFAACF4D1E900E3B4FA84F4CF
:100790000F3B63431F2404FA03F39A439CFAACF320
:1007A0004C68B3FA83F30F3C63430EFA03F313432D
:1007B0000268D363936813F00C0F39D0936803F089
:1007C0000303012B04D1136813F0010F40F03282B0
:1007D000CD68D1F800E0012303FA0EF3B5F1804FA4
:1007E00047D1D2F8C050BEF1090F43EA0503C2F861
:1007F000C03044D34FF0380C92699CFAACF50C68C9
:100800008B68B5FA85F5093C6543072404FA05F5BC
:10081000AA439CFAACF5D1F800E0B5FA85F5AEF143
:100820000901694303FA01F111430268916143E050
:100830000B680A2B69D34FF0380C92699CFAACF420
:100840000B688D68B4FA84F40A3B6343072404FA06
:1008500003F39A439CFAACF3D1F800E0B3FA83F3C4
:10086000AEF10A04634305FA03F31A4303689A617D
:1008700065E0D2F8C0109943C2F8C0101CE04FF0F8
:10088000380C52699CFAACF50C688B68B5FA85F5A2
:1008900001346543072404FA05F5AA439CFAACF534
:1008A000D1F800E0B5FA85F50EF10101694303FACC
:1008B00001F111430268516142F2001342F2000C4F
:1008C00042F48071C4F20203C4F2020C994202D1D4
:1008D0000CF5407105E046F20001C5F6020101F594
:1008E0004071BEF1120F04D18B6813F4000F5AD07F
:1008F000A0E1BEF1130F51D0BEF1110F40F09A816B
:100900008B6813F0807F4ED094E14FF0380C526921
:100910009CFAACF50C688B68B5FA85F5654307243D
:1009200004FA05F5AA439CFAACF5D1F800E0B5FA53
:1009300085F505FB0EF5AB401A4303685A61D1E912
:10094000042CDC68013A032A60D80E2505EA540419
:100950000CFA04FCDFE802F002A4C5E61A6E4FF0C0
:10096000F84393FAA3F3B3FA83F30EFA03F302F016
:10097000004242EA0C0213430268136613690D7EBB
:1009800023F400632B4313614D7E136E002D0CBFC7
:1009900023F0004343F0004313660FE78B6813F422
:1009A000800F40F04781936803F00303012B04D1CB
:1009B000136813F0010F40F01D8162450ED0DCF882
:1009C00008300CF58074A24203F0030300F0CB80E2
:1009D000012B40F0DC80DCF80030D5E0DCF8083199
:1009E00003F00303012B05D1DCF8003113F0010FF4
:1009F00040F0008146F20003C5F602039D6805F051
:100A00000305012D40F0CE801B68C8E04FF0F8428E
:100A10001B6E92FAA2F2B2FA82F20EFA02F50268A4
:100A200003F0F843AB424FF0F84502BF136E23F0DA
:100A300000431366536E0A6895FAA5F5B5FA85F575
:100A400002FA05F5026803F0F843AB424FF0F845AF
:100A500002BF536E23F000435366936E0A6895FA03
:100A6000A5F5B5FA85F502FA05F5026803F0F84335
:100A7000AB424FF0F84502BF936E23F000439366FC
:100A8000D36E0A6895FAA5F5B5FA85F502FA05F56B
:100A9000026803F0F843AB427FF490AED36E5EE0A1
:100AA0005A6E4FF0F84393FAA3F3B3FA83F30EFAB6
:100AB00003F302F0004242EA0C0213430268536659
:100AC00013690D7E23F4805343EA450313614D7E81
:100AD000536E002D0CBF23F0004343F000435366D8
:100AE0006CE69A6E4FF0F84393FAA3F3B3FA83F3EC
:100AF0000EFA03F302F0004242EA0C0213430268CA
:100B0000936613690D7E23F4005343EA8503136152
:100B10004D7E936E002D0CBF23F0004343F0004345
:100B200093664BE6DA6E4FF0F84393FAA3F3B3FA09
:100B300083F30EFA03F302F0004242EA0C0213437D
:100B40000268D36613690D7E23F4804343EAC5032C
:100B500013614D7ED36E15B143F0004301E023F0E5
:100B60000043D3662AE6012B04D1DCF8003013F0F1
:100B7000010F3FD146F20003C5F602039C6804F062
:100B80000304012C03D11B6813F0010F32D1DCF8F0
:100B9000083103F00303012B04D1DCF8003113F01A
:100BA000010F27D1BEF1120F2AD146F20003C5F67C
:100BB00002039A423ED18A6842F400028A6040F2FF
:100BC00000014DF68362C2F20041C4F21B32096893
:100BD000A1FB0212D10C0901A1EBD241C900009185
:100BE000009939B30099013900910021009A002A37
:100BF000F8D120E0416D41F02001416501211AE06A
:100C0000BEF1130F0CD0BEF1110F13D146F2000349
:100C1000C5F602039A420DD18A6842F0807208E05C
:100C200046F20003C5F602039A4203D18A6842F4F1
:100C300080028A600021002280F85020C8B201B0F2
:100C4000B0BD0068006C7047B0B582B004460020AB
:100C5000002C01903DD0606D30B9204600F043F982
:100C6000002084F85000A0652168886810F0005FBB
:100C70001EBF886820F000508860886810F0805F90
:100C800019D188684DF68362C4F21B3240F080505F
:100C9000886040F20000C2F200400068A0FB02023F
:100CA000D00C00EB8000400001E001980138019079
:100CB00001980028F9D1886810F0805F0BD1606D31
:100CC00040F010006065A06D40F00100A0650120BB
:100CD00002E001200DE00020626D12F0100F04BF51
:100CE0008A6812F0040F06D0606D40F010010120F8
:100CF000616502B0B0BD626D42F2001342F2000EB7
:100D0000C4F20203C4F2020E42F00202626541F430
:100D100080729A4202D10EF5407C05E046F2000254
:100D2000C5F6020202F5407C8A6802F00302012A3D
:100D300003D10A6812F0010F4BD171450CD0DEF8D7
:100D400008200EF58073994202F003021AD0012A9E
:100D50002CD1DEF8001026E0DEF8081101F00301C6
:100D6000012904D1DEF8001111F0010F31D146F252
:100D70000001C5F602018A6802F00302012A20D1AF
:100D800009681BE0012A04D1DEF8001011F0010F00
:100D90001FD146F20001C5F602018A6802F0030283
:100DA000012A03D1096811F0010F12D1DEF80811F0
:100DB00001F00301012904D1DEF8001111F0010F47
:100DC00007D1DCF80810626821F47C111143CCF8DB
:100DD000081094F815C04FF400524FF4803592FA81
:100DE000A2F2216BD4F808E0237F95FAA5F5B2FAB8
:100DF00082F2B5FA85F50CFA02F21143AB4041EAF2
:100E00000E0141EA0302217F012909D1216A4FF431
:100E1000602393FAA3F3B3FA83F3013999400A43A9
:100E2000616A01291CBFA36A002B36D121684CF2EC
:100E30000305CFF6F075CB682B401A43CA608A6869
:100E400012F00C0F40D1217D4FF4804244F2030593
:100E500092FAA2F2E36AB2FA82F201FA02F221688D
:100E60001A43CB68AB431A43CA6094F839300A6915
:100E7000012B16D14FF61E03D4E90FE5CFF6004340
:100E800002EA030CD4E9112345EA0C0545EA0E45B4
:100E90002A431A4342F0010205E0114341EA0302EA
:100EA000C4E722F001020A610A69636B22F0704212
:100EB0001A430A6194F838208B6823F48075012A5C
:100EC00008BF43F480758D60E3680A6B22F00F025F
:100ED000012B02BFA369013B1A430A630122616D22
:100EE00062F3010104E7006842F20011C4F202015A
:100EF000884218BF704781B044F2D840C5F602005E
:100F0000016841F020010160006800F020000090BD
:100F1000009801B070472DE9F04104460069884609
:100F2000082801D108271FE0206842F20012C4F20D
:100F3000020240F48071914211D142F20831C4F2B0
:100F400002010A6812F01F0F09D00A6802F01F029E
:100F5000052A04D00A6802F01F02092A70D1C0686D
:100F600010F0010F79D1042700F046FF06462068F3
:100F7000016839424BD0016842F200020346C4F2D4
:100F8000020290421DD046F200020346C5F602025C
:100F9000904216D042F20832C4F20202136813F0F3
:100FA0001F0F03460DD0136803F01F03052B0346E4
:100FB00007D0136803F01F03092B034618BFA2F5DF
:100FC000427301F00802D968082F01D1082302E01A
:100FD0004B0401D404230360636D002A43F40073BF
:100FE000636512D0C06801F4005100F4406008430A
:100FF0000BD1606D20F480706065606D10F4805FCF
:1010000002BF606D40F00100606500202AE0B8F189
:10101000000F0CD008F101052DB100F0EDFE801B92
:10102000404504D8206801683942F5D0A3E7002084
:1010300084F85000606D40F004006065032011E00A
:10104000086800F44040B0F5004F06D0086800F48E
:101050004040B0F5404F7FF486AF606D40F0200017
:1010600060650120C0B2BDE8F08110B5044600689B
:10107000806810F0040F03D194F85000012801D1CA
:10108000022010BD012084F850002046FFF7C4F96B
:1010900018B1002184F8501010BD606D40F6017148
:1010A00042F20012C4F2020210F4805F1ABFA06D77
:1010B00020F006000020A065606D884340F4807039
:1010C0006065216841F48070904204D1606D20F425
:1010D0008010606507E042F20830C4F20200006848
:1010E00010F01F0FF2D01C20086042F20000C4F282
:1010F0000200814217D046F20000C5F6020081428C
:1011000011D042F20830C4F20200026812F01F0F40
:1011100009D0026802F01F02052A04D0026802F01A
:101120001F02092A10D1C86810F0007F1FBF606D30
:10113000012262F30D306065002084F850008A6857
:1011400042F004028A6010BD616D41F48011616556
:101150004FF60451CFF6FF71405810F0007F1FBFCB
:10116000606D012161F30D306065002084F850004E
:1011700010BD7047704770472DE9F0410E46417928
:1011800004461546022001296CD0207101206071AF
:101190003068042831D185B12068406BB0F1FF3F41
:1011A00004DC00F029FE0228F6D35EE0012000F006
:1011B00018FD2068B169416419E000F01DFE074682
:1011C000206848F20008C2F20008406B06E000F018
:1011D00013FEC01B022848D22068406B10EA080F9B
:1011E000F5D1012000F0FDFC2068B1690164F169CE
:1011F000A9408164316AA940C1643169206801292C
:1012000008D1826B1F21A94022EA01017269AA401C
:1012100011438163C26B0721A94022EA01013268B0
:10122000D6E902371A433A43AA401143C1634FF447
:1012300080410268A94022EA0101016040F6FE7186
:101240000268A94022EA01017268AA4011430160C4
:10125000C0210268A94022EA0101016000200121A9
:1012600060712171C0B2BDE8F081206940F00800D2
:10127000206103202071F5E7B0B582B0016847F224
:101280000040C4F20000814201D002B0B0BD40F283
:101290001004C2F200442178012919D00029F4D1A8
:1012A0004FF40061ADF8061040F26841C2F200410F
:1012B00009688142E9D100200DF1060200210123D5
:1012C000009040F26840C2F2004000F0ACF8DCE769
:1012D000607801281ED00028D7D140F2684040F243
:1012E0000C2200250021FA23C2F20040C2F2004283
:1012F000009500F098F8012040F218014FF40062C8
:101300006070C2F20041606821F815200135FA2DA5
:10131000FAD11AE040F2684040F21802002500219C
:10132000FA23C2F20040C2F20042009500F07BF8BE
:10133000657040F20C214FF400626068C2F2004117
:1013400021F815200135FA2DFAD1FA3060609CE7BA
:101350007047704710B5044668B1207920B9002065
:101360006071204600F009F8022001212071002060
:101370002061217110BD012010BD70B586B00446FA
:1013800001A81421FEF7DCFF206847F20041C4F2F7
:101390000001884245D144F2E0400026C5F6020033
:1013A000816841F000518160816801F00051009135
:1013B0000099016841F00101016001A9006800F095
:1013C000010000900098032002901020019000205E
:1013D0000396C5F6020000F033FC40F27C4528215C
:1013E000432040224FF480634FF4006C4FF4005EC2
:1013F000C2F20045C4F20201C5E9001005F1100077
:10140000C5E9022680E808504FF48030EE61C5E956
:101410000806284600F03AFA08B1FFF7F4F8A5608C
:10142000AC6306B070BD70B50E464179044602202B
:1014300001296AD0DDF810C020710120002E6071F2
:1014400022D0E06840F2D94140F29345BCF1080F48
:10145000C0F60001C0F60005C0E90F5140F2BB41E3
:10146000C0F60001C16421680D6845F080550D602B
:101470002DD0BCF1040F2DD0BCF1000F0CBF01F139
:10148000140C4FF0000C27E0A06840F2D34E40F25D
:101490008341BCF1080FC0F6000EC0F60001C0E9A0
:1014A0000F1E40F2A341C0F60001C16421680D681F
:1014B00045F480550D6016D0BCF1040F10D0BCF17E
:1014C000000F0CBF01F1080C4FF0000C0DE001F112
:1014D0001C0C01E001F1180C0D6845F0005507E007
:1014E00001F10C0C01E001F1100C0D6845F4005500
:1014F0000D601146624600F009FB00200121607179
:10150000B1402268136819431160C0B270BD10B3B6
:1015100090F8351002291CD101684FF6F072CBF615
:10152000FD720A44B2F5956F18D8042280F8352070
:101530000F20C4F20200814282BF40F2B940C4F2DF
:1015400002008142086820F0010008604FF00001AD
:1015500002E0802141650121084670470A6845F292
:101560000443C5F6020322F00E020A600A6822F064
:1015700001020A60016E0A6822F480720A60012189
:10158000C26D01FA02F21A60D0E919235360C26EEB
:1015900032B1136823F480731360D0E91C235360C5
:1015A00080F83510002180F83410026D002AD3D065
:1015B00080B590470021BDE88040CDE7406D704781
:1015C0002DE9F04782B0044600204FF6F0720190FA
:1015D00040F20000CBF6FD72A66DC2F20040016839
:1015E000376820680244B2F5956F3CD848F2B512CE
:1015F000082340F20F0A40F2B949C1F64E32C4F254
:10160000020AC4F20209A1FB0218E16D03FA01F219
:101610003A4213D048454FF0080538BF04255045DD
:1016200098BF1D4603682B4208D0036823F00403CB
:101630000360B260626D42F0010262650122C0F295
:10164000800202FA01F33B424BD0504548D948454D
:1016500046D2456915F0800F1FBFB360636D43F03C
:10166000020363653DE04AF6F831CAF2FD710144B8
:101670008C2900F2F18045F200410423C5F60201F5
:101680000F68E26D93403B421CBF076817F0040FE0
:101690005DD10F68022393401F421CBF076817F0FB
:1016A000020F40F0DC80082303FA02F20B681342B9
:1016B0001CBF026812F0080F00F0CE80026822F012
:1016C0000E0202600122E06D4B6802FA00F018433E
:1016D00048600020626584F8340084F83520B7E063
:1016E000036803328A403A420ED050450BD9484530
:1016F00009D2036813F0020F1FBFB260626D42F09F
:101700000402626500E00268102202FA01F1394227
:1017100032D048454FF004034FF0040238BF08238D
:10172000504598BF134602681A4225D0B16002683E
:10173000016812F4802F06D1C9055EBF016821F04F
:101740000801016001E0080312D4216C11E0026875
:1017500012F0200F07D1026822F004020260042276
:10176000E06D02FA00F3486818434860216C70E0AD
:10177000A16C09B120468847E16D202000FA01F2F2
:101780003A4243D0206802270223484538BF102739
:10179000504598BF1F4603683B4237D0B26094F86B
:1017A00035300268042B19D122F01602026042691A
:1017B00022F080024261226C0AB9A26C1AB102685E
:1017C00022F0080202603F208840B060012084F8C7
:1017D0003500002084F83400216D3AE0016852039E
:1017E0000CD4C9050ED4016821F01001016001205C
:1017F00084F83500002084F8340003E0080301D4A5
:10180000616C00E0E16B09B120468847606D18B358
:10181000606D10F0010F1BD004204FEA982184F86E
:1018200035002068026822F001020260019A01324C
:101830008A42019203D8026812F0010FF6D100210A
:1018400084F834100121006860F3410184F83510F8
:10185000E16C09B12046884702B0BDE8F087026814
:1018600012F0200F0DD1026822F00A02026001205E
:10187000022284F83500002084F83400E06D02FA7A
:1018800000F3486818434860E16BE2E72DE9F04354
:1018900081B0044600F0B0FA0546002C00F0178134
:1018A00020684FF6F071CBF6FD710144B1F5956FEC
:1018B00059D8022184F83510002184F834100168C9
:1018C00021F00101016006E000F096FA401B0628B5
:1018D00080F0F8802068016811F0010FF4D10268EF
:1018E00004F1080748F23F038046C2CFCFF61063E9
:1018F000D4E9055902EA030CD4E90732D4F824E00C
:1019000041EA0C01314339432943BEF1040F41EA56
:10191000090141EA030141EA020367D1D4E90BE17D
:101920004EEA0302BEF1000F41EA0201016058F8DD
:10193000141FA26A21F0070141EA020141F0040CE0
:101940005BD0B9F5005F00F0C680B9F1000F40F040
:10195000CE80022A00F0CF80012A00F0C280002A47
:1019600000F0C98049E04AF6F831CAF2FD7101443D
:101970008C2939D8022247F6F07384F835200022EA
:1019800084F8342002689A43D4E90237D4E9046524
:1019900042EAD702A3F18007402BB7FA87F74FEA54
:1019A00057174FEA873708BF1027A3693A43202704
:1019B00042EAD60242EAD50242EAD302E36907EAE2
:1019C000D3031A43236A42EA131202604CF6CD4055
:1019D000CCF6CC40A1FB00014FF6FC70C3F6FF70C3
:1019E00000EA9100E06527E040206CE0036058F8D1
:1019F000141F21F0070141EA0E0C6FF00F0140F2B5
:101A0000FF32C8F800C051FA80F190434AF6AB2289
:101A1000CAF6AA225F29A1FB021288BF40F0040087
:101A2000110944F60E12A065C0F60002515C3F2277
:101A3000E16502FA01F181602046FEF75CFDA068D5
:101A4000802806BF002060606068226EC1B2013845
:101A500011600728D4E91923536022D84A1E082AA6
:101A600024D221684AF6F83340F6001645F60017EE
:101A70000120CAF2FD73C4F20206C5F602079040C7
:101A80000B4406F140018D2B3EBF07F1400145F6A6
:101A90000016C5F6020606EB8202C4E91B21606748
:101AA00007E00020C4E91B00606705E0D4E91B21C2
:101AB000606F00231360486000200121606584F896
:101AC000351005E020206065032084F835000120F2
:101AD00001B0BDE8F083032A8FD8DFE802F0110CD3
:101AE0001102AEF1C071B1FA81F14A0905E0032A91
:101AF00006D37FF482AFCEF30062002A3FF47DAFBD
:101B000040206065012084F83500E1E710B5044607
:101B1000D0B394F83400012801D102205FE0012005
:101B200084F8340094F83500012827D1022084F885
:101B3000350000206065D4F800C0DCF8000020F01B
:101B40000100CCF800002046FEF710FD20684FF69B
:101B5000F071CBF6FD7142180168B2F5956F15D89A
:101B60000B2262F344010160416941F0800141614F
:101B7000216CA9B1016841F0080110E04FF4006048
:101B80006065002084F83400012028E0052262F31B
:101B900043010160216C19B1016841F00401016049
:101BA000216E0A6812F4803F1EBF0A6842F48072F8
:101BB0000A60E16E19B10A6842F480720A6010216D
:101BC000C4F20201884222BF40F2B841C4F20201CD
:101BD0008842016841F0010101604FF00000C0B28D
:101BE00010BDB0B5044600F007F9054640F2080004
:101BF000611CC2F20040007818BF044400F0FCF8F9
:101C0000401BA042FAD3B0BDB0F5005F18BF7047CB
:101C100080B540F200408021C5F6020000F0E3F8F4
:101C20004FF4FA70BDE88040FFF7DBBF8821C5F6AE
:101C300000010A6802421CBF0860FFF7E5BF704759
:101C40002DE9F04F82B042F200420A2740F2040B25
:101C500044F2F44E4FF0010C0026C5F60202C5F620
:101C6000000BC5F6020E904200F1264202F1FF720F
:101C700008BF09274FEAB223092B4FF0000338BFF2
:101C80004FEAB227009700270D680CFA06F815EA0C
:101C9000080F00F09F80D1F8049049F01005122D34
:101CA00015D107F01C050F2202FA05F94FF6FC7258
:101CB000C7F6FF7202EA56040444226A22EA0909BE
:101CC0000A69AA4042EA09022262D1F80490056832
:101CD000032409F00302B9F1120F04FA03F402FA23
:101CE00003F26FEA040A25EA040542EA05020260EB
:101CF00015D80CFA09F212F0061F1FBF826802EA1B
:101D00000A02CC689C401FBF22438260C9F30012C4
:101D1000B2401FBF446824EA080422434260C268FC
:101D20008C6802EA0A029C402243C2605FEAC90250
:101D300050D5DEF8002040F2084407F00C05C5F647
:101D40000004A24642F00202CEF80020DEF8002095
:101D500002F002020192019A26F0030252F8049066
:101D60000F24AC4029EA0409009C04FA05F545EA71
:101D700009044FF0B04942F80A40DBF87C204D6876
:101D800042EA080415F4803F08BF22EA080415F46B
:101D9000003FCBF87C40DBF8802042EA080408BF13
:101DA00022EA080415F4801FCBF88040D9F80020FF
:101DB00042EA080408BF22EA080415F4001FC9F823
:101DC0000040DBF8002042EA080408BF22EA0804C9
:101DD000CBF80040013604370233102E04BF02B0A6
:101DE000BDE8F08F50E74269514041617047002AD9
:101DF0000CBF41830183704740F23060C2F2004063
:101E00000068704740F2080040F23061C2F20040C2
:101E1000C2F2004100780A6810440860704780B53B
:101E2000032000F081F8002000F007F808B101203D
:101E300080BD00F028F8002080BDB0B5044640F217
:101E400008004FF47A71C2F200400078B1FBF0F064
:101E500040F20001C2F200410968B1FBF0F001F06C
:101E6000FCF901250F2C0CD858B94FF0FF30214652
:101E70000022002500F026F840F20C00C2F20040DB
:101E800004602846B0BD81B044F2F440C5F60200BB
:101E9000016841F002010160006800F0020000905A
:101EA000009801B0704700280BDB00F01F010122F1
:101EB000400902FA01F14EF20012CEF2000242F89D
:101EC0002010704710B500F00F034EF60C5E00F1C5
:101ED000604CB0F1FF3FA3F10403CEF2000E734457
:101EE00003F10C04C8BF0CF56444DEF80000C0F335
:101EF000022000F1040CC31E80F00700BCF1070FA4
:101F00004FF0010C38BF0023042828BF04200CFA2E
:101F100000F0013808400CFA03F10F3198401140ED
:101F200008430001207010BD4EF60C514FF6FF0320
:101F3000CEF200010A681A4060F30A2242F0806083
:101F400040F0FD700860704780B500F0C3FE44F2B9
:101F500018414FF48072C5F60201096892FAA2F2A4
:101F6000B2FA82F201F47061D14044F6E602C0F6A2
:101F70000002515CC84040F20001C2F2004108601A
:101F800080BD80B500F03AFE44F220411022C5F633
:101F90000201096892FAA2F2B2FA82F201F070012B
:101FA000D14044F6E602C0F60002515CC84080BD54
:101FB00080B544F2004CC5F6020CDCF82820DCF8B1
:101FC00028E0DCF82C30DCF83C1003F01003C1F3FF
:101FD000CC0111FB03F102F00303CEF3053200EE56
:101FE000101A022BB8EE400A0FD09BB9DCF8001093
:101FF00049F20003C0F2D03311F0200F1EBFDCF80D
:102000000010C1F3C101CB4008E041F20023C0F24F
:102010007A0303E040F60013C0F23D03DCF8381009
:102020009FED212AB7EE003A6FF35F2101EE101AFF
:10203000B3FBF2F1DCF83820B8EE411A04EE101AC6
:1020400000EE021AC2F34622B8EE440A31EE031A39
:10205000511C02EE101A21EE000AB8EE422A80EE60
:10206000021ABCEEC11A80ED001ADCF83810C1F378
:102070000641013101EE101AB8EE411A80EE011A44
:10208000BCEEC11A80ED011ADCF83810C1F306610C
:10209000013101EE101AB8EE411A80EE010ABCEED1
:1020A000C00A80ED020A80BD0000003980B544F20C
:1020B000004CC5F6020CDCF82820DCF828E0DCF83F
:1020C0002C30DCF8441003F48073C1F3CC0111FB15
:1020D00003F102F00303CEF3055200EE101A022BB7
:1020E000B8EE400A0FD09BB9DCF8001049F20003AB
:1020F000C0F2D03311F0200F1EBFDCF80010C1F386
:10210000C101CB4008E041F20023C0F27A0303E0B2
:1021100040F60013C0F23D03DCF840109FED212A89
:10212000B7EE003A6FF35F2101EE101AB3FBF2F144
:10213000DCF84020B8EE411A04EE101A00EE021A44
:10214000C2F34622B8EE440A31EE031A511C02EEE5
:10215000101A21EE000AB8EE422A80EE021ABCEEF6
:10216000C11A80ED001ADCF84010C1F306410131BC
:1021700001EE101AB8EE411A80EE011ABCEEC11A37
:1021800080ED011ADCF84010C1F30661013101EE67
:10219000101AB8EE411A80EE010ABCEEC00A80EDBA
:1021A000020A80BD000000392DE9F0410446C078E4
:1021B00044F21048C5F60208000725D5606E4FEAC4
:1021C000305103290AD8DFE801F0020B1018D8F8C3
:1021D0001C1041F40031C8F81C100EE0012514E079
:1021E000201D022101F02FFC04E004F12400022153
:1021F00001F0A0FC054640B9606ED8F8401021F40B
:1022000040110843C8F8400000256078C00701D19C
:102210002E4629E0606D04280DD82E46DFE800F038
:10222000030D12181800D8F81C002E4640F4003098
:10223000C8F81C000CE001260BE0201D002101F075
:1022400002FC04E004F12400002101F073FC0646C6
:102250000EB1354308E0D8F84000616D002620F04B
:1022600007000843C8F840006078800729D5A06DB2
:102270004FEAB01004280BD8DFE800F0030C111768
:102280001700D8F81C0040F40030C8F81C000CE01F
:1022900001260BE0201D002101F0D5FB04E004F134
:1022A0002400002101F046FC06460EB1354308E04B
:1022B000D8F84000A16D002620F4E0700843C8F86B
:1022C0004000607840072BD5D4F8A4004FEA705046
:1022D00004280BD8DFE800F0030C11171700D8F81A
:1022E0001C0040F40030C8F81C000CE001260BE094
:1022F000201D002101F0A7FB04E004F124000021CF
:1023000001F018FC06460EB1354309E0D8F8480044
:10231000D4F8A410002620F460000843C8F8480050
:10232000607800072BD5D4F8A8004FEA3060042865
:102330000BD8DFE800F0030C11171700D8F81C00C9
:1023400040F40030C8F81C000CE001260BE0201D12
:10235000002101F078FB04E004F12400002101F0E9
:10236000E9FB06460EB1354309E0D8F84800D4F839
:10237000A810002620F0E0600843C8F84800E07884
:10238000800722D5A06C4FEA301003280AD8DFE876
:1023900000F010020B10D8F81C0040F40030C8F810
:1023A0001C0006E0012605E0201D022101F04BFB88
:1023B00006460EB1354308E0D8F83C00A16C002673
:1023C00020F030000843C8F83C006078C00629D5EA
:1023D000E06D4FEA303004280BD8DFE800F0030C42
:1023E00011171700D8F81C0040F40030C8F81C0082
:1023F0000CE001260BE0201D002101F024FB04E08D
:1024000004F12400002101F095FB06460EB135438E
:1024100008E0D8F84000E16D002620F4E0400843D1
:10242000C8F840006078800622D5206E4FEA304020
:10243000052809D8DFE800F010030A101010201D4D
:10244000012101F000FB06E0012606E004F1240072
:10245000012101F06FFB06460EB1354308E0D8F8C4
:102460004000216E002620F4E0200843C8F8400018
:102470006078400624D5D4F8AC004FEA30700528C7
:1024800009D8DFE800F010030A101010201D012108
:1024900001F0D9FA06E0012606E004F1240001214A
:1024A00001F048FB06460EB1354309E0D8F8480074
:1024B000D4F8AC10002620F0E0400843C8F84800EB
:1024C0006078000620D5E06E88B1B0F1005F09D0D9
:1024D000B0F1805F16D1D8F81C0040F40030C8F885
:1024E0001C0004E0201D012101F0ADFA064656B99A
:1024F000D8F84000E16E002620F040500843C8F8AC
:10250000400001E001263543E078C00720D0606C30
:1025100003280AD8DFE800F010020B10D8F81C00DE
:1025200040F40030C8F81C0006E0012605E0201D3C
:10253000022101F088FA06460EB1354308E0D8F8CA
:102540003C00616C002620F003000843C8F83C0002
:10255000A078400665D5D8F8F00340F48070C8F83C
:10256000F003FFF749FC0746D8F8F00310F4807F2A
:1025700006D1FFF741FCC01B6428F5D9032600E013
:102580000EB135434DE0D8F86010D4F8B0004140AA
:1025900011F4407F11D0D8F86010D8F8602042F4D0
:1025A000803221F44071C8F86020D8F8602022F40D
:1025B0008032C8F86020C8F86010B0F5807F14D170
:1025C000FFF71AFC0646D8F8600010F0020F0CD195
:1025D00041F28837FFF710FC801BB84200F20E82F0
:1025E000D8F8600010F0020FF4D0D4F8B000D8F89A
:1025F0000010002600F4407221F47C51B2F5407FB7
:1026000001BF4FF6CF72C0F2FF0202EA101211436F
:102610006FF31F30C8F80010D8F860100843C8F8EE
:1026200060002078C00722D0A06F4FEAF000052894
:1026300009D8DFE800F010030A101010201D012156
:1026400001F001FA06E0012606E004F12400012170
:1026500001F070FA06460EB1354308E0D8F84400A0
:10266000A16F002620F038000843C8F84400207805
:10267000800720D5606F052809D8DFE800F0100337
:102680000A101010201D012101F0DDF906E00126DD
:1026900006E004F12400012101F04CFA06460EB1D7
:1026A000354308E0D8F84400616F002620F00700A9
:1026B0000843C8F844002078400722D5D4F8900099
:1026C000052809D8DFE800F010030A101010201DBB
:1026D000012101F0B8F906E0012606E004F124002A
:1026E000012101F027FA06460EB1354309E0D8F87A
:1026F0004800D4F89010002620F007000843C8F8DE
:1027000048002078800624D5D4F88C004FEA307039
:10271000052809D8DFE800F010030A101010201D6A
:10272000002101F090F906E0012606E004F1240002
:10273000022101F0FFF906460EB1354309E0D8F851
:102740004400D4F88C10002620F0E0400843C8F87C
:1027500044002078400624D5D4F898004FEAB020F1
:10276000052809D8DFE800F010030A101010201D1A
:10277000002101F068F906E0012606E004F12400DA
:10278000022101F0D7F906460EB1354309E0D8F829
:102790004800D4F89810002620F4E0500843C8F808
:1027A00048002078000624D5D4F89C004FEA703009
:1027B000052809D8DFE800F010030A101010201DCA
:1027C000002101F040F906E0012606E004F12400B2
:1027D000022101F0AFF906460EB1354309E0D8F801
:1027E0004800D4F89C10002620F460400843C8F844
:1027F0004800206810F0080F13D0D4F88010B1F50D
:10280000805F07D104F12400022101F093F9054310
:10281000206806E0D8F8442022F440521143C8F85A
:102820004410C10613D5D4F89410B1F5807F07D1B8
:1028300004F12400022101F07DF90543206806E03F
:10284000D8F8482022F440721143C8F84810000319
:1028500021D5D4F8A000B0F5003F0ED0B0F5803FF0
:1028600005D0B0B9201D002101F0EDF804E004F11D
:102870002400022101F05EF906465EB9D8F848004E
:10288000D4F8A010002620F440300843C8F84800CF
:1028900001E001263543A078400725D5D4F884000F
:1028A000B0F5401F12D0B0F5001F09D0B0F5801F61
:1028B00018D1D8F81C0040F40030C8F81C0005E01E
:1028C00004F12400012101F035F906465EB9D8F87B
:1028D0004400D4F88410002620F440100843C8F8BF
:1028E000440001E001263543A078C0071DD0E06C0C
:1028F000B0F5803F07D0B0B9D8F81C0040F40030E4
:10290000C8F81C0004E0201D022101F09CF80646D6
:1029100056B9D8F83C00E16C002620F4803008431A
:10292000C8F83C0001E001263543206810F0005F44
:1029300006D004F12400022101F0FCF805432068D0
:1029400081031CD5E16F6FF0010202EB3122022AF4
:102950000AD34FEA31223AB1012A0ED1D8F81C200D
:1029600042F40032C8F81C2046B9D8F8442022F4BA
:1029700040721143C8F8441001E001263543C102FA
:1029800007D5D8F84010226F21F000411143C8F854
:102990004010C10008D5D8F80010D4F8B42021F4B4
:1029A00080411143C8F80010810207D5D8F84010C3
:1029B000A26E21F080711143C8F8401041000CD57F
:1029C000D8F8001021F40041C8F80010D4F8B8106D
:1029D000D8F800201143C8F80010B0F1FF3F07DC21
:1029E000D8F83C00216D20F040500843C8F83C0066
:1029F000002D18BF01252846BDE8F08145F00305EC
:102A000003260EE62DE9F04381B042F200080446A9
:102A10000D46C5F20028D8F8000000F007008842F3
:102A20000CD2D8F8000020F007002843C8F80000B6
:102A3000D8F8000000F00700A84270D1206844F2E6
:102A40001047C5F6020710F0020F05D0B968E2681A
:102A500021F00F011143B960C00750D1D8F8000030
:102A600000F00700A8420CD9D8F8000020F00700B9
:102A70002843C8F80000D8F8000000F00700A8427A
:102A80004DD1206810F0040F05D0B968226921F0FB
:102A900070011143B960010705D5F968626921F039
:102AA00070011143F960C10605D5F968A26921F4E6
:102AB000E0611143F960800605D53869E16920F0CD
:102AC00070000843386100F005F9B9684FF480726E
:102AD000002492FAA2F2B2FA82F201F47061D140BB
:102AE00044F6E602C0F60002515CC84040F2000124
:102AF000C2F2004108600020FFF79FF910E0B868BB
:102B0000A16820F470600843B860606803280BD0A7
:102B1000022830D157F8101C11F4003F09D10124CC
:102B2000E0B201B0BDE8F08357F8101C11F0007F4F
:102B3000F5D0396821F0070108433860FFF75CF9E8
:102B400006466068012820D0032831D0022842D1EF
:102B5000386800F0380010283FF480AF41F288391F
:102B6000FFF74AF9801B484546D8386800F038001E
:102B70001028F5D172E757F8101C012802D1C905B9
:102B8000CDD5D6E74907CAD5D3E7386800F0380075
:102B900008283FF463AF41F28839FFF72DF9801B15
:102BA000484529D8386800F038000828F5D155E79D
:102BB000386800F0380018283FF450AF41F28839E7
:102BC000FFF71AF9801B484516D8386800F038001E
:102BD0001828F5D142E7386810F0380F3FF43EAFBF
:102BE00041F28839FFF708F9801B484504D8386856
:102BF00010F0380FF6D131E7032491E780B5FFF7E5
:102C0000A3F944F218410122C5F60201096892FABB
:102C1000A2F2B2FA82F201F00F01D14044F6E602CC
:102C2000C0F60002515CC84040F20401C2F200410B
:102C3000086080BD80B5FFF787F944F21841012391
:102C4000C5F602010A6893FAA3F3B3FA83F302F01C
:102C50000F02DA4044F6E603C0F600039A5CD04067
:102C600040F20402C2F2004210601022496892FA57
:102C7000A2F2B2FA82F201F07001D140595CC84070
:102C800080BD80B5FFF760F944F218410123C5F615
:102C900002010A6893FAA3F3B3FA83F302F00F0276
:102CA000DA4044F6E603C0F600039A5CD04040F2F6
:102CB0000402C2F2004210604FF48072496892FA36
:102CC000A2F2B2FA82F201F4E061D140595CC8404C
:102CD00080BD000044F20041C5F602010869C0F35E
:102CE000C20240F60010C0F23D00032A15D0022AAD
:102CF00002BF41F20020C0F27A00704762B90A6850
:102D000049F20000C0F2D03012F0200F1FBF096856
:102D1000C1F3C101C8407047704780B5D1F828E0C1
:102D2000D1F828C0CB6A4A6B03F001035B4203EA87
:102D3000D2020EF003036FF35F32022B00EE102A73
:102D4000CCF30512B8EE400ABDE880400DD083B93F
:102D50000B6849F20000C0F2D03013F0200F1EBF04
:102D60000B68C3F3C103D84003E041F20020C0F276
:102D70007A000B6B096B9FED122AB0FBF2F0B7EEF5
:102D8000003A04EE100A6FF35F2301EE103AB8EE3A
:102D9000411AC1F3462100EE021A481CB8EE440A5B
:102DA00002EE100A31EE031AB8EE422A21EE000AB2
:102DB00080EE020ABCEEC00A10EE100A704700BF97
:102DC00000000039F0B581B00446007844F20046B6
:102DD000C5F60206C0074ED0306900F03800102852
:102DE00009D0306900F0380018280BD1B06A00F023
:102DF0000300022806D1306810F4003F3BD0606821
:102E0000C8BB9EE1606868B1B0F5803F06D031680C
:102E1000B0F5A02F1BD141F480203060306840F421
:102E200080301AE0306820F480303060306820F460
:102E300080203060FEF7E0FF0546306810F4003F68
:102E400019D0FEF7D9FF401B6428F6D901E221F41E
:102E500080303060306820F480203060FEF7CCFF96
:102E60000546306810F4003F05D1FEF7C5FF401B52
:102E70006428F6D9EDE1207880075ED5306910F03E
:102E8000380F1CD0306900F03800182804BFB06A31
:102E900010F0030F13D0E068316888B321F01901F6
:102EA00008433060FEF7A8FF0546306810F0040FB5
:102EB0001FD1FEF7A1FF401B0228F6D9C9E13168F6
:102EC000E06811F0040F02D0002800F03A81316868
:102ED00021F0190108433060FEF78EFF0546306887
:102EE00010F0040F1CD1FEF787FF401B0228F6D913
:102EF000AFE1706821694FF47C3292FAA2F215E0DA
:102F000021F001003060FEF777FF0546306810F0D1
:102F1000040F12D0FEF770FF401B0228F6D998E18B
:102F2000706821694FF47C3292FAA2F2B2FA82F20E
:102F300020F47C309140084370602078C0063FD573
:102F4000306900F03800082809D0306900F03800F6
:102F5000182813D1B06A00F0030001280ED13068A0
:102F600010F4807F1CBFE069802840F0EA80706820
:102F7000216A4FF0F84292FAA2F21AE0E169306851
:102F8000002900F0AA8040F080003060FEF734FF96
:102F90000546306810F4807F05D1FEF72DFF401BF9
:102FA0000228F6D955E17068216A4FF0F84292FA8A
:102FB000A2F2B2FA82F220F0F84091400843706029
:102FC0002078000722D56169706F79B140F0010067
:102FD0007067FEF711FF0546706F10F0020F15D1F4
:102FE000FEF70AFF401B0228F6D932E120F001006B
:102FF0007067FEF701FF0546706F10F0020F05D0F5
:10300000FEF7FAFE401B0228F6D922E1207880065E
:1030100022D5A169306879B140F480503060FEF764
:10302000EBFE0546306810F4005F15D1FEF7E4FEB4
:10303000401B0228F6D90CE120F480503060FEF7E6
:10304000DBFE0546306810F4005F05D0FEF7D4FEC5
:10305000401B0228F6D9FCE02078400768D5D6F856
:10306000000440F48070C6F80004FEF7C5FE054673
:10307000D6F8000410F4807F05D1FEF7BDFE401B9A
:103080006428F5D9E5E0A06858B1012805D0316F72
:10309000052833D141F004003067306F40F0010063
:1030A00032E0306F20F001003067306F20F0040014
:1030B0003067FEF7A1FE0546306F10F0020F37D0E3
:1030C00041F28837FEF798FE401BB84200F2C180FB
:1030D000306F10F0020FF5D12AE020F08000306050
:1030E000FEF78AFE0546306810F4807F3FF468AF33
:1030F000FEF782FE401B0228F5D9AAE021F001006C
:103100003067306F20F004003067FEF775FE05462B
:10311000306F10F0020F0BD141F28837FEF76CFED2
:10312000401BB84200F29580306F10F0020FF5D0CE
:10313000676A002F00F08080306900F0380018289E
:1031400001D1012086E0306820F080703060FEF709
:1031500053FE05463068022F00F000706BD140B17D
:10316000FEF74AFE401B022873D8306810F0007F3B
:10317000F6D1B06A40F2F33104F130034FF4FE07A8
:103180008843D4E90A12084340EA0210B0620FCB28
:103190007F3100F2FF107F3249026FF35F2007EAB0
:1031A000024289B2084303F17F0110434FF0FE420F
:1031B00002EA016108434FF6F8713063706BA26C4C
:1031C000884391FAA1F1B1FA81F102FA01F10843C1
:1031D0007063F06A216C20F00C000843F062F06A22
:1031E000616C20F002000843F062F06A40F4803025
:1031F000F062F06A40F40030F062F06A40F480203F
:10320000F062F06A40F00100F062306840F08070D7
:103210003060FEF7F1FD0446306810F0007F0BD1FE
:10322000FEF7EAFD001B022813D83168002011F0D8
:10323000007FF5D00EE008B900200BE0FEF7DCFDC2
:10324000401B032805D23168002011F0007FF5D122
:1032500000E00320C0B201B0F0BD411E0020B0EB81
:10326000116F1CBF012070474EF21002F023CEF206
:10327000000251604EF62351CEF200010B7007217F
:1032800090601160704790F83C20012A01D1022122
:1032900022E010B5012240F2004480F83C20C4F244
:1032A00001040268536842F4806ED2F808C0A64553
:1032B00002BF4C6823F4700323430C68896823F031
:1032C0007003234353602CF0800319439160002165
:1032D00080F83C10BDE81040C8B2704710B50446F5
:1032E000A0B194F83D0028B9002084F83C002046A5
:1032F00000F00EF80220211D84F83D00206800F047
:1033000028FD012084F83D00002010BD012010BDE3
:10331000006841F20001C4F20001884218BF704702
:1033200081B044F2E840C5F60200016841F01001A6
:103330000160006800F010000090009801B0704734
:10334000022180F83D1001680A8842F001020A80DB
:10335000012180F83D100020704770477047B0B5DC
:1033600004460068C269D0F800C0856812F00F0FEB
:1033700074D001210CF49073C1F20001294019436B
:103380007AD0D1071FBF1CF4807101210162E16F67
:103390001CBF41F00101E167930705F0010106D56B
:1033A00029B102230362E36F43F00403E367530789
:1033B00006D529B104230362E36F43F00203E367F8
:1033C00013070ED50CF0200E05F0805343EA0E03D0
:1033D00019431FBF08210162E06F40F0080018BFC9
:1033E000E067E06F002800F0B180900608D50CF08F
:1033F000200005F0805108431CBF204600F02AFE43
:103400002068E16F11F0080F04BF816811F0400FD0
:1034100000F08380016821F490710160816821F0DF
:1034200001018160202184F87A10816811F0400F39
:1034300065D0816821F040018160606F00285ED016
:1034400043F6A371C0F600010165FEF760F800289D
:103450007CD0606F016DBDE8B040084791060BD588
:103460000CF0200E05F0805151EA0E0104D02046E8
:10347000BDE8B04000F0EEBDD1020FD515F48001DB
:103480000CD04FF480110162202084F8790084F878
:103490007A002046BDE8B040FFF75FBF11061ED599
:1034A0000CF0800105F40003194318D094F879104A
:1034B00021294BD1B4F86210A9B3A168B1F5805F9E
:1034C00004BF2169002942D0E16D4A1CE2650978F8
:1034D0000185B4F862000138A4F86200B0BD02EAC8
:1034E0000C01490610D5016821F04001016020203F
:1034F00084F879002046BDE8B04000F06BB9204662
:10350000BDE8B040FFF72ABF11021FD51CF0804173
:103510001CD0016821F0804117E02046FFF71EFF14
:103520000020E067B0BD01466FF4000351F8082B9E
:1035300012F0005208BF01460A6808BF6FF080030E
:103540001A400A60016841F040010160B0BDE16DC0
:1035500031F8022B6FF35F220285E165B9E710B500
:103560000446A8B194F8790028B9002084F87800BE
:10357000204600F026F8242084F8790020680168AD
:1035800021F001010160204600F09EFD012801D1DB
:10359000012010BD606B10B1204600F063FC206874
:1035A000416821F490414160816821F02A018160E5
:1035B000016841F0010101602046BDE8104000F0C3
:1035C000BBBC70B586B0044601A81421FCF7B8FE58
:1035D000206844F20041C4F2000188424AD144F21A
:1035E000E0400026C5F60200816841F400318160A8
:1035F000816801F4003100910099016841F00801EF
:10360000016001A9006800F0080000900098022005
:103610000290602001900720CDE90366059040F6F6
:103620000040C5F60200FEF70BFB40F2F445102106
:103630002C2040224FF48063C2F20045C4F2020104
:10364000C5E9001005F114001421C5E902262B611B
:10365000FCF776FE2846FEF719F908B1FCF7D3FF10
:103660002620012100222567AC63FEF72BFC2620D3
:10367000FEF719FC06B070BD90F87A30202B06D109
:10368000012329B122B190F87830012B02D1022315
:10369000D8B270474166012180F87810A0F8682000
:1036A000A0F86A20816851B1B1F1805F0BD0B1F50B
:1036B000805F0FD1016921B940F2FF1108E0016973
:1036C00029B9FF2104E0016909B13F2100E07F2110
:1036D000A0F86C100021C16780F87810222180F8D2
:1036E0007A100068816841F0010181600268016818
:1036F00012F0005F03D141F49071016006E041F4E3
:1037000080710160816841F0805181600023BFE7D2
:10371000006844F20041C4F20001884218BF7047BB
:1037200010B540F2AC5409A10C22C2F2004420466C
:1037300000F012F840F22C6120460222C2F2004151
:10374000FFF79AFFBDE81040704700BF50574D206B
:103750005570746174650A00B0B5044690F879003C
:103760001346202805D131B12BB194F878000128F7
:1037700003D102252CE001252AE000250120A4F830
:10378000623044F24F0C44F22702E567E16584F8A9
:1037900078002120A4F86030C0F6000CC0F60002CA
:1037A00084F87900206FC0E90F2C43F6B372C0F69D
:1037B0000002C0E9132522682832FEF7A7F9206825
:1037C0004021016284F87850816841F08001816075
:1037D000E8B2B0BD70477047FEE7B0B588B001A849
:1037E0001C21FCF7ADFD40F2044042F20011002420
:1037F000082204230125C2F20040C4F20201C0E9FC
:1038000000144FF48051C0E9022403618482856171
:103810000477C0E90954C0E90B4144630587FDF70B
:1038200013FA08B1FCF7EFFE1020029501A90190F0
:103830000720CDE9030440F20440CDE90544C2F27B
:103840000040FCF72BFF08B1FCF7DDFE08B0B0BD6F
:1038500080B58AB001A82421FCF772FD40F26840CF
:1038600047F20041C2F20040C4F200010160FDF7DE
:1038700071FD08B1FCF7C7FE16200121002202905D
:10388000002001900390CDE9041040F2684001A9A6
:10389000C2F20040FDF770FC08B1FCF7B4FE0AB0BC
:1038A00080BD80B582B044F2D8400022C5F6020047
:1038B000016841F0010101600021006800F0010091
:1038C000019001980B20FEF7FDFA0B20FEF7EBFAB2
:1038D0000C2000210022FEF7F5FA0C2002B0BDE812
:1038E0008040FEF7E0BAF0B587B044F2E040002631
:1038F00040F2004400224FF48147CDE90566C5F649
:103900000200C5F60204016841F00401016001688B
:1039100001F0040101910199016841F08001016009
:10392000016801F0800101910199016841F00101F4
:103930000160016801F0010101910199016841F004
:1039400002010160016801F0020101910199016821
:1039500041F0080101604FF48141006800F0080067
:10396000019001982046FEF742FA002002ADC1F214
:103970001110294603904FF40050029004F5806026
:103980000496FEF75DF901202946CDE90270204634
:10399000CDE90466FEF754F9282001210022FEF744
:1039A00091FA2820FEF77FFA07B0F0BD10B584B079
:1039B00040F26C5041F200014FF4C8720024092318
:1039C000C2F20040C4F2000180E81600C3608461C6
:1039D0000394CDE90144FFF781FC08B1FCF713FE25
:1039E0002020039401A9019040F26C50C2F20040E3
:1039F000FFF749FC08B1FCF706FE04B010BD10B596
:103A000040F2AC5444F200414FF4E13000220C2368
:103A1000C2F20044C4F20001C4E9001004F118002D
:103A20002021C4E90222C4E90423FCF789FC2046D2
:103A3000FFF795FD18B1BDE81040FCF7E4BD10BDDF
:103A4000FEE770477047F0B581B044F20047054685
:103A50000C46C5F60207B86A00F00300032801D13E
:103A6000012064E0386820F080603860FEF7C4F917
:103A70000646386810F0006F05D0FEF7BDF9801BD0
:103A80000228F6D950E0B86A29682B1D4FF4FE06CB
:103A9000002C20F47C3040EA0130B8620FCB01F1F9
:103AA0007F0100F2FF1002F17F024FEA41216FF324
:103AB0005F2006EA024289B240EA010003F17F0179
:103AC00040EA02004FF0FE4202EA016140EA0100D2
:103AD000B863F86A696920F0C00040EA0100F86242
:103AE000F86AA96920F0200040EA0100F86207D0D6
:103AF000F86A012C14BF40F4001040F4801002E07A
:103B0000F86A40F40020F862386840F0806038605D
:103B1000FEF772F90446386810F0006F06D1FEF720
:103B20006BF9001B0328F6D3032000E00020C0B28D
:103B300001B0F0BDF0B581B044F2004705460C4637
:103B4000C5F60207B86A00F00300032801D101207E
:103B500064E0386820F080503860FEF74DF9064682
:103B6000386810F0005F05D0FEF746F9801B022888
:103B7000F6D950E0B86A29682B1D4FF4FE06002CD8
:103B800020F07C7040EA0150B8620FCB01F17F0158
:103B900000F2FF1002F17F024FEA41216FF35F2034
:103BA00006EA024289B240EA010003F17F0140EADD
:103BB00002004FF0FE4202EA016140EA010038646F
:103BC000F86A696920F4406040EA0100F862F86A26
:103BD000A96920F4007040EA0100F86207D0F86A91
:103BE000012C14BF40F0807040F4000002E0F86A3D
:103BF00040F48000F862386840F080503860FEF78A
:103C0000FBF80446386810F0005F06D1FEF7F4F8C0
:103C1000001B0328F6D3032000E00020C0B201B04F
:103C2000F0BD7047FEF7EEB8B0B5CCB039A84C2166
:103C3000FCF786FB31A82021FCF782FB02A8BC21FF
:103C4000FCF77EFB44F60C00C5F60200016821F08B
:103C50000401016000210191C16841F44041C1604B
:103C6000C16801F4404101910199C16811F4005FFC
:103C7000FBD04FF4A0200324012100253A9011200D
:103C800039943C9020203D900220CDE9420044919F
:103C90006421CDE945100421CDE947100C2049905D
:103CA00039A8CDE94A55FFF78DF83F2031A931C138
:103CB00008204FF4806134904020CDE93500CDE9F3
:103CC000371031A80221FEF79DFE0220C8F208003D
:103CD00002904FF4003016951F952A9002A8FEF727
:103CE00063FA4CB0B0BD4EF6085C4EF67F50CEF293
:103CF000000CCEF6F620DCF8801041F47001CCF810
:103D0000801044F20041C5F602010A6842F0010247
:103D10000A6000220A610B68184008608A61CA6163
:103D20000A628A62CA620A634A638A63CA630A646D
:103D30004A64086820F48020086048F208100A6687
:103D40000121C5F2001001604FF00060CCF80000C6
:103D50007047B0B5038840F6FF3240F2000EC4F25F
:103D60000002C4F2010E90420FDCB0F1804F1EBF82
:103D700040F20042C4F20002904212D040F600022B
:103D8000C4F2000290420CD046E040F60042C4F279
:103D9000000290421EBF40F20042C4F20102904273
:103DA00038D14A680EF5884423F07003041BB4FA36
:103DB00084F465090EF5804413430EF59042041B0C
:103DC000821AB4FA84F4B2FA82F24FEA541C52090D
:103DD000CC6823F4407323434FF67F74002A03EA30
:103DE00004034C6943EA040303808B68C3620B68D5
:103DF000038506D12DB970451CBF0EF58062904237
:103E000002D10969018602E0BCF1000FF9D101215C
:103E10004161B0BD7045C4D00EF580440EF59042AE
:103E20000EF58845041B821A451BB4FA84F4B2FAD5
:103E300082F2B5FA85F54FEA541C44F200045209A7
:103E40006D09C4F20104A0421EBF44F60004C4F28E
:103E50000104A042BCD044F20044C4F20104A042D8
:103E6000B6D0B9E7416B11F0010F08D00268536872
:103E7000D0F838C023F4003343EA0C0353608A07B8
:103E800008D502685368D0F83CC023F4803343EA75
:103E90000C0353604A0708D502685368D0F840C045
:103EA00023F4802343EA0C0353600A0708D5026811
:103EB0005368D0F844C023F4004343EA0C03536032
:103EC000CA0608D502689368D0F848C023F4805326
:103ED00043EA0C0393608A0608D502689368D0F819
:103EE0004CC023F4005343EA0C03936080B54A06A8
:103EF00015D5D0F800E0DEF804C0036D2CF4801274
:103F0000B3F5801F42EA0302CEF8042007D1DEF8A1
:103F10000420436D22F4C0021A43CEF8042009069F
:103F2000BDE8804058BF704701684A68806D22F440
:103F30000022104348607047B0B582B004460020AC
:103F4000E067FDF759FF05462068016811F0080F8A
:103F50000BD06FF07E404FF4001100222B460090F2
:103F6000204600F0D9FB78B92068006810F0040FF3
:103F70000CD06FF07E404FF4800100222B46009061
:103F8000204600F0C9FB08B1032007E020210020F3
:103F900084F8791084F8780084F87A10C0B202B0FE
:103FA000B0BD806B0021A0F86A10A0F86210FFF786
:103FB000D5B910B5846BFDF701FB022808BF10BD11
:103FC00094F8790021280ED12068816811F0800FC3
:103FD00009D00021A4F86210016821F0C00101603D
:103FE000202084F8790094F87A00222812D12068E1
:103FF000816811F0400F0DD00021A4F86A1001680B
:1040000021F490710160816821F00101816020201C
:1040100084F87A00E06F40F01000E0672046BDE8C9
:104020001040FFF79BB9C169806BB1F5807F08BF75
:10403000FFF7D0BB0021A0F862100068816821F072
:1040400080018160016841F0400101607047806B30
:10405000FFF7C1BB0268B0F86C1090F87A30222BE1
:1040600026D1B2F824C08368B3F5805F04BF03692A
:10407000002B22D0436E01EA0C015A1C42661970D3
:10408000B0F86A104FF6FF7201391142A0F86A10B9
:1040900018BF704701680A6822F490720A608A6843
:1040A00022F001028A60202180F87A10FFF730BBED
:1040B000108B40F0080010837047426E01EA0C013B
:1040C00022F8021B4266DBE72DE9F04387B0044685
:1040D000D0F81CC0816A006846F6F31244F200482A
:1040E000A368D4E90476CCF6FF72C5F60208056829
:1040F0000B433B4333432A4043EA0C031A43026019
:104100004268E36822F440521A43A8F50E33426035
:104110009842A7691CBF226A1743B1F1005F02BF32
:10412000D4E90B12394341EA020781684FF2FF429A
:10413000C1F2FF121140394380278160C26A616A6F
:1041400022F00F020A43C26247F2FF72C4F2000279
:1041500090422CDD40F6FF72C4F20102904249DD2C
:1041600040F60042C5F60002904200F07D8041F228
:104170000042C4F20102904200F0878041F2000246
:10418000C4F20102904240F0C78044F25442C5F6A6
:1041900002021268C2F3C207052F00F2B280DFE804
:1041A00017F08200B200B400B600B800BA0044F6BE
:1041B000FF32C4F20002904239DC44F20042C4F201
:1041C0000002904200F0718044F60002C4F2000246
:1041D000904240F0A18044F25442C5F602021268B7
:1041E00002F00707052F00F28C80DFE807F0888CCB
:1041F0008E90929447F60002C4F20002904200F0C2
:10420000628047F60042C4F20002904240F084808F
:1042100044F25442C5F60202126802F00707052F65
:1042200000F26F80DFE807F06B6F7173757744F60B
:104230000042C4F20002904200F0538045F20002B6
:10424000C4F20002904240F0678044F25442C5F646
:104250000202126802F00707052F00F25280DFE821
:1042600007F04E525456585A44F25442C5F60202D0
:10427000526802F00707052F00F24380DFE807F0DD
:1042800003434547494B022746E044F25442C5F6F2
:1042900002021268C2F3C207052F32D8DFE807F026
:1042A00003333537393B012736E044F25442C5F633
:1042B0000202126802F00707052F22D8DFE807F094
:1042C0001F232527292B44F25442C5F60202126807
:1042D00002F00707052F14D8DFE807F011151719AA
:1042E0001B1D44F25442C5F60202126802F0070791
:1042F000052F06D8DFE807F00307090B0D0F00278D
:104300000AE0802708E0042706E0402704E00827A9
:1043100002E0102700E020270125984216D0BCF5C6
:10432000004F2FD100200F2F4BDC082F00F26C81A3
:10433000DFE817F00900C0006A016A01CD006A01D8
:104340006A016A01DC00FEF775FCB5E040F6001971
:104350000F2FC0F23D0928DC022F5FD0042F60D060
:10436000082F40F07481D8F8001049F20000C0F224
:10437000D03011F0200F1EBFD8F80010C1F3C101DA
:10438000C84058E00F2F32DC082F00F26081DFE8D0
:1043900017F00900BD005E015E01D1005E015E0103
:1043A0005E01E500FEF746FCB2E0102F3FD0202F63
:1043B0003FD0402F40F04B8101A8FDF777FE0298D7
:1043C00033E0102F00F0DA80202F00F0E280402F41
:1043D00040F01A8101A8FDF769FE606A44F6F60212
:1043E0006168C0F6000232F81000029A7BE0102FDC
:1043F00000F0DD80202F00F0E580402F40F0278185
:1044000001A8FDF753FED4E90001626A44F6F60301
:10441000C0F6000333F81220029B98E0FDF7B1FDCF
:1044200003E004A8FDF7C4FD059820B90EE1484655
:1044300001E04FF400406668012506EB4601884222
:10444000C0F005813103884200F2018101250F2F60
:104450001ADC022F00F0FF80042F00F01181082FDA
:1044600040F04F81D8F8000010F0200F40F0278175
:10447000606A44F6F601C0F6000131F8102049F2F6
:104480000000C0F2D0302BE1102F00F0EF80202F81
:1044900000F00381402F40F0348101A8FDF706FEB3
:1044A000606A44F6F6016668C0F6000131F8102033
:1044B000029815E1FEF7E5FB626A44F6F6036168CF
:1044C000C0F6000333F81220B0FBF2F096E004A827
:1044D000FDF76EFD606A44F6F6026168C0F6000200
:1044E00032F81000059AB2FBF0F087E0D8F800002F
:1044F00010F0200F6FD144F6F600C0F6000030F83F
:10450000110049F20001C0F2D03174E0FEF7B9FBAE
:10451000636A44F6F60762682168C0F6000737F858
:104520001330B0FBF3F000EB5200B0FBF2F080B2BE
:10453000C8608BE004A8FDF73BFDD4E90001626A86
:1045400044F6F603C0F6000333F81220059BB3FBD4
:10455000F2F202EB5102B2FBF1F175E0D8F8002063
:1045600012F0200F59D144F6F602C0F6000232F8DC
:10457000111049F20002C0F2D0325EE044F6F600BB
:10458000C0F6000030F8110040F60011C0F23D0105
:1045900031E044F6F600C0F6000030F811004FF4A8
:1045A0000041B1FBF0F061684200480828E044F6A1
:1045B000F602C0F6000232F8111040F60012C0F206
:1045C0003D023AE044F6F602C0F6000232F811105D
:1045D0004FF4004231E044F6F60049F20002C0F622
:1045E0000000C0F2D03230F81100D8F80010C1F34A
:1045F000C10122FA01F1B1FBF0F0616840004A0804
:1046000010440025B0FBF1F04FF6F0710140C0F30B
:10461000420008432168C86019E044F6F60249F2F6
:104620000003C0F60002C0F2D03332F81110D8F8FF
:104630000020C2F3C10223FA02F2B2FBF1F1626878
:1046400001EB5201B1FBF2F189B2C16000252846AD
:1046500007B0BDE8F083FDF794FC616A44F6F6020A
:104660006668C0F6000232F8112039E0606A44F64C
:10467000F601C0F6000131F81000B9FBF0F017E0C8
:1046800004A8FDF795FC606A44F6F6016668C0F67A
:10469000000131F81020059822E0606A44F6F60126
:1046A000C0F6000131F810004FF40041B1FBF0F00A
:1046B0000002002500EB5600B0FBF6F021E0D8F830
:1046C0000000616A44F6F602C0F6000232F81120DA
:1046D00049F20001C0F3C100C0F2D03121FA00F06C
:1046E000002100230025FBF7F3FD090232460023D9
:1046F00041EA1061000210EB560041F10001FBF7A6
:10470000E7FD4FF6FF42A0F54071C0F20F02914263
:104710007FF680AF01259AE72DE9F04381B004468A
:1047200000680E469846C1693140891BB1FA81F193
:104730004F09974216D1DDF8209009F101054DB1DE
:10474000B9F1000F10D0FDF757FBA0EB080120686E
:10475000494509D8C1693140891BB1FA81F149093C
:10476000B942ECD0002010E0016821F4D071016062
:10477000816821F0010181602020002184F8790006
:1047800084F8781084F87A000320C0B201B0BDE844
:10479000F08340F2AC50C2F20040FEF7E0BDFEE70D
:1047A00080B582B04FF4006147F20042ADF80610C8
:1047B000C4F200020168914207D100210DF1060206
:1047C000012300910021FCF72EFE02B080BD89B1CB
:1047D00080B5D2F804C04B1E4FF4006E1CFA83FC67
:1047E000034623F802EB0139FBD10CF101015160C2
:1047F000BDE880407047000070B5FDF710FBFFF783
:1048000013FAFFF770F8FFF74CF8FFF7F8F8FFF727
:10481000CDF8FFF71DF8FEF7E0FF40F2AC5040F294
:104820002C610222C2F20040C2F20041FEF724FFD6
:1048300040F26C50C2F20040FEF782FD40F20444A8
:104840004FF480310022C2F200442046FBF7DCFE28
:104850009FED1B0B40F2100540F21800FA21C2F246
:104860000045C2F200402A46FFF7B1FF40F268401F
:10487000C2F20040FFF794FF4FF47A70FDF7B1F9F0
:1048800040F2011040F20046288040F20045C2F29A
:104890000046C5F602054FF4FA70FDF7A2F9284666
:1048A0008021FDF7A0FA2046FCF7DFFB20464FF4FD
:1048B0007A71FCF730FB2046FCF7C3F93060EAE779
:1048C000F168E388B5F8F43E02E008C8121F08C199
:1048D000002AFAD170477047002001E001C1121F81
:1048E000002AFBD17047000000000102030401020E
:1048F000030406070809010002000400060008007E
:104900000A000C001000200040008000000100069A
:104910001016000610160000384900080000002498
:1049200010000000C8480008484900081000002492
:10493000280A0000D84800080090D0030090D00357
:0849400001000000100000005E
:040000050800029954
:00000001FF
