:020000040800F2
:10000000280A002439030008512E00085D2C00083E
:100010004F2E0008DB040008773B000800000000BA
:100020000000000000000000000000003530000863
:100030005506000800000000532E00083730000865
:100040005303000853030008530300085303000838
:100050005303000853030008530300085303000828
:100060005303000853030008530300083905000830
:100070004505000853030008530300085303000814
:1000800053030008530300085303000853030008F8
:1000900053030008530300085303000853030008E8
:1000A00053030008530300085303000853030008D8
:1000B00053030008530300085303000853030008C8
:1000C00053030008530300085303000853030008B8
:1000D00053030008530300086B3B00085303000858
:1000E00057060008530300080000000053030008EF
:1000F0005303000853030008530300085303000888
:100100005303000853030008530300085303000877
:100110005303000853030008530300085303000867
:100120005303000853030008530300085303000857
:100130005303000853030008530300085303000847
:1001400000000000000000000000000000000000AF
:100150005303000853030008530300085303000827
:100160005303000853030008530300085303000817
:100170005303000853030008530300080000000065
:1001800053030008530300085303000853030008F7
:1001900053030008530300085303000853030008E7
:1001A00053030008530300085303000853030008D7
:1001B00053030008530300085303000853030008C7
:1001C00053030008530300085303000853030008B7
:1001D00053030008530300085303000853030008A7
:1001E0005303000853030008530300085303000897
:1001F0005303000853030008530300085303000887
:100200005303000853030008530300085303000876
:100210005303000853030008530300085303000866
:1002200053030008530300085303000800000000B4
:1002300053030008530300080000000053030008A4
:100240005303000853030008530300085303000836
:100250005303000853030008530300085303000826
:100260005303000853030008530300085303000816
:100270005303000853030008530300080000000064
:1002800053030008000000005303000800000000B2
:10029000000000005303000800F002F800F03CF8F2
:1002A0000AA090E8000C82448344AAF10107DA45D1
:1002B00001D100F031F8AFF2090EBAE80F0013F0E7
:1002C000010F18BFFB1A43F0010318477C410000DF
:1002D0009C410000103A24BF78C878C1FAD8520770
:1002E00024BF30C830C144BF04680C6070470000B0
:1002F0000023002400250026103A28BF78C1FBD82F
:10030000520728BF30C148BF0B6070471FB503F0CC
:10031000EBFF1FBD10B510BDDFF80CD0FFF7F6FFE7
:1003200003F09AFC00F0C8F8280A002403B4FFF791
:10033000F1FF03BC00F0CAF80648804706480047B2
:10034000FEE7FEE7FEE7FEE7FEE7FEE7FEE7FEE785
:10035000FEE7FEE7E53000089902000853EA020CC8
:1003600000F069802DE9F04B4FF00006002B1FBF15
:10037000B3FA83F503FA05F424FA05F65E4012BFDA
:100380001643B2FA82F502FA05F4C5F120051EBF44
:1003900022FA05FC44EA0C04203556EA044C4FEAE4
:1003A000144418BF641C4FF000084FF0000990423D
:1003B00071EB030C39D3002919BFB1FA81F701FAA7
:1003C00007F6B0FA80F700FA07F6C7F120071EBF5C
:1003D00020FA07FC46EA0C062037B6FBF4FCA7EB34
:1003E0000507103F07F01F0BCBF120062CFA06F68D
:1003F0000CFA0BFB44BFB3460026202FA4BF5E4679
:100400004FF0000B5BEA060C08BF4FF0010B19EB35
:100410000B0948EB0608ABFB027C06FB02CC0BFB8E
:1004200003CCC01B71EB0C01C1E70B4602464146F1
:100430004846BDE8F08B13B54FF000004FF00001C7
:10044000AFF30080BDE81C4070474FF0000200B5DC
:10045000134694469646203922BFA0E80C50A0E8E7
:100460000C50B1F12001BFF4F7AF090728BFA0E895
:100470000C5048BF0CC05DF804EB890028BF40F861
:10048000042B08BF704748BF20F8022B11F0804FA3
:1004900018BF00F8012B704710B500F009F800688C
:1004A00010BD10B5044600F003F8046010BD000054
:1004B000004870471000002410B50446AFF30080D8
:1004C0002046BDE81040FFF731BF00000149182069
:1004D000ABBEFEE7260002007047FEE710B5846B56
:1004E000204600F040F90120207110BD10B5846B4A
:1004F000204600F0B5F80120207110BD10B5846BC6
:10050000206940F004002061204600F02EF901200F
:10051000207110BD10B5846B206940F0040020618B
:10052000204600F09FF80120207110BD806B00F084
:100530001BB9806B00F095B840F2FC00C2F200409D
:1005400000F04CBA40F28400C2F2004000F046BA1B
:1005500001684AF6F832CAF2FD728B18CAB28C2BC7
:100560000DD8A2F108014CF6CD4245F60003CCF6B9
:10057000CC42C5F60203A1FB0212110918E04FF6A6
:10058000F0334FF0080CCBF6FD730B44A2F11001D1
:100590004AF6AB22CAF6AA22A92B40F60003A1FB19
:1005A0000212C4F202034FEA121138BF0CEB12110F
:1005B000012203F1800C03EB810302FA01F1C0E98F
:1005C000183C81667047B0B5D0F858E0D0E919C43E
:1005D000CCF80440C46E1CB1D0E91CC4CCF8044073
:1005E000D0F800C04FF6F074CBF6FD746444B4F557
:1005F000956F0CD8C46D3F2505FA04F4CEF8084079
:10060000DCF8005025F48025CCF8005014E04AF6C0
:10061000F835CAF2FD7565448C2D88BFB0BDC56D37
:1006200045F2044E0124C5F6020E04FA05F5DEF883
:1006300000402C43CEF80040CCF8043080684028BD
:10064000084608BF1046CCF8080008BF0A46CCF898
:100650000C20B0BD70474FF4005000F017BD70473C
:100660007047704770472DE9F04104460E46154625
:100670000220617901296CD02071012060713068FD
:10068000042831D185B12068406BB0F1FF3F04DC14
:1006900000F0E2FD0228F6D35EE0012000F0D1FC7C
:1006A0002068B169416419E000F0D6FD0746206872
:1006B00048F20008C2F20008406B06E000F0CCFDF2
:1006C000C01B022848D22068406B10EA080FF5D101
:1006D000012000F0B6FC2068B1690164F169A9400D
:1006E0008164316AA940C16431692068012908D157
:1006F000826B1F21A94022EA01017269AA401143BD
:100700008163C26B0721A94022EA01013268D6E960
:1007100002371A433A43AA401143C1634FF4804160
:100720000268A94022EA0101016040F6FE710268F8
:10073000A94022EA01017268AA4011430160C02168
:100740000268A94022EA01010160002001216071D4
:100750002171C0B2BDE8F081206940F0080020613D
:1007600003202071F5E770477047704710B50446C5
:100770006CB1207920B900206071204600F009F8A2
:1007800002200121207100202061217110BD012073
:1007900010BDF0B587B0044602A81421FFF755FE3E
:1007A000206847F20041C4F20001884247D144F278
:1007B000E0400026C5F60200816841F000518160EA
:1007C000816801F0005101910199016841F0010136
:1007D000016002A9006800F0010001900198032067
:1007E00003901020029000200496C5F6020000F04D
:1007F00057FC40F284052821432040224FF48063B7
:100800004FF4006C4FF4005E4FF48077C2F2004565
:10081000C4F20201C5E9001005F11000C5E9022685
:1008200080E808504FF48030EF61C5E9080628469B
:1008300000F05CFA08B1FFF712FFA560AC6307B0E7
:10084000F0BD70B504460E460220617901296AD0D8
:10085000DDF810C020710120002E607122D0E06808
:1008600040F2335140F2ED45BCF1080FC0F60001F3
:10087000C0F60005C0E90F5140F21551C0F6000165
:10088000C16421680D6845F080550D602DD0BCF124
:10089000040F2DD0BCF1000F0CBF01F1140C4FF070
:1008A000000C27E0A06840F22D5E40F2DD41BCF173
:1008B000080FC0F6000EC0F60001C0E90F1E40F29E
:1008C000FD41C0F60001C16421680D6845F4805502
:1008D0000D6016D0BCF1040F10D0BCF1000F0CBF9E
:1008E00001F1080C4FF0000C0DE001F11C0C01E0CF
:1008F00001F1180C0D6845F0005507E001F10C0CF2
:1009000001E001F1100C0D6845F400550D60114631
:10091000624600F02BFB002001216071B14022688B
:10092000136819431160C0B270BD10B390F8351050
:1009300002291CD101684FF6F072CBF6FD720A4411
:10094000B2F5956F18D8042280F835200F20C4F234
:100950000200814282BF40F2B940C4F202008142EB
:10096000086820F0010008604FF0000102E08021DB
:1009700041650121084670470A6845F20443C5F6FF
:10098000020322F00E020A600A6822F001020A60E5
:10099000016E0A6822F480720A600121C26D01FAB8
:1009A00002F21A60D0E919235360C26E32B11368A3
:1009B00023F480731360D0E91C23536080F8351052
:1009C000002180F83410026D002AD3D080B5904702
:1009D0000021BDE88040CDE7406D70472DE9F04F24
:1009E00081B0044600204FF6F072009040F2000003
:1009F000CBF6FD72D4F858B0C2F200400168DBF8C3
:100A0000008027683A44B2F5956F00F2858048F27D
:100A1000B512082340F20F0940F2B94AC1F64E322E
:100A2000C4F20209C4F2020AA1FB021CE16D03FA3E
:100A300001F212EA080F14D057454FF0080538BFED
:100A400004254F4598BF1D463B682B4209D03B68A3
:100A500023F004033B60CBF80820626D42F00102F2
:100A600062650122C0F2800202FA01F313EA080F64
:100A700018D057454FF000064FF00005384638BFF4
:100A800001264F4588BF01252E4018BF143000684D
:100A900018BF802630421FBFCBF80830606D40F091
:100AA00002006065D01C00FA01F212EA080F12D0B1
:100AB00057454FF000034FF0000038BF01234F456A
:100AC00088BF58003B6803421FBFCBF80820606D09
:100AD00040F004006065102000FA01F111EA080FEF
:100AE00072D057454FF004024FF0040038BF08227F
:100AF0004F4598BF02463868104265D0CBF80810C1
:100B00003868396810F4802F43D1C8055EBF386853
:100B100020F0080038603EE04AF6F830CAF2FD7076
:100B200038448C2800F2C78045F200410423C5F602
:100B300002010868E26D934003421CBF386810F060
:100B4000040F2AD1022000FA02F3086803421CBFF6
:100B5000386810F0020F40F0B180082090400A6819
:100B600010421CBF386810F0080F00F0A4803868ED
:100B7000012220F00E003860E06D4B6802FA00F0B0
:100B8000184348600020626584F8340084F83520FA
:100B90008DE0080312D4216C11E0386810F0200FAA
:100BA00007D13868042220F004003860E06D02FAB2
:100BB00000F3486818434860216C79E0A16C19B1D2
:100BC000204665468847AC46E16D202000FA01F2D8
:100BD00012EA080F47D0206802270223504538BF89
:100BE0001027484598BF1F4603683B423BD0CBF8CF
:100BF000082094F835300268042B1AD122F016022E
:100C00000260426922F080024261226C0AB9A26C41
:100C10001AB1026822F0080202603F208840CBF837
:100C20000800012084F83500002084F83400216D8C
:100C30003EE0016852030CD4C9050ED4016821F0CE
:100C400010010160012084F83500002084F8340090
:100C500003E0080301D4616C00E0E16B19B12046A8
:100C600065468847AC46606D28B3606D10F0010F93
:100C70001DD004204FEA9C2184F8350020680268CA
:100C800022F001020260009A01328A42009203D8E7
:100C9000026812F0010FF6D1002184F8341001210E
:100CA000006800F0010041EA400084F83500E16C82
:100CB00009B12046884701B0BDE8F08F386810F0D0
:100CC000200F0DD13868022220F00A003860012080
:100CD00084F83500002084F83400E06D02FA00F357
:100CE000486818434860E16BE2E700002DE9F043F3
:100CF00081B0044600F0B0FA0546002C00F01781E0
:100D000020684FF6F071CBF6FD710144B1F5956F97
:100D100059D8022184F83510002184F83410016874
:100D200021F00101016006E000F096FA401B062860
:100D300080F0F8802068016811F0010FF4D102689A
:100D400004F1080748F23F038046C2CFCFF6106394
:100D5000D4E9055902EA030CD4E90732D4F824E0B7
:100D600041EA0C01314339432943BEF1040F41EA02
:100D7000090141EA030141EA020367D1D4E90BE129
:100D80004EEA0302BEF1000F41EA0201016058F889
:100D9000141FA26A21F0070141EA020141F0040C8C
:100DA0005BD0B9F5005F00F0C680B9F1000F40F0EC
:100DB000CE80022A00F0CF80012A00F0C280002AF3
:100DC00000F0C98049E04AF6F831CAF2FD710144E9
:100DD0008C2939D8022247F6F07384F83520002296
:100DE00084F8342002689A43D4E90237D4E90465D0
:100DF00042EAD702A3F18007402BB7FA87F74FEA00
:100E000057174FEA873708BF1027A3693A432027AF
:100E100042EAD60242EAD50242EAD302E36907EA8D
:100E2000D3031A43236A42EA131202604CF6CD4000
:100E3000CCF6CC40A1FB00014FF6FC70C3F6FF706E
:100E400000EA9100E06527E040206CE0036058F87C
:100E5000141F21F0070141EA0E0C6FF00F0140F260
:100E6000FF32C8F800C051FA80F190434AF6AB2235
:100E7000CAF6AA225F29A1FB021288BF40F0040033
:100E8000110944F24042A065C0F60002515C3F22C5
:100E9000E16502FA01F181602046FFF759FBA06885
:100EA000802806BF002060606068226EC1B20138F1
:100EB00011600728D4E91923536022D84A1E082A52
:100EC00024D221684AF6F83340F6001645F600179A
:100ED0000120CAF2FD73C4F20206C5F60207904073
:100EE0000B4406F140018D2B3EBF07F1400145F652
:100EF0000016C5F6020606EB8202C4E91B216067F4
:100F000007E00020C4E91B00606705E0D4E91B216D
:100F1000606F00231360486000200121606584F841
:100F2000351005E020206065032084F8350001209D
:100F300001B0BDE8F083032A8FD8DFE802F0110C7E
:100F40001102AEF1C071B1FA81F14A0905E0032A3C
:100F500006D37FF482AFCEF30062002A3FF47DAF68
:100F600040206065012084F83500E1E710B50446B3
:100F7000D4B394F83400012801D102205FE00120AD
:100F800084F8340094F83500012827D1022084F831
:100F9000350000206065D4F800C0DCF8000020F0C7
:100FA0000100CCF800002046FFF70DFB20684FF64B
:100FB000F071CBF6FD7142180168B2F5956F15D846
:100FC0000B2262F344010160416941F080014161FB
:100FD000216CA9B1016841F0080110E04FF40060F4
:100FE0006065002084F83400012028E0052262F3C7
:100FF00043010160216C19B1016841F004010160F5
:10100000216E0A6812F4803F1EBF0A6842F48072A3
:101010000A60E16E19B10A6842F480720A60102118
:10102000C4F20201884222BF40F2B841C4F2020178
:101030008842016841F0010101604FF00000C0B238
:1010400010BDB0B5044600F007F9054640F20800AF
:10105000611CC2F20040007818BF044400F0FCF8A4
:10106000401BA042FAD3B0BDB0F5005F18BF704777
:1010700080B540F200408021C5F6020000F0E3F8A0
:101080004FF4FA70BDE88040FFF7DBBF8821C5F65A
:1010900000010A6802421CBF0860FFF7E5BF704705
:1010A0002DE9F04F82B042F200420A2740F2040BD1
:1010B00044F2F44E4FF0010C0026C5F60202C5F6CC
:1010C000000BC5F6020E904200F1264202F1FF72BB
:1010D00008BF09274FEAB223092B4FF0000338BF9E
:1010E0004FEAB227009700270D680CFA06F815EAB8
:1010F000080F00F09F80D1F8049049F01005122DE0
:1011000015D107F01C050F2202FA05F94FF6FC7203
:10111000C7F6FF7202EA56040444226A22EA090969
:101120000A69AA4042EA09022262D1F804900568DD
:10113000032409F00302B9F1120F04FA03F402FACE
:1011400003F26FEA040A25EA040542EA0502026096
:1011500015D80CFA09F212F0061F1FBF826802EAC6
:101160000A02CC689C401FBF22438260C9F3001270
:10117000B2401FBF446824EA080422434260C268A8
:101180008C6802EA0A029C402243C2605FEAC902FC
:1011900050D5DEF8002040F2084407F00C05C5F6F3
:1011A0000004A2460F24AC4042F00202CEF8002018
:1011B000DEF8002002F002020192019A26F00302FA
:1011C00052F80A9029EA0409009C04FA05F545EA58
:1011D00009044FF0B04942F80A40DBF87C204D6822
:1011E00042EA080415F4803F08BF22EA080415F417
:1011F000003FCBF87C40DBF8802042EA080408BFBF
:1012000022EA080415F4801FCBF88040D9F80020AA
:1012100042EA080408BF22EA080415F4001FC9F8CE
:101220000040DBF8002042EA080408BF22EA080474
:10123000CBF80040013604370233102E04BF02B051
:10124000BDE8F08F50E74269514041617047002A84
:101250000CBF41830183704740F22060C2F200401E
:101260000068704740F2080040F22061C2F200407E
:10127000C2F2004100780A6810440860704780B5E7
:10128000032000F081F8002000F007F808B10120E9
:1012900080BD00F028F8002080BDB0B5044640F2C3
:1012A00008004FF47A71C2F200400078B1FBF0F010
:1012B00040F20001C2F200410968B1FBF0F001F018
:1012C00007FA01250F2C0CD858B94FF0FF302146F2
:1012D0000022002500F026F840F20C00C2F2004087
:1012E00004602846B0BD81B044F2F440C5F6020067
:1012F000016841F002010160006800F00200009006
:10130000009801B0704700280BDB00F01F0101229C
:10131000400902FA01F14EF20012CEF2000242F848
:101320002010704710B500F00F034EF60C5E00F170
:10133000604CB0F1FF3FA3F10403CEF2000E734402
:1013400003F10C04C8BF0CF56444DEF80000C0F3E0
:10135000022000F1040CC31E80F00700BCF1070F4F
:101360004FF0010C38BF0023042828BF04200CFADA
:1013700000F0013808400CFA03F10F319840114099
:1013800008430001207010BD4EF60C514FF6FF03CC
:10139000CEF200010A681A4060F30A2242F080602F
:1013A00040F0FD700860704780B500F0CBFE44F25D
:1013B00018414FF48072C5F60201096892FAA2F250
:1013C000B2FA82F201F47061D14044F21842C0F6E0
:1013D0000002515CC84040F20001C2F200410860C6
:1013E00080BD80B500F042FE44F220411022C5F6D7
:1013F0000201096892FAA2F2B2FA82F201F07001D7
:10140000D14044F21842C0F60002515CC84080BD91
:1014100080B544F2004CC5F6020CDCF82820DCF85C
:1014200028E0DCF82C30DCF83C1003F01003C1F3AA
:10143000CC0111FB03F102F00303CEF3053200EE01
:10144000101A022BB8EE400A0FD09BB9DCF800103E
:1014500049F20003C0F2D03311F0200F1EBFDCF8B8
:101460000010C1F3C101CB4008E041F20023C0F2FB
:101470007A0303E040F60013C0F23D03DCF83810B5
:101480009FED232AB7EE003A6FF35F2101EE101AA9
:10149000B3FBF2F1DCF83820B8EE411A04EE101A72
:1014A00000EE021AC2F34622B8EE440A31EE031AE5
:1014B000511C02EE101A21EE000AB8EE422A80EE0C
:1014C000021ABCEEC11A11EE101A0160DCF83810D5
:1014D000C1F30641013101EE101AB8EE411A80EE57
:1014E000011ABCEEC11A11EE101A4160DCF8381076
:1014F000C1F30661013101EE101AB8EE411A80EE17
:10150000010ABCEEC00A10EE101A816080BD00BF57
:101510000000003980B544F2004CC5F6020CDCF83E
:101520002820DCF828E0DCF82C30DCF8441003F448
:101530008073C1F3CC0111FB03F102F00303CEF37E
:10154000055200EE101A022BB8EE400A0FD09BB9DC
:10155000DCF8001049F20003C0F2D03311F0200F84
:101560001EBFDCF80010C1F3C101CB4008E041F21E
:101570000023C0F27A0303E040F60013C0F23D03FB
:10158000DCF840109FED232AB7EE003A6FF35F219D
:1015900001EE101AB3FBF2F1DCF84020B8EE411A6C
:1015A00004EE101A00EE021AC2F34622B8EE440A04
:1015B00031EE031A511C02EE101A21EE000AB8EEA9
:1015C000422A80EE021ABCEEC11A11EE101A016016
:1015D000DCF84010C1F30641013101EE101AB8EEFB
:1015E000411A80EE011ABCEEC11A11EE101A4160C8
:1015F000DCF84010C1F30661013101EE101AB8EEBB
:10160000411A80EE010ABCEEC00A10EE101A816089
:1016100080BD00BF000000392DE9F041044644F2CE
:101620001048E078C5F60208000725D5606E4FEA3D
:10163000305103290AD8DFE801F0020B1018D8F85E
:101640001C1041F40031C8F81C100EE0012514E014
:10165000201D022101F0FEFB04E004F12400022120
:1016600001F070FC054645B9606ED8F8401021F4D1
:1016700040110843C8F8400000256078C00701D138
:101680002E4629E0606D04280DD82E46DFE800F0D4
:10169000030D12181800D8F81C002E4640F4003034
:1016A000C8F81C000CE001260BE0201D002101F011
:1016B000D1FB04E004F12400002101F043FC0646C4
:1016C0000EB1354308E0D8F84000616D002620F0E7
:1016D00007000843C8F840006078800729D5A06D4E
:1016E0004FEAB01004280BD8DFE800F0030C111704
:1016F0001700D8F81C0040F40030C8F81C000CE0BB
:1017000001260BE0201D002101F0A4FB04E004F100
:101710002400002101F016FC06460EB1354308E016
:10172000D8F84000A16D002620F4E0700843C8F806
:101730004000607840072BD5D4F8A4004FEA7050E1
:1017400004280BD8DFE800F0030C11171700D8F8B5
:101750001C0040F40030C8F81C000CE001260BE02F
:10176000201D002101F076FB04E004F1240000219B
:1017700001F0E8FB06460EB1354309E0D8F8480011
:10178000D4F8A410002620F460000843C8F84800EC
:10179000607800072BD5D4F8A8004FEA3060042801
:1017A0000BD8DFE800F0030C11171700D8F81C0065
:1017B00040F40030C8F81C000CE001260BE0201DAE
:1017C000002101F047FB04E004F12400002101F0B6
:1017D000B9FB06460EB1354309E0D8F84800D4F805
:1017E000A810002620F0E0600843C8F84800E07820
:1017F000800722D5A06C4FEA301003280AD8DFE812
:1018000000F010020B10D8F81C0040F40030C8F8AB
:101810001C0006E0012605E0201D022101F01AFB54
:1018200006460EB1354308E0D8F83C00A16C00260E
:1018300020F030000843C8F83C006078C00629D585
:10184000E06D4FEA303004280BD8DFE800F0030CDD
:1018500011171700D8F81C0040F40030C8F81C001D
:101860000CE001260BE0201D002101F0F3FA04E05A
:1018700004F12400002101F065FB06460EB135435A
:1018800008E0D8F84000E16D002620F4E04008436D
:10189000C8F840006078800622D5206E4FEA3040BC
:1018A000052809D8DFE800F010030A101010201DE9
:1018B000012101F0CFFA06E0012606E004F1240040
:1018C000012101F03FFB06460EB1354308E0D8F890
:1018D0004000216E002620F4E0200843C8F84000B4
:1018E0006078400624D5D4F8AC004FEA3070052863
:1018F00009D8DFE800F010030A101010201D0121A4
:1019000001F0A8FA06E0012606E004F12400012116
:1019100001F018FB06460EB1354309E0D8F848003F
:10192000D4F8AC10002620F0E0400843C8F8480086
:101930006078000620D5E06E88B1B0F1005F09D074
:10194000B0F1805F16D1D8F81C0040F40030C8F820
:101950001C0004E0201D012101F07CFA064656B966
:10196000D8F84000E16E002620F040500843C8F847
:10197000400001E001263543E078C00720D0606CCC
:1019800003280AD8DFE800F010020B10D8F81C007A
:1019900040F40030C8F81C0006E0012605E0201DD8
:1019A000022101F057FA06460EB1354308E0D8F897
:1019B0003C00616C002620F003000843C8F83C009E
:1019C000A078400665D5D8F8F00340F48070C8F8D8
:1019D000F003FFF741FC0746D8F8F00310F4807FCE
:1019E00006D1FFF739FCC01B6428F5D9032600E0B7
:1019F0000EB135434DE0D8F86010D4F8B000414046
:101A000011F4407F11D0D8F86010D8F8602042F46B
:101A1000803221F44071C8F86020D8F8602022F4A8
:101A20008032C8F86020C8F86010B0F5807F14D10B
:101A3000FFF712FC0646D8F8600010F0020F0CD138
:101A400041F28837FFF708FC801BB84200F20E8293
:101A5000D8F8600010F0020FF4D0D4F8B000D8F835
:101A60000010002600F4407221F47C51B2F5407F52
:101A700001BF4FF6CF72C0F2FF0202EA101211430B
:101A80006FF31F30C8F80010D8F860100843C8F88A
:101A900060002078C00722D0A06F4FEAF000052830
:101AA00009D8DFE800F010030A101010201D0121F2
:101AB00001F0D0F906E0012606E004F1240001213E
:101AC00001F040FA06460EB1354308E0D8F844006C
:101AD000A16F002620F038000843C8F844002078A1
:101AE000800720D5606F052809D8DFE800F01003D3
:101AF0000A101010201D012101F0ACF906E00126AA
:101B000006E004F12400012101F01CFA06460EB1A2
:101B1000354308E0D8F84400616F002620F0070044
:101B20000843C8F844002078400722D5D4F8900034
:101B3000052809D8DFE800F010030A101010201D56
:101B4000012101F087F906E0012606E004F12400F6
:101B5000012101F0F7F906460EB1354309E0D8F846
:101B60004800D4F89010002620F007000843C8F879
:101B700048002078800624D5D4F88C004FEA3070D5
:101B8000052809D8DFE800F010030A101010201D06
:101B9000002101F05FF906E0012606E004F12400CF
:101BA000022101F0CFF906460EB1354309E0D8F81D
:101BB0004400D4F88C10002620F0E0400843C8F818
:101BC00044002078400624D5D4F898004FEAB0208D
:101BD000052809D8DFE800F010030A101010201DB6
:101BE000002101F037F906E0012606E004F12400A7
:101BF000022101F0A7F906460EB1354309E0D8F8F5
:101C00004800D4F89810002620F4E0500843C8F8A3
:101C100048002078000624D5D4F89C004FEA7030A4
:101C2000052809D8DFE800F010030A101010201D65
:101C3000002101F00FF906E0012606E004F124007E
:101C4000022101F07FF906460EB1354309E0D8F8CC
:101C50004800D4F89C10002620F460400843C8F8DF
:101C60004800206810F0080F13D0D4F88010B1F5A8
:101C7000805F07D104F12400022101F063F90543DC
:101C8000206806E0D8F8442022F440521143C8F8F6
:101C90004410C10613D5D4F89410B1F5807F07D154
:101CA00004F12400022101F04DF90543206806E00B
:101CB000D8F8482022F440721143C8F848100003B5
:101CC00021D5D4F8A000B0F5003F0ED0B0F5803F8C
:101CD00005D0B0B9201D002101F0BCF804E004F1EA
:101CE0002400022101F02EF906465EB9D8F848001A
:101CF000D4F8A010002620F440300843C8F848006B
:101D000001E001263543A078400725D5D4F88400AA
:101D1000B0F5401F12D0B0F5001F09D0B0F5801FFC
:101D200018D1D8F81C0040F40030C8F81C0005E0B9
:101D300004F12400012101F005F906465EB9D8F846
:101D40004400D4F88410002620F440100843C8F85A
:101D5000440001E001263543A078C0071DD0E06CA7
:101D6000B0F5803F07D0B0B9D8F81C0040F400307F
:101D7000C8F81C0004E0201D022101F06BF80646A3
:101D800056B9D8F83C00E16C002620F480300843B6
:101D9000C8F83C0001E001263543206810F0005FE0
:101DA00006D004F12400022101F0CCF8054320689C
:101DB00081031CD5E16F6FF0010202EB3122022A90
:101DC0000AD34FEA31223AB1012A0ED1D8F81C20A9
:101DD00042F40032C8F81C2046B9D8F8442022F456
:101DE00040721143C8F8441001E001263543C10296
:101DF00007D5D8F84010226F21F000411143C8F8F0
:101E00004010C10008D5D8F80010D4F8B42021F44F
:101E100080411143C8F80010810207D5D8F840105E
:101E2000A26E21F080711143C8F8401041000CD51A
:101E3000D8F8001021F40041C8F80010D4F8B81008
:101E4000D8F800201143C8F80010B0F1FF3F07DCBC
:101E5000D8F83C00216D20F040500843C8F83C0001
:101E6000002D18BF01252846BDE8F08145F0030587
:101E700003260EE62DE9F04381B042F20008044645
:101E80000D46C5F20028D8F8000000F00700A8426F
:101E90000CD2D8F8000020F007002843C8F8000052
:101EA000D8F8000000F00700A84270D1206844F282
:101EB0001047C5F6020710F0020F05D0B968E268B6
:101EC00021F00F011143B960C00750D1D8F80000CC
:101ED00000F00700A8420CD9D8F8000020F0070055
:101EE0002843C8F80000D8F8000000F00700A84216
:101EF0004DD1206810F0040F05D0B968226921F097
:101F000070011143B960010705D5F968626921F0D4
:101F100070011143F960C10605D5F968A26921F481
:101F2000E0611143F960800605D53869E16920F068
:101F300070000843386100F005F9B9684FF4807209
:101F4000002492FAA2F2B2FA82F201F47061D14056
:101F500044F21842C0F60002515CC84040F2000151
:101F6000C2F2004108600020FFF797F910E0B8685E
:101F7000A16820F470600843B860606803280BD043
:101F8000022830D157F8101C11F4003F09D1012468
:101F9000E0B201B0BDE8F08357F8101C11F0007FEB
:101FA000F5D0396821F0070108433860FFF754F98C
:101FB00006466068012820D0032831D0022842D18B
:101FC000386800F0380010283FF480AF41F28839BB
:101FD000FFF742F9801B484546D8386800F03800C2
:101FE0001028F5D172E757F8101C012802D1C90555
:101FF000CDD5D6E74907CAD5D3E7386800F0380011
:1020000008283FF463AF41F28839FFF725F9801BB8
:10201000484529D8386800F038000828F5D155E738
:10202000386800F0380018283FF450AF41F2883982
:10203000FFF712F9801B484516D8386800F03800C1
:102040001828F5D142E7386810F0380F3FF43EAF5A
:1020500041F28839FFF700F9801B484504D83868F9
:1020600010F0380FF6D131E7032491E780B5FFF780
:102070009BF944F218410122C5F60201096892FA5F
:10208000A2F2B2FA82F201F00F01D14044F21842FA
:10209000C0F60002515CC84040F20401C2F20041A7
:1020A000086080BD80B5FFF77FF944F21841012335
:1020B000C5F602010A6893FAA3F3B3FA83F302F0B8
:1020C0000F02DA4044F21843C0F600039A5CD04095
:1020D00040F20402C2F2004210601022496892FAF3
:1020E000A2F2B2FA82F201F07001D140595CC8400C
:1020F00080BD80B5FFF758F944F218410123C5F6B9
:1021000002010A6893FAA3F3B3FA83F302F00F0211
:10211000DA4044F21843C0F600039A5CD04040F223
:102120000402C2F2004210604FF48072496892FAD1
:10213000A2F2B2FA82F201F4E061D140595CC840E7
:1021400080BD000044F20041C5F602010869C0F3F9
:10215000C20240F60010C0F23D00032A15D0022A48
:1021600002BF41F20020C0F27A00704762B90A68EB
:1021700049F20000C0F2D03012F0200F1FBF0968F2
:10218000C1F3C101C8407047704780B5D1F828E05D
:10219000D1F828C0CB6A4A6B03F001035B4203EA23
:1021A000D2020EF003036FF35F32022B00EE102A0F
:1021B000CCF30512B8EE400ABDE880400DD083B9DB
:1021C0000B6849F20000C0F2D03013F0200F1EBFA0
:1021D0000B68C3F3C103D84003E041F20020C0F212
:1021E0007A000B6B096B9FED122AB0FBF2F0B7EE91
:1021F000003A04EE100A6FF35F2301EE103AB8EED6
:10220000411AC1F3462100EE021A481CB8EE440AF6
:1022100002EE100A31EE031AB8EE422A21EE000A4D
:1022200080EE020ABCEEC00A10EE100A704700BF32
:1022300000000039F0B581B0044644F20046207831
:10224000C5F60206C0074ED0306900F038001028ED
:1022500009D0306900F0380018280BD1B06A00F0BE
:102260000300022806D1306810F4003F3BD06068BC
:10227000C8BB9EE1606868B1B0F5803F06D03168A8
:10228000B0F5A02F1BD141F480203060306840F4BD
:1022900080301AE0306820F480303060306820F4FC
:1022A00080203060FEF7D8FF0546306810F4003F0C
:1022B00019D0FEF7D1FF401B6428F6D904E221F4BF
:1022C00080303060306820F480203060FEF7C4FF3A
:1022D0000546306810F4003F05D1FEF7BDFF401BF6
:1022E0006428F6D9F0E1207880075ED5306910F0D7
:1022F000380F1CD0306900F03800182804BFB06ACD
:1023000010F0030F13D0E068316888B321F0190191
:1023100008433060FEF7A0FF0546306810F0040F58
:102320001FD1FEF799FF401B0228F6D9CCE1316896
:10233000E06811F0040F02D0002800F03A81316803
:1023400021F0190108433060FEF786FF054630682A
:1023500010F0040F1CD1FEF77FFF401B0228F6D9B6
:10236000B2E1706821694FF47C3292FAA2F215E072
:1023700021F001003060FEF76FFF0546306810F075
:10238000040F12D0FEF768FF401B0228F6D99BE12C
:10239000706821694FF47C3292FAA2F2B2FA82F2AA
:1023A00020F47C309140084370602078C0063FD50F
:1023B000306900F03800082809D0306900F0380092
:1023C000182813D1B06A00F0030001280ED130683C
:1023D00010F4807F1CBFE069802840F0EA807068BC
:1023E000216A4FF0F84292FAA2F21AE0E1693068ED
:1023F000002900F0AA8040F080003060FEF72CFF3A
:102400000546306810F4807F05D1FEF725FF401B9C
:102410000228F6D958E17068216A4FF0F84292FA22
:10242000A2F2B2FA82F220F0F840914008437060C4
:102430002078000722D56169706F79B140F0010002
:102440007067FEF709FF0546706F10F0020F15D197
:10245000FEF702FF401B0228F6D935E120F001000B
:102460007067FEF7F9FE0546706F10F0020F05D099
:10247000FEF7F2FE401B0228F6D925E120788006FF
:1024800022D5A169306879B140F480503060FEF700
:10249000E3FE0546306810F4005F15D1FEF7DCFE60
:1024A000401B0228F6D90FE120F480503060FEF77F
:1024B000D3FE0546306810F4005F05D0FEF7CCFE71
:1024C000401B0228F6D9FFE02078400768D5D6F8EF
:1024D000000440F48070C6F80004FEF7BDFE054617
:1024E000D6F8000410F4807F05D1FEF7B5FE401B3E
:1024F0006428F5D9E8E0A06858B1012805D0316F0B
:10250000052833D141F004003067306F40F00100FE
:1025100032E0306F20F001003067306F20F00400AF
:102520003067FEF799FE0546306F10F0020F37D086
:1025300041F28837FEF790FE401BB84200F2C4809B
:10254000306F10F0020FF5D12AE020F080003060EB
:10255000FEF782FE0546306810F4807F3FF468AFD6
:10256000FEF77AFE401B0228F5D9ADE021F001000C
:102570003067306F20F004003067FEF76DFE0546CF
:10258000306F10F0020F0BD141F28837FEF764FE76
:10259000401BB84200F29880306F10F0020FF5D067
:1025A000676A002F00F08380306900F03800182837
:1025B00001D1012089E0306820F080703060FEF7A2
:1025C0004BFE05463068022F00F000706ED140B11E
:1025D000FEF742FE401B022876D8306810F0007FDC
:1025E000F6D1B06A40F2F33104F130034FF47E4784
:1025F0008843D4E90A12084340EA0210B0620FCBC4
:1026000007EB412100F2FF1089B26FF35F2008430E
:102610004FF4FE0101EB024101F4FE0108434FF0CB
:10262000FE4101EB036101F0FE4108434FF6F871F2
:102630003063706BA26C884391FAA1F1B1FA81F119
:1026400002FA01F108437063F06A216C20F00C007B
:102650000843F062F06A616C20F002000843F06207
:10266000F06A40F48030F062F06A40F40030F062CA
:10267000F06A40F48020F062F06A40F00100F062FD
:10268000306840F080703060FEF7E6FD0446306848
:1026900010F0007F0BD1FEF7DFFD001B022813D8DE
:1026A0003168002011F0007FF5D00EE008B900205D
:1026B0000BE0FEF7D1FD401B032805D23168002056
:1026C00011F0007FF5D100E00320C0B201B0F0BDF1
:1026D000411E0020B0EB116F1CBF012070474EF26D
:1026E0001002F023CEF2000251604EF62351CEF2DA
:1026F00000010B70072190601160704790F83C203A
:10270000012A01D1022122E010B5012240F2004449
:1027100080F83C20C4F201040268536842F4806EE1
:10272000D2F808C0A64502BF4C6823F470032343C7
:102730000C68896823F07003234353602CF08003F6
:1027400019439160002180F83C10BDE81040C8B2E8
:10275000704710B50446A4B194F83D0028B9002094
:1027600084F83C00204600F00EF80220211D84F879
:102770003D00206800F0ECFC012084F83D000020C2
:1027800010BD012010BD006841F20001C4F200013B
:10279000884218BF704781B044F2E840C5F6020095
:1027A000016841F010010160006800F01000009025
:1027B000009801B07047022180F83D1001680A8836
:1027C00042F001020A80012180F83D10002070478C
:1027D00070477047B0B504462168CA690846D1F809
:1027E00000C050F808EF12F00F0F74D001230CF462
:1027F0009075C1F2000303EA0E032B4378D0D00793
:102800001FBF1CF4807001200862E06F1CBF40F005
:102810000100E06793070EF0010006D528B10223FE
:102820000B62E36F43F00403E367530706D528B157
:1028300004230B62E36F43F00203E36713070DD534
:102840000CF020030EF080552B4318431FBF0820C7
:102850000862E06F40F0080018BFE067E06F0028F2
:1028600000F0AE80900608D50CF020000EF08051EC
:1028700008431CBF204600F0ECFD2068E16F11F01A
:10288000080F04BF816811F0400F00F082800168DA
:1028900021F490710160816821F0010181602021A3
:1028A00084F87A10816811F0400F64D0816821F0BB
:1028B00040018160606F00285DD043F2A131C0F615
:1028C00000010165FEF731F8002879D0606F016DD5
:1028D000BDE8B040084793060AD50CF020030EF07F
:1028E00080552B4304D02046BDE8B04000F0B1BD78
:1028F000D3020FD51EF480030CD04FF48010086271
:10290000202084F8790084F87A002046BDE8B040A1
:10291000FFF75EBF13061ED50CF080030EF4000512
:102920002B4318D094F87920212A49D1B4F8622099
:10293000AAB3A068B0F5805F04BF2069002840D02A
:10294000E06D421CE26500780885B4F86200013849
:10295000A4F86200B0BD02EA0C00400610D5086879
:1029600020F040000860202084F879002046BDE86F
:10297000B04000F071B92046BDE8B040FFF729BF74
:1029800010021DD51CF080401AD0086820F080404D
:1029900015E02046FFF71DFF0020E067B0BD0A6884
:1029A0006FF0800312F0005208BF0846026818BF9B
:1029B0006FF400031A400260086840F040000860AD
:1029C000B0BDE06D30F8022B6FF35F220A85E06541
:1029D000BBE710B50446ACB194F8790028B90020E3
:1029E00084F87800204600F026F8242084F8790046
:1029F0002068016821F001010160204600F064FDBB
:102A0000012801D1012010BD606B10B1204600F0FB
:102A100028FC2068416821F490414160816821F0E0
:102A20002A018160016841F0010101602046BDE892
:102A3000104000F080BC70B586B0044601A8142197
:102A4000FDF703FD206844F20041C4F20001884212
:102A50004AD144F2E0400026C5F60200816841F404
:102A600000318160816801F40031009100990168B2
:102A700041F00801016001A9006800F00800009021
:102A8000009802200290602001900720CDE90366A3
:102A9000059040F60040C5F60200FEF701FB40F24B
:102AA000FC0510212C2040224FF48063C2F2004527
:102AB000C4F20201C5E9001005F114001421C5E9B2
:102AC00002262B61FDF7C1FC2846FEF70FF908B17D
:102AD000FDF7C5FD2620012100222567AC63FEF726
:102AE00021FC2620FEF70FFC06B070BD90F87A306E
:102AF000202B06D1012329B122B190F87830012B87
:102B000002D10223D8B270474166012180F87810C3
:102B1000A0F86820A0F86A20816861B1B1F1805FF7
:102B20000FD0B1F5805F13D10269FF21002A08BFE1
:102B300040F2FF110AE002697F21002A08BFFF214D
:102B400004E002693F21002A08BF7F21A0F86C1031
:102B50000021C16780F87810222180F87A1000687F
:102B6000024652F8081F41F001011160016811F09E
:102B7000005F02D14FF4907106E0016841F480716A
:102B800001604FF08051104602680023114301603C
:102B9000B8E70000006844F20041C4F20001884236
:102BA00018BF704710B540F2B41409A10C22C2F24C
:102BB0000044204600F012F840F21C612046022238
:102BC000C2F20041FFF792FFBDE81040704700BF1E
:102BD00050574D205570746174650A00B0B50446B5
:102BE000134694F87900202805D131B12BB194F81F
:102BF0007800012803D102252CE001252AE00025D8
:102C00000120A4F8623043F24D4C43F22542E567BF
:102C1000E16584F878002120A4F86030C0F6000C4B
:102C2000C0F6000284F87900206FC0E90F2C43F24F
:102C3000B132C0F60002C0E9132522682832FEF73F
:102C400095F920684021016284F87850816841F04C
:102C500080018160E8B2B0BD70477047FEE780B583
:102C60008AB001A82421FDF7F0FB40F2700047F282
:102C70000041C2F20040C4F200010160FDF776FDA0
:102C800008B1FDF7ECFC1620022100220290002082
:102C90000190CDE90310059040F2700001A9C2F245
:102CA0000040FDF7E0FC08B1FDF7D9FC0AB080BD9B
:102CB00080B582B044F2D8400022C5F60200016817
:102CC00041F0010101600021006800F00100019065
:102CD00001980B20FEF726FB0B20FEF714FB0C20BF
:102CE00000210022FEF71EFB0C2002B0BDE8804050
:102CF000FEF709BBF0B587B044F2E040002640F291
:102D0000004400224FF48147CDE90566C5F6020074
:102D1000C5F60204016841F004010160016801F098
:102D2000040101910199016841F08001016001688D
:102D300001F0800101910199016841F001010160F8
:102D4000016801F0010101910199016841F002015E
:102D50000160016801F0020101910199016841F0EF
:102D6000080101604FF48141006800F00800019003
:102D700001982046FEF76BFA002002ADC1F2111057
:102D8000294603904FF40050029004F580600496A9
:102D9000FEF786F901202946CDE902702046CDE9EB
:102DA0000466FEF77DF9282001210022FEF7BAFA19
:102DB0002820FEF7A8FA07B0F0BD10B584B040F2A5
:102DC000741041F20002002409214FF4C873C2F2CA
:102DD0000040C4F20002846180E81C00C1600394DA
:102DE000CDE90144FFF7B5FC08B1FDF738FC202020
:102DF000039401A9019040F27410C2F20040FFF761
:102E00007DFC08B1FDF72BFC04B010BD10B540F2FD
:102E1000B41444F200414FF4E13000220C23C2F21A
:102E20000044C4F20001C4E9001004F1180020219C
:102E3000C4E90222C4E90423FDF707FB2046FFF79B
:102E4000C8FD18B1BDE81040FDF709BC10BDFEE794
:102E500070477047F0B581B044F2004705460C4614
:102E6000C5F60207B86A00F00300032801D101206B
:102E700065E0386820F080603860FEF7EDF90646BE
:102E8000386810F0006F05D0FEF7E6F9801B0228C5
:102E9000F6D951E0B86A29682B1D4FF47E46002C04
:102EA00020F47C3040EA0130B8620FCB06EB4121C0
:102EB00000F2FF1089B26FF35F2040EA01004FF487
:102EC000FE0101EB024101F4FE0140EA01004FF076
:102ED000FE4101EB036101F0FE4140EA0100B863ED
:102EE000F86A696920F0C00040EA0100F862F86AF7
:102EF000A96920F0200040EA0100F86208D04FF4F0
:102F00000010012C08BF4FF48010F96A084302E05A
:102F1000F86A40F40020F862386840F08060386059
:102F2000FEF79AF90446386810F0006F06D1FEF7F4
:102F300093F9001B0328F6D3032000E00020C0B261
:102F400001B0F0BDF0B581B044F2004705460C4633
:102F5000C5F60207B86A00F00300032801D101207A
:102F600065E0386820F080503860FEF775F9064655
:102F7000386810F0005F05D0FEF76EF9801B02285C
:102F8000F6D951E0B86A29682B1D4FF47E46002C13
:102F900020F07C7040EA0150B8620FCB06EB412173
:102FA00000F2FF1089B26FF35F2040EA01004FF496
:102FB000FE0101EB024101F4FE0140EA01004FF085
:102FC000FE4101EB036101F0FE4140EA010038647B
:102FD000F86A696920F4406040EA0100F862F86A22
:102FE000A96920F4007040EA0100F86208D04FF0AF
:102FF0008070012C08BF4FF40000F96A084302E01A
:10300000F86A40F48000F862386840F08050386018
:10301000FEF722F90446386810F0005F06D1FEF78B
:103020001BF9001B0328F6D3032000E00020C0B2E8
:1030300001B0F0BD7047FEF715B9B0B5CCB039A8F6
:103040004C21FDF702FA31A82021FDF7FEF902A874
:10305000BC21FDF7FAF944F60C00C5F60200016840
:1030600021F00401016000210191C16841F4404157
:10307000C160C16801F4404101910199C16811F436
:10308000005FFBD04FF4A020022400253A900120DD
:103090003990CDE9424444906420CDE945040420B0
:1030A000CDE947040C20499039A8CDE94A55FFF7EE
:1030B000C1F83F204FF4806131900320CDE9320503
:1030C000082034904020CDE93500CDE9371031A8F3
:1030D0000221FEF7CFFE02A802941F95FEF79CFA8C
:1030E0004CB0B0BD4EF6085C4EF67F50CEF2000CF0
:1030F000CEF6F620DCF8801041F47001CCF8801098
:1031000044F20041C5F602010A6842F001020A6079
:1031100000220A610B68184008608A61CA610A626D
:103120008A62CA620A634A638A63CA630A644A6437
:10313000086820F48020086048F208100A6601211F
:10314000C5F2001001604FF00060CCF8000070473D
:10315000B0B5038840F6FF3240F2000EC4F2000220
:10316000C4F2010E90420FDCB0F1804F1EBF40F25E
:103170000042C4F20002904212D040F60002C4F2B3
:10318000000290420CD046E040F60042C4F2000239
:1031900090421EBF40F20042C4F20102904238D178
:1031A0004A680EF5884423F07003041BB4FA84F4D3
:1031B00065090EF5804413430EF59042041B821AF4
:1031C000B4FA84F4B2FA82F24FEA541C5209CC6881
:1031D00023F4407323434FF67F74002A03EA040369
:1031E0004C6943EA040303808B68C3620B68038560
:1031F00006D12DB970451CBF0EF58062904202D1F8
:103200000969018602E0BCF1000FF9D10121416199
:10321000B0BD7045C4D00EF580440EF590420EF559
:103220008845041B821A451BB4FA84F4B2FA82F270
:10323000B5FA85F54FEA541C44F2000452096D09B1
:10324000C4F20104A0421EBF44F60004C4F201040B
:10325000A042BCD044F20044C4F20104A042B6D063
:10326000B9E7416B11F0010F08D002685368D0F83C
:1032700038C023F4003343EA0C0353608A0708D5AF
:1032800002685368D0F83CC023F4803343EA0C034F
:1032900053604A0708D502685368D0F840C023F449
:1032A000802343EA0C0353600A0708D50268536879
:1032B000D0F844C023F4004343EA0C035360CA0629
:1032C00008D502689368D0F848C023F4805343EAD5
:1032D0000C0393608A0608D502689368D0F84CC046
:1032E00023F4005343EA0C03936080B54A0615D5D6
:1032F000D0F800E0DEF804C0036D2CF48012B3F5C2
:10330000801F42EA0302CEF8042007D1DEF8042031
:10331000436D22F4C0021A43CEF804200906BDE82A
:10332000804058BF704701684A68806D22F40022CF
:10333000104348607047B0B582B004460020E06793
:10334000FDF78AFF05462068016811F0080F0BD0D1
:103350006FF07E404FF4001100222B460090204673
:1033600000F0C6FB78B92068006810F0040F0CD09C
:103370006FF07E404FF4800100222B4600902046E3
:1033800000F0B6FB08B1032007E02021002084F8FC
:10339000791084F8780084F87A10C0B202B0B0BD19
:1033A000806B0021A0F86A10A0F86210FFF711BA34
:1033B00010B5846BFDF710FB022808BF10BD94F810
:1033C000790021280ED12068816811F0800F09D082
:1033D0000021A4F86210016821F0C00101602020E2
:1033E00084F8790094F87A00222812D12068816844
:1033F00011F0400F0DD00021A4F86A10016821F4EB
:1034000090710160816821F001018160202084F8C1
:103410007A00E06F40F01000E0672046BDE8104001
:10342000FFF7D7B9C169806BB1F5807F08BFFFF79F
:1034300013BC0021A0F862100068816821F08001AF
:103440008160016841F0400101607047806BFFF7C7
:1034500004BC0268B0F86C1090F87A30222B26D1A8
:10346000B2F824C08368B3F5805F04BF0369002B02
:1034700022D0436E01EA0C015A1C42661970B0F862
:103480006A104FF6FF7201391142A0F86A1018BF96
:10349000704701680A6822F490720A608A6822F014
:1034A00001028A60202180F87A10FFF773BB108B2D
:1034B00040F0080010837047426E01EA0C0122F8C8
:1034C000021B4266DBE700002DE9F04387B00446AB
:1034D00046F6F31244F200482068A16AA368D4F8C3
:1034E0001CC0D4E90476CCF6FF72C5F60208056864
:1034F0000B433B43334343EA0C032A401A43026025
:103500004268E36822F440521A43A8F50E33426041
:103510009842A7691CBF226A1743B1F1005F02BF3E
:10352000D4E90B12394341EA020781684FF2FF42A6
:10353000C1F2FF121140394380278160C26A616A7B
:1035400022F00F020A43C26247F2FF72C4F2000285
:1035500090422CDD40F6FF72C4F20102904249DD38
:1035600040F60042C5F60002904200F07D8041F234
:103570000042C4F20102904200F0878041F2000252
:10358000C4F20102904240F0C78044F25442C5F6B2
:1035900002021268C2F3C207052F00F2B280DFE810
:1035A00017F08200B200B400B600B800BA0044F6CA
:1035B000FF32C4F20002904239DC44F20042C4F20D
:1035C0000002904200F0718044F60002C4F2000252
:1035D000904240F0A18044F25442C5F602021268C3
:1035E00002F00707052F00F28C80DFE807F0888CD7
:1035F0008E90929447F60002C4F20002904200F0CE
:10360000628047F60042C4F20002904240F084809B
:1036100044F25442C5F60202126802F00707052F71
:1036200000F26F80DFE807F06B6F7173757744F617
:103630000042C4F20002904200F0538045F20002C2
:10364000C4F20002904240F0678044F25442C5F652
:103650000202126802F00707052F00F25280DFE82D
:1036600007F04E525456585A44F25442C5F60202DC
:10367000526802F00707052F00F24380DFE807F0E9
:1036800003434547494B022746E044F25442C5F6FE
:1036900002021268C2F3C207052F32D8DFE807F032
:1036A00003333537393B012736E044F25442C5F63F
:1036B0000202126802F00707052F22D8DFE807F0A0
:1036C0001F232527292B44F25442C5F60202126813
:1036D00002F00707052F14D8DFE807F011151719B6
:1036E0001B1D44F25442C5F60202126802F007079D
:1036F000052F06D8DFE807F00307090B0D0F002799
:103700000AE0802708E0042706E0402704E00827B5
:1037100002E0102700E020270125984216D0BCF5D2
:10372000004F2FD100220F2F4BDC082F00F27281A7
:10373000DFE817F00900BF0070017001CB007001D5
:1037400070017001D700FEF7ADFCB4E040F600193F
:103750000F2FC0F23D0928DC022F5ED0042F5FD06E
:10376000082F40F05E81D8F8001049F20000C0F246
:10377000D03011F0200F1EBFD8F80010C1F3C101E6
:10378000C84057E00F2F31DC082F00F24A81DFE8F4
:1037900017F00900B80048014801CC004801480171
:1037A0004801E000FEF77EFCADE0102F3ED0202F58
:1037B0003ED0402F40F0358101A8FDF7ABFE0298C6
:1037C00032E0102F00F0DA80202F00F0E280402F4E
:1037D00040F0208101A8FDF79DFE606A44F2284177
:1037E000C0F6000131F81000029909E1102F00F035
:1037F000D980202F00F0E180402F40F0128101A8F5
:10380000FDF788FED4E90001626A44F22843C0F65D
:10381000000333F81220029B94E0FDF7E2FD03E081
:1038200004A8FDF7F5FD059820B9D7E0484601E06A
:103830004FF400406668012506EB46018842C0F05F
:10384000F0803103884200F2EC8001250F2F1ADC52
:10385000022F00F0EA80042F00F0FC80082F40F0D7
:103860003A81D8F8000010F0200F40F01281606A11
:1038700044F22841C0F6000131F8102049F200005E
:10388000C0F2D03016E1102F00F0DA80202F00F0C7
:10389000EE80402F40F01F8101A8FDF73BFE606ADB
:1038A00044F228416668C0F6000131F81020029801
:1038B00000E1FEF71EFC616A44F22842C0F60002F5
:1038C00032F81110B0FBF1F19CE004A8FDF7A0FD67
:1038D000606A44F22841C0F6000131F810000599F1
:1038E0008EE0D8F8000010F0200F79D144F2284083
:1038F000C0F6000030F8110049F20001C0F2D031EA
:103900007EE0FEF7F6FB636A44F2284762682168AE
:10391000C0F6000737F81330B0FBF3F000EB5200AD
:10392000B0FBF2F080B2C86058E004A8FDF770FD6B
:10393000D4E90001626A44F22843C0F6000333F878
:103940001220059BB3FBF2F202EB5102B2FBF1F144
:1039500042E0D8F8003049F20002C0F2D03213F051
:10396000200F1EBFD8F80030C3F3C103DA4044F281
:103970002843C0F6000333F8111026E044F2284033
:10398000C0F6000030F8110040F60011C0F23D0111
:1039900036E044F22840C0F6000030F811004FF441
:1039A00000412DE044F22842C0F6000232F8111026
:1039B00040F60012C0F23D0207E044F22842C0F691
:1039C000000232F811104FF40042B2FBF1F16268CC
:1039D00001EB5201B1FBF2F189B2C160002520E098
:1039E00044F2284049F20002C0F60000C0F2D03292
:1039F00030F81100D8F80010C1F3C10122FA01F12A
:103A0000B1FBF0F1D4E900020025530803EB4101BA
:103A1000B1FBF2F24FF6F0711140C2F342021143D2
:103A2000C160284607B0BDE8F083FDF7DAFC616AA3
:103A300044F228426668C0F6000232F8112039E0EC
:103A4000606A44F22841C0F6000131F81000B9FB69
:103A5000F0F017E004A8FDF7DBFC606A44F22841AF
:103A60006668C0F6000131F81020059822E0606A0F
:103A700044F22841C0F6000131F810004FF4004133
:103A8000B1FBF0F00002002500EB5600B0FBF6F0B1
:103A900021E0D8F80000616A44F22842C0F6000232
:103AA00032F8112049F20001C0F3C100C0F2D03158
:103AB00021FA00F0002100230025FCF74FFC090249
:103AC0003246002341EA1061000210EB560041F13A
:103AD0000001FCF743FC4FF6FF42A0F54071C0F235
:103AE0000F02914202D82168C8609AE7012598E741
:103AF0002DE9F04381B004460E4698462068C1691E
:103B00003140891BB1FA81F14F09974216D1DDF896
:103B1000209009F101054DB1B9F1000F10D0FDF76A
:103B20009BFBA0EB08012068494509D8C1693140D9
:103B3000891BB1FA81F14909B942ECD0002010E0AB
:103B4000016821F4D0710160816821F00101816078
:103B50002020002184F8790084F8781084F87A0015
:103B60000320C0B201B0BDE8F08340F2B410C2F24D
:103B70000040FEF72FBEFEE780B582B00020002196
:103B80004FF400620423009040F27000C2F2004043
:103B9000FCF757FE02B080BD70B52DED0A8B0D46C7
:103BA000B0EE408B0446A5B39FED1D9B9FED1EAB71
:103BB0009FED1FBB002634F81600B1B200EE101ABC
:103BC000B8EE400B20EE08CB00F500602CEE090BA0
:103BD00024F8160000F09CF834F8160020EE0A0BCA
:103BE000BDEEC00B10EE101A2CEE0B0B084424F89F
:103BF000160000F08DF834F8160020EE0A0BBDEE2A
:103C0000C00B10EE101A084424F816000136B54215
:103C1000D1D12046BDEC0A8B70BD00BF00BF00BFF4
:103C200000000000008CA8400000000000407F4021
:103C3000000000008074BD4080B582B002460020C4
:103C400000214FF4FA73009040F27000C2F200407D
:103C5000FCF7F7FD02B080BD10B5FDF710FBFFF7D4
:103C6000ECF9FFF747F8FFF723F8FFF7CFF8FFF776
:103C7000A4F8FEF7F4FF40F2B41040F21C610222F7
:103C8000C2F20040C2F20041FEF730FF40F2741071
:103C9000C2F20040FEF78FFDFFF76EFF9FED0E0BA7
:103CA00040F234244FF4FA71C2F200442046FFF788
:103CB00073FF2046FFF7C0FF40F20044C5F6020440
:103CC0004FF4FA70FDF7BDF920468021FDF7BBFAED
:103CD000F6E700BF00BF00BFF168E388B5F8F43E27
:103CE00003B401984100009850EAC12018BF042095
:103CF0004A0D18BF40F0010040F2FF72B2EB515F75
:103D000008BF40F00200012808BF052002B070473C
:103D100010B529499FED261B2DED020B84B00598A7
:103D200020F000408842DCBF00209DED040B2EDD1A
:103D30002249884209D1049840B94FF00100FCF7AC
:103D4000B0FB00F0ADFA06B010BD05DB9DED040B35
:103D500030EE000B06B010BD68469DED040B00F080
:103D60002FF810F003000DD0012814D09DED021B98
:103D70009DED000B022816D000F0A6F9B1EE400B25
:103D800006B010BD9DED021B9DED000B012000F063
:103D900037FA06B010BD9DED021B9DED000B00F043
:103DA00093F906B010BD012000F02AFAE6E7000002
:103DB0000000000000000000FB21E93F0000F07F50
:103DC0002DE9F14F04462DED020B2DED048B94B03F
:103DD0009FED9D0B80ED020B199E9D4826F000453E
:103DE00085420ADC9DED180B002084ED000B14B019
:103DF000BDEC048B03B0BDE8F08F96489FED969B19
:103E00009FED978BA84225DD97489FED991B9FED6D
:103E10009A2B9DED180B002E0DDD30EE490B8542DF
:103E200012BF30EE480B30EE410B30EE420B84ED0A
:103E3000000B0120DBE730EE090B854212BF30EEAC
:103E4000080B30EE010B30EE020B84ED000B4FF04F
:103E5000FF30CCE78A48A84253DB9DED180B51ECAC
:103E6000100B00F035FA41EC100BB0EE401B9FED4B
:103E7000862BB6EE000B01EE020BFDEEC00B10EE32
:103E8000903A00EE903AB8EEE02BB0EE410B02EE25
:103E9000490B22EE081BDFF8F8C1290D0120FC4474
:103EA00030EE411B84ED001B03281DD011EE902A3B
:103EB00000EB4015113DC2F30A528A1A954213DAFB
:103EC000B0EE403B0CEB001292ED000B20EE021B1B
:103ED00033EE410B33EE403B33EE411B92ED023BA0
:103EE00012EE031B401CDBE7002EA8BF1846BFF6EE
:103EF0007EAF94ED000BB1EE400B84ED000B584209
:103F000075E7C6F3130040F4801EC6F30A50A0F212
:103F1000F530471100F01F05C5F12000DDF860B055
:103F2000139000200890099005200DF1080C5949C4
:103F3000002D07EB0002794408BF51F8221009D088
:103F400051F8223001EB8201AB404A68139922FA02
:103F500001F11943A1FB0E26A1FB0B131A449A424F
:103F600034BF0123002303EB06080CEB8003D3E9E5
:103F700001A60E448E4234BF0121002192448A449E
:103F800011B1924502D903E0924501D2012100E02E
:103F90000021C3E901A641444CF82010011EA0F104
:103FA0000100C4DC04989DED050A00F10050810F6A
:103FB0000498DDED060A80009DED072A01EE100A47
:103FC000B8EEC13BB8EE401B9FED334B21EE041B16
:103FD000B8EE600B9FED324B20EE040BB8EE422B97
:103FE0009FED314B22EE042B30EE024B34EE014BB1
:103FF00034EE034B8DED004B002000909DED004B07
:1040000034EE433B33EE411B31EE400B32EE401BAE
:104010009DED000B9FED262B20EE020B9FED262B36
:1040200001EE020B9DED001B9FED252B01EE020B17
:10403000199810F0004F1CBF4942B1EE400B84EDBF
:10404000000B0846D3E6000000000000000000005E
:10405000FB21E93F7CD9024000004054FB21F93F9D
:104060003163621A61B4D03DFB21F93F00000000CA
:104070000000601A61B4D03D7370032E8A19A33B0F
:10408000FB2139410000000083C8C96D305FE43F67
:10409000860400001E040000000000000000103E26
:1040A000000000000000103C000000000000103A7A
:1040B0003326A611460B113C182D4454FB21F93D23
:1040C00000000054FB21F93D10B52DED040B2DED42
:1040D000048B82B0B0EE419B079820F00044B4F10D
:1040E000795F0FDA9DED060BBDEEC00B10EE100AE6
:1040F000002801BFB7EE000B02B0BDEC048B04B08A
:1041000008BF10BD9DED060B20EE008BB0EE480BF6
:104110001B480621784400F039F820EE080B28EE01
:10412000000B9DED061B01EE490BB6EE001B28EEC1
:10413000011B1448B7EE002B8442BCBF31EE400B8C
:1041400032EE400B16DB1048A042BCBFB5EE023B7E
:104150008DED003B06DBA4F50010019000200090DF
:104160009DED003B31EE431B32EE432B31EE400B15
:1041700032EE400B02B0BDEC048B04B010BD000069
:10418000E00100003333D33F0000E93FB0EE401BB5
:10419000491E00EBC10292ED000B31F006020DD07A
:1041A000491E00EBC10292ED002BB0EE403BB0EE99
:1041B000420B03EE010B31F00602F1D1022914D0BB
:1041C00004290AD0062918BF704790ED0A2B00EE8B
:1041D000012B90ED080B02EE010B90ED062B00EE8B
:1041E000012B90ED040B02EE010B90ED022B00EE83
:1041F000012B90ED000B02EE010B70470000000058
:1042000031B504462DED040B2DED068BB0EE419B30
:1042100007989DED060B20F00040B0F1795F0DDAB4
:1042200051EC100BFFF75CFD042808BF00F044F8C8
:104230009DED060BBDEC068B05B030BD20EE008B6E
:1042400028EE00ABB0EE480B114805217844FFF78B
:104250009DFF9FED111B8CB1B6EE002B29EE022BBA
:104260000AEE402B18EE029B0AEE419B9DED060BD9
:1042700030EE490BBDEC068B05B030BD08EE001BDF
:104280009DED060B0AEE010BBDEC068B05B030BDB3
:10429000A001000000000000495555555555C5BF07
:1042A0009FED031B81EE010B704700000000000032
:1042B00000000000000000009FED030B20EE000B4B
:1042C0007047000000000000000000000000001027
:1042D00082B0CDE9000121F0004001909DED000B7E
:1042E00002B051EC100B70474FF00000E1EE100AE5
:1042F00070470000000000004C5555555555A53F2E
:104300007751C1166CC156BF9015CB19A001FA3E6A
:10431000AD529C804F7E92BEC4B1B4BD9EEE213E94
:10432000D43888BEE9FAA8BD00004054FB21F93F0B
:104330003163621A61B4D03D0000601A61B4D03DAF
:104340007370032E8A19A33B0000002E8A19A33B29
:10435000C14920259A837B3900000000000000003D
:104360006E83F9A22915444ED15727FCC0DD34F5E0
:10437000999562DB4190433CAB6351FE61C5BBDE66
:104380003A6E24B7E0D24D42EA2E49061C92D1097A
:104390001CEB1DFE3EA729B1F53582E88444BB2EF7
:1043A00026709CE9417E5FB439D69139F439538344
:1043B0008B5F849C3B28F9BDFF97F81F0F9805DEA3
:1043C0008B112FEF1F6D0A5ACF7E366DB709CB27A1
:1043D000663F464F2DEA5F9EC7BA27757BF1E5EB36
:1043E000F739073DEA92528AB15FFB6B085D8D1F7A
:1043F000A6F810111111813FD561C119A0012ABF82
:104400007DFEB157E31DC73EEB9C2B8AE6E55ABE05
:104410007CD5CF5A3AD9E53D0000000001020304E3
:104420000102030406070809010002000400060057
:1044300008000A000C00100020004000800000016D
:10444000000610160006101668440008000000243C
:1044500010000000D4020008784400081000002476
:10446000180A0000F00200080090D0030090D0036A
:08447000010000001000000033
:040000050800029954
:00000001FF
