:020000040800F2
:10000000880C0024AD020008634900084F46000830
:10001000614900087D0B0008A3560008000000009D
:10002000000000000000000000000000694B000814
:10003000ED0E000800000000654900086B4B000849
:10004000C7020008C7020008C7020008C70200086C
:10005000C7020008C7020008C7020008C70200085C
:10006000C7020008C7020008C7020008C70200084C
:10007000DD0B0008E90B0008C7020008C7020008F2
:10008000C7020008C7020008710B0008C702000879
:10009000C7020008C7020008C7020008C70200081C
:1000A000C7020008C7020008C7020008C70200080C
:1000B000C7020008C7020008C7020008C7020008FC
:1000C000C7020008C7020008C7020008C7020008EC
:1000D000C7020008C7020008C7020008C7020008DC
:1000E000EF0E0008C702000800000000C702000869
:1000F000C7020008C7020008C7020008C7020008BC
:10010000C7020008C7020008C7020008C7020008AB
:10011000C7020008C7020008C7020008C70200089B
:10012000C7020008C7020008C7020008C70200088B
:10013000C7020008C7020008C7020008C70200087B
:1001400000000000000000000000000000000000AF
:10015000C7020008C7020008C7020008C70200085B
:10016000C7020008C7020008C7020008C70200084B
:10017000C7020008C7020008C7020008000000000C
:10018000C7020008C7020008C7020008C70200082B
:10019000C7020008C7020008C7020008C70200081B
:1001A000C7020008C7020008C7020008C70200080B
:1001B000C7020008C7020008C7020008C7020008FB
:1001C000C7020008C7020008C7020008C7020008EB
:1001D000C7020008C7020008C7020008C7020008DB
:1001E000C7020008C7020008C7020008C7020008CB
:1001F000C7020008C7020008C7020008C7020008BB
:10020000C7020008C7020008C7020008C7020008AA
:10021000C7020008C7020008C7020008C70200089A
:10022000C7020008C7020008C7020008000000005B
:10023000C7020008C702000800000000C70200084B
:10024000C7020008C7020008C7020008C70200086A
:10025000C7020008C7020008C7020008C70200085A
:10026000C7020008C7020008C7020008C70200084A
:10027000C7020008C7020008C7020008000000000B
:10028000C702000800000000C702000800000000CC
:1002900000000000C7020008DFF80CD000F048FAA8
:1002A0000048004751680008880C00240648804731
:1002B00006480047FEE7FEE7FEE7FEE7FEE7FEE74B
:1002C000FEE7FEE7FEE7FEE7394C0008990200086A
:1002D0002DE9F05F0546002092469B46884606467B
:1002E000814640241BE0284641464746224600F00E
:1002F00057F853465A46C01A914110D31146184632
:10030000224600F03EF82D1A67EB01084F462246C0
:100310000120002100F035F817EB00094E41201EA6
:10032000A4F10104DFDC484631462A464346BDE8D5
:10033000F09FD2B201E000F8012B491EFBD27047BA
:100340000022F6E710B513460A4604461946FFF7A1
:10035000F0FF204610BD30B50B460146002020229C
:10036000012409E021FA02F59D4205D303FA02F5C2
:10037000491B04FA02F52844151EA2F10102F1DC22
:1003800030BD202A04DB203A00FA02F10020704739
:100390009140C2F1200320FA03F3194390407047C3
:1003A000202A04DB203A21FA02F00021704721FACA
:1003B00002F3D040C2F12002914008431946704731
:1003C0002DE9FE4F804681EA0300C00F0C460090E5
:1003D00021F0004123F00045B8EB0200A94105D20D
:1003E0004046214690461C460B46024623F00040FC
:1003F000104347D0270DC7F30A00C3F30A510290F8
:10040000401A019040286BDAC3F3130040F4801BBC
:100410000098924620B10023D2EB030A63EB0B0B4A
:1004200001985946C0F140025046FFF7AAFF064620
:100430000D4650465946019A00F08CF910EB080021
:100440006141002487EA115284EAE7731A4340D0DD
:10045000009A62B3019A012A4FEA075215DC001B89
:1004600061EB02014FF0004202EA0752CDE900427F
:10047000001C41F5801132462B4600F08CF903B088
:10048000BDE8F08F40462146F9E7001B61EB020111
:10049000001C41F5801300185B412018A2F50017DD
:1004A00047EB030140EAD570B6196D4111E06D08C4
:1004B0004FEA360645EAC0754FEA0752001B61EB6A
:1004C0000201001C41F5801149084FEA3000001973
:1004D000514132462B4603B0BDE8F04F00F04CB915
:1004E0000098012240000023D0EB020263EBE0738E
:1004F000009821464FEAE074B8EB000061EB04017C
:10050000E9E783F000435BE781F0004158E72DE91C
:10051000FE4F81EA030404F0004421F000410094FE
:100520004FF0000B23F0004350EA01045ED052EA82
:1005300003045BD0C3F30A54C1F30A552C44A4F25C
:10054000F3340194A0FB0254C1F3130141F4801170
:10055000C3F3130343F4801301FB024400FB034E77
:10056000840A970A44EA815447EA8357A4FB076840
:1005700002958D0A05FB07854FEA932C04FB0C546A
:100580002705029D4FEA065847EA1637B5EB0805DE
:100590006EEB070C870E920E47EA811742EA831230
:1005A000A7FB0201B6EB0B0164EB00042B0D43EA41
:1005B0000C335E1844EB1C50DA465146E7FB02014F
:1005C000C5F313044FEA0B3343EA14534FEA0432E2
:1005D000019C43EA0603A4F10C040294009CCDE9BB
:1005E00000B400F0D8F803B0BDE8F08F0020014659
:1005F000F9E72DE9F04D81EA030404F0004B21F006
:10060000004514464FF0000A23F0004150EA05026D
:1006100020D054EA01021DD0C5F30A570246C5F3A3
:100620001303C1F31300C1F30A5640F4801543F4D9
:100630008013A7EB0608101BD64608F2FD3873EBB3
:10064000050002D308F1010801E092185B41B8F1FE
:10065000000F03DA00200146BDE8F08D00204FF4C2
:100660008011064684460EE0171B73EB050705D381
:10067000121B63EB050306434CEA010C49084FEAE1
:10068000300092185B4150EA0107EDD152EA0300B5
:1006900012D082EA040083EA0501084305D0101B4A
:1006A000AB4106D20122002306E000224FF00043B6
:1006B00002E06FF0010253101AEB06004CEB0851F8
:1006C00010EB0A0041EB0B01BDE8F04D00F054B80F
:1006D000C1F30A52C1F3130140F2FF3341F4801118
:1006E0009A4202DA00200146704740F233439A42B0
:1006F000A2F2334202DC5242FFF752BEFFF741BE84
:1007000030B5041E71F1000404DB4FF00044404298
:1007100064EB0101141E73F1000405DB1C464FF06D
:100720000043524263EB0403994208BF904230BD3C
:10073000064C074D06E0E06840F0010394E807002E
:1007400098471034AC42F6D3FFF7AAFD64B0010815
:1007500084B00108202A06DBCB17203A41FA02F0C8
:1007600043EAE07306E041FA02F3D040C2F120020E
:10077000914008431946704710B5141E73F10004E8
:1007800008DA401C41F1000192185B411A4301D183
:1007900020F0010010BD2DE9F04D92469B4611B1AD
:1007A000B1FA81F202E0B0FA80F220329046FFF70F
:1007B000E8FD04460F4640EA0A0041EA0B015346B1
:1007C0005A46084313D0114653EA010019D0C8F124
:1007D00040025046FFF7E4FD05460E465046594696
:1007E0004246FFF7CEFD084305D0012004E0204635
:1007F0003946BDE8F08D0020054346EAE0762C43FB
:1008000037430A986305E40AA0EB08000022FD0ABA
:1008100044EA47540A3002D500200146E9E70105C1
:1008200010196941DDE9084500196941BDE8F04D3D
:10083000A2E70000B0B50446006840F48070354976
:10084000884214BF35483448006810F4403F0ED049
:1008500003F0B8F961680546B1F5803F05D0B1F500
:10086000403F1FD0B1F5003F1DD1080C17E04FF4F9
:10087000002002F0B1FB61680546A1F580224FEA35
:10088000B2420A2A0FD8DFE802F00606060606067C
:100890003B3D3F4143006FF0010000EA5140B5FB92
:1008A000F0F500E0AD0802F011F941F203018842D1
:1008B00007D820681D498D4281680AD341F48071B0
:1008C0001CE01748854207D82068816821F44071F0
:1008D00014E021F4807111E01248854203D82068A9
:1008E0000122816805E020680F498D42816803D8A4
:1008F000022262F3092101E041F440718160B0BD40
:100900002D09D0E76D09CEE7AD09CCE7ED09CAE7BF
:100910002D0AC8E70021024008230240086302585C
:10092000105E5F0020BCBE0040787D01012D3101CA
:1009300070B50446006882688368DB0843EA920267
:10094000D20750D0C26892010FD5627D012A0CD126
:10095000227D012A09D14FF0FF31244A03685B064A
:1009600007D401319142F9D333E0022904D10221A5
:1009700011E04021016001218268520707D5826899
:10098000920704D48268774B1A40103282600129A2
:1009900001D1042611E08268120707D58268920708
:1009A00004D482686F4B1A402032826004260229E8
:1009B00008BF0826032908BF0C2602F08DF805465B
:1009C0002068806830420ED002F086F8401B06286E
:1009D000F6D3606D40F010006065A06D40F001003E
:1009E000A065012070BD002070BD00BF00DC0C00C0
:1009F0000146806B426D12F0500F426D05D0D20659
:100A00000ED4C06CC26C0846104742F400714165B8
:100A100001680A681207CA6804D4910713D107E075
:100A200000F08ABC12F4406F0DD1C96889040AD461
:100A3000416D21F480714165416DC90403D4416D5C
:100A400041F00101416500F075BC806B416D41F0E2
:100A500040014165816D41F00401816500F06CBC8D
:100A6000806B00F068BC0000B0B50168044688687F
:100A700080078A684FF0000023D412F0010220D0D2
:100A8000886800F00D00012812D18868354A1040AE
:100A9000023088600320086002F01EF805462068D6
:100AA0008068C0070ED002F017F8401B0328F6D369
:100AB000606D40F010006065A06D40F00100A06521
:100AC0000120B0BD0020B0BDF8B5044600688168C3
:100AD000C90743D1234E816806F17F02114209D034
:100AE000606D40F010006065A06D40F00100A065F1
:100AF000012034E08168314041F00101816001F062
:100B0000EBFF194A02F580732168184F994202F5EC
:100B1000407508BF2F46914208BF2F4699420A46AA
:100B200004BF42F20002C4F202028A420546B868DB
:100B300018BF10F01F000ED010E08868C00704D165
:100B40008868304040F00100886001F0C5FF401B1C
:100B50000228C5D821680868C007EED0002001B07F
:100B6000F0BD00BFC0FFFF7F0020024000630258BD
:100B7000014800F0E9BB00BF88050024FEE710B57E
:100B8000846B204600F098FF0120207110BD10B545
:100B9000846B204600F0F8FE0120207110BD10B5D6
:100BA000846B206940F004002061204600F0CDFFF6
:100BB0000120207110BD10B5846B206940F0040045
:100BC0002061204600F0E2FE0120207110BD806B04
:100BD00000F0BABF806B00F0D8BE0000014801F001
:100BE00083B900BF78060024014801F07DB900BF39
:100BF000000600240168A54A914223D0A44A9142EC
:100C00001CBFA44A91421DD0A34A91421CBFA34AD3
:100C1000914217D0A24A91421CBFA24A914211D0E0
:100C2000A14A91421CBFA14A91420BD0A04A9142D5
:100C30001CBFA04A914205D09F4A91421CBF9F4AC7
:100C400091421AD180B56FF00F02DFF848C052FA16
:100C500081F21823B2FBF3F340F2FF3E21EA0E01CA
:100C60005F2A03F007031CF80330C36588BF043113
:100C7000BDE88040816508467047914A9142E1D0C5
:100C8000994A9142DED08F4A9142DBD021F0FF0198
:100C9000F0E700BF5CB1000802688C498A421F4936
:100CA0001CBF8B4B9A4205D08A4B9A421CBF8A4B81
:100CB0009A4213D1D3B2A3F108021423B2FBF3F387
:100CC00001F1800201EB830103F01F0301664FF085
:100CD000010C0CFA03F1C0E9192170477F4B9A42CD
:100CE000E8D0804B9A42E5D07D4B9A42E2D0A1F504
:100CF0005B7CD3B26245DED0A3F110011823B1FBB7
:100D0000F3F1084B03F1AA0C9A420B4688BF083353
:100D1000624528BF0B460249D2E700BF005802587F
:100D2000000802400F04024001790139072988BFF9
:100D300070470268654B9A421CBF654B9A4205D0CA
:100D4000644B9A421CBF644B9A420BD18A000E4BF3
:100D50004FF0010C1A444033C2660CFA01F1C0E9AD
:100D60001C3170475D4B9A42F0D05E4B9A42EDD0F9
:100D70005B4B9A42EAD0544B9A424FEA8102E6D04A
:100D8000004BE5E70009024000590258B0B5C46EB7
:100D9000D0F858E0002CD0E919C5CCF8045002D0A6
:100DA000D0E91C546C60D0F800C0384CA44529D060
:100DB000374CA4451CBF374CA44523D0364CA44522
:100DC0001CBF364CA4451DD0354CA4451CBF354C2A
:100DD000A44517D0344CA4451CBF344CA44511D0B5
:100DE000334CA4451CBF334CA4450BD0324CA44516
:100DF0001CBF324CA44505D0314CA4451CBF314C1E
:100E0000A4451CD1C46D3F2504F01F04806805FA79
:100E100004F4CEF80840DCF8005025F48025CCF826
:100E200000504028CCF8043004D1CCF80820CCF88D
:100E30000C10B0BDCCF80810CCF80C20B0BD224C82
:100E4000A4451CBF214CA4450BD0214CA4451CBF7C
:100E5000204CA44505D0204CA4451CBF1F4CA445E4
:100E600009D1C46D012504F01F04806805FA04F45B
:100E7000CEF80440D5E71A4CA445F2D0194CA4454D
:100E8000EFD0194CA445BDD0D8E700BF10000240F8
:100E9000280002404000024058000240700002401A
:100EA00088000240A0000240B80002401004024046
:100EB00028040240400402405804024070040240EA
:100EC00088040240A0040240945402580854025876
:100ED0001C54025830540258445402585854025872
:100EE0006C54025880540258B804024070474FF4C2
:100EF000005001F017BD70477CB5002301930446F4
:100F000090F85000012801D1022039E0012084F836
:100F10005000204615460E46FFF7A6FD0028616DDD
:100F200002D041F0100127E041F20212154B91432B
:100F30000231616521688A681A4006F4803305F041
:100F4000804633441A4402F100428A600E4A8B689C
:100F5000B3F1FF3F0CDC019B01330193019B9342F2
:100F6000F5D3606D40F0100020F00201012003E095
:100F7000616D012262F301016165002184F8501066
:100F800002B070BDC0FFFE3F00965A5570477047D3
:100F90007047704770470000F8B500220092044681
:100FA00090F85000012801D1022083E1012084F84B
:100FB00050000F4620688168490700F17381396845
:100FC0000A0308D091FAA1F239682068C1F384615C
:100FD000B2FA82F202E0C1F384610A4602F01F0213
:100FE000012303FA02F2C3691A43C2611F257A681A
:100FF000C2F3012302F01F0200EB83031E6B954036
:10100000AE4391403143196381688268D20842EA55
:101010009101C90764D13968BA6803F019FBBC486B
:10102000006800F07040B0F1805F06D120680E23A8
:101030007969C26803EA52020CE02068C2687969E3
:10104000D206C3684FEA530202D402F00E0201E056
:1010500002F008023B69042B28D1016E01F0F8412F
:101060003A68B1EB826F4FEA826103D1026E22F0DF
:1010700000420266426E02F0F8428A4203D1426E9A
:1010800022F000424266826E02F0F8428A4203D1A8
:10109000826E22F000428266C26E02F0F8428A42FC
:1010A0001ED1C16E21F00041C16619E03E6800F119
:1010B0006005914055F8232006F0F84602F0004202
:1010C0003143114345F8231039697A7E55F82130B0
:1010D00023F00043012A08BF03F1004345F8213003
:1010E0008168C90740F09F80FE688849D7F800E012
:1010F00006F01802D0F8C0500EEA010321FA02F2FD
:101100009D431A402A43834DAE42C0F8C02040F0B0
:1011100087808C4633B19EFAAEF1B1FA81F3D7F8ED
:1011200000E001E0CEF384635A1C02F01E02664622
:10113000092A0EEA0C0307D873B19EFAAEF1B1FA90
:1011400081F3D7F800E009E0C3B19EFAAEF1B1FA3D
:1011500081F3D7F800E013E0CEF384634FF08062B0
:1011600002EB83621EEA060F02F0F84C16D09EFADC
:10117000AEF1B1FA81F3D7F800E011E0CEF3846369
:101180004FF080621EEA060F02EB836C18D09EFAC5
:10119000AEF1B1FA81F3D7F800E013E0CEF3846347
:1011A0005A1C02F01F02012303FA02F21EEA060F84
:1011B00042EA0C0216D09EFAAEF1B1FA81F113E0C8
:1011C000CEF384635A1C02F01F0201230CF0F84C8A
:1011D0001EEA060F03FA02F20ED09EFAAEF1B1FA41
:1011E00081F10BE0CEF38461013101F01F0101EBCD
:1011F000410142EA01510EE0CEF384610131464BD8
:1012000001F01F0101EB410103EB015142EA0C0225
:10121000114341F00071BA6803F01AFAD7F800E000
:10122000BEF1FF3F01DD002041E0DD4D05F54077D7
:10123000206805F58072DB4E3B469042374A18BF66
:1012400002F54073A84208BF3B4640F480779B6894
:10125000B74205D1AF68D5F8086146EA070500E056
:101260009568EF071ED12E4DAE4503F0E0752AD0EC
:101270002C4EB64536D190424FF0000008BF13F413
:10128000000114D1D2F80803284920F0E070284367
:1012900040F40000C2F8080323480068B0FBF1F0F6
:1012A00040000BE0606D40F02000606501200021EF
:1012B00084F8501001B0F0BD0098013800900098FB
:1012C0000028F9D1AFE790424FF0000008BF13F0BB
:1012D0008071ECD1D2F8080320F0E070284340F090
:1012E000807010E090424FF00000E0D1104EB64503
:1012F00008BF13F48001DAD1D2F8080320F0E070BF
:10130000284340F48000C2F808038CE7FFFF0F0079
:101310000010005C0000FF47000020FE0060025843
:10132000000052C7000084CB10000024400D0300D1
:101330000000B8CF7047704701689A4A914218BFC1
:10134000704700F0E3BA00BF2DE9F8430446006897
:1013500040F48072934B01689A42904B4268904FE0
:10136000994608BF07F5407302EA01059968AA0784
:1013700001F01F080CD5606DC00603D4606D40F409
:10138000006060652046FFF701FE206802210160D1
:1013900015F00C0F47D0616DC90603D4616D41F49F
:1013A00000716165C16811F4406F36D107F5807135
:1013B0008842014608BF3946814202460CD0B8F146
:1013C000090F00F2E880012202FA08F240F221231C
:1013D0001A42024608BF0A46D16889041DD4016832
:1013E00009071AD5816849070FD4416821F00C011B
:1013F0004160606D20F480706065606DC0040CD445
:10140000606D40F00100606507E0606D40F0100025
:101410006065A06D40F00100A0652046FFF78AFFDF
:1014200020680C21016015F0600F50D0616DC90675
:1014300003D4616D41F4005161653E46C16C07F50E
:101440008077B84201F4C072C16803460BD1B8F18D
:10145000070F00F29E80012303FA08F313F0C10F77
:101460003B4608BF3346002ADA68374608D001F405
:10147000406102F00073194402F40053C91820D1EE
:10148000910201681DD411F040011AD0816809074A
:101490000FD4416821F060014160606D20F48050FC
:1014A0006065606DC0050CD4606D40F00100606542
:1014B00007E0606D40F010006065A06D40F0010035
:1014C000A0652046FFF763FD2068602101602906C2
:1014D00009D5606D40F480306065204600F05AF90F
:1014E000206880210160E9050AD5606D40F4003074
:1014F00060652046FFF74DFD20684FF48071016064
:10150000A9050AD5606D40F4802060652046FFF78C
:1015100041FD20684FF400710160E90621D5216B7F
:1015200089B1B8F1000F30D007F5807107F540722E
:10153000884208BF9146B84208BF9146D9F80810C2
:1015400011F4404F0BD0606D40F480606065A06D79
:1015500040F00200A0652046FFF7EEFE2068102153
:101560000160690501D4BDE8F883616D41F48041F3
:101570006165A16D41F00801A1654FF480610160D2
:101580002046BDE8F843FFF703BDC1688907DAD1FB
:10159000E5E7334667E70A461EE700BF00630258E7
:1015A00000200240002102407CB50021002801916A
:1015B00035D00446406D30B9204600F0EDF80020EB
:1015C000A06584F8500020688168890003D581688F
:1015D000684A114081608168C90013D4654A8168F6
:1015E00002F180521140654A41F0805181606249A8
:1015F0000968B1FBF2F101E001990139019101990A
:101600000029F9D18168C9000BD4616D012541F031
:1016100010016165A16D41F00101A16502E00125A4
:10162000A5E000258168C1F38001626D02F010021F
:101630008918616D03D041F01000012596E021F476
:101640008171023161658168C90721D140F48071DF
:101650004B4A9142A74904D18A68D1F808311A430C
:1016600001E0484A1268D20712D101F58072454E56
:1016700001F5407390421A4618BF06F53E72884243
:1016800008BF1A466068916821F47C110843906095
:1016900001F01CFA627D41F20403A16898424FEA0E
:1016A0004232236B09D3102907D1207F43EA02017C
:1016B00041EA004141F01C0104E01A43207F11433C
:1016C00041EA0041012804D1206A2F4A02EB404040
:1016D0000143606A28B100F47870A26A084340EAC6
:1016E00002012068294BC2681A401143C160816819
:1016F0008268D20842EA9101C90729D1217D44F2CA
:101700000303E26A42EA8131C2689A431143C1602D
:1017100094F83810012901690DD11D4A1140D4E90E
:101720000F321143626C41EA0341A36C1143194328
:1017300041F0010101E021F001010161016921F0A5
:101740007041626B114301612046FFF773F8206816
:10175000E168026B012922F00F0102D1A269013A6E
:10176000114301630121606D61F30100606528464A
:1017700002B070BDC0FFFF5F10000024400D0300E9
:1017800000210240086002580000FEFF03C0F0FF85
:101790001EF800FC70470000BCB504461A482168DA
:1017A00000F50352914218BFBCBD18490A6842F0C7
:1017B0002002174D0A604FF40062096801F0200111
:1017C000019101990A2128600020C5E901104FF418
:1017D0008061E86029614FF40051C5E90521C5E940
:1017E00007006862284600F035FE08B1FFF783FB6A
:1017F0001220E5640021AC63002201F0E1F912201F
:10180000BDE8BC4001F0CEB940000240D8440258C7
:10181000000600242DE9F843364F07F5807503686C
:10182000354E044607F54070AB4208BF0646BB4242
:1018300008BF0646B0689B685B0704D4894694F8E5
:101840005010012903D1022001B0BDE8F08300F05F
:101850001F060120092E84F8500046D8B04040F2FF
:101860002121084241D020469046FFF72DF918B1BA
:10187000002184F85010E7E7216840F60172606D9E
:10188000A94220EA020018BF0F4600F58070002E22
:10189000606518BF8F4203D1606D20F480106065D1
:1018A000606D0022C004154B4FF00000144F44BF80
:1018B000A06D20F00600A065E06CC0E90F37114B69
:1018C000C3641C230B60434684F850204A6842F0EE
:1018D00010024A6040314A4600F01CFF21680A4B62
:1018E0008A681A4004328A60AEE7002084F850000B
:1018F0000120A9E70020024000630258F109000816
:10190000610A00084B0A0008C0FFFF7FB0B504461B
:1019100090F85000012801D1022533E0012084F81D
:10192000500003212046FFF703F8054638BB216825
:10193000E06CCA6822F00302CA6090F835100229F0
:1019400008D100F0DFF928B10546606D40F0400095
:10195000606500E000252068416821F010014160C9
:101960002046FFF781F8002D09D10028054606D151
:10197000606D41F20111884301300025606500204F
:1019800084F850002846B0BD70477047704700008B
:101990002DE9F0410446407901284FF0020000F0A3
:1019A00085800D46012161719046207128680428C8
:1019B00044D1B8F1000F09D02068406BB0F1FF3F6F
:1019C00019DC01F089F80228F6D30CE001F084F864
:1019D0000746374E2068406B304213D001F07CF848
:1019E000C01B0228F6D3206940F0080020610320C4
:1019F0002071BDE8F081012000F072FFA969206824
:101A0000416405E0012000F06BFFA96920680164D2
:101A100008F01001836C40F2FF322F6A8A4023EAFB
:101A20000202EB698B401A438264FF22C36C8A4036
:101A300023EA020207FA01F11143C164286908F0A0
:101A400010010128206808D11F22836B8A4023EAF5
:101A500002026B698B401A4382630723C26B8B407F
:101A60002F689A43D5E902363B436F6833438B4076
:101A70001A43C2634FF480428A40036823EA020299
:101A8000026040F6FE7203688A4023EA020207FA07
:101A900001F31A430260C02202FA01F1026822EA4D
:101AA000010101600120207100206071BDE8F0811A
:101AB0000080002000000000BCB500685149884249
:101AC00018BFBCBD1C4C2078012805D0C8B91B48E4
:101AD000BDE8BC4004F0BCBD6078012812D080B9DC
:101AE0004FF0000C15480021164AFA23CDF800C02B
:101AF00000F090F8012212489FED0D0BFA21627060
:101B00000DE0BCBD00250D4800210D4AFA230095CB
:101B100000F080F89FED060B0A48FA216570224616
:101B200002B0BDE8B04004F0ABBD00BF00BF00BFD5
:101B3000F168E388B5F8F43E18000024EC050024B1
:101B400020000024140200247047704778B110B5BB
:101B50000446007920B900206071204600F00AF8A0
:101B600002202071002001212061217110BD01207F
:101B70007047000070B586B0044601A81421FEF736
:101B8000DFFB20681F4988423AD11F488168002640
:101B900041F000518160816801F00051009100998D
:101BA000016841F00101016001A9006800F0010035
:101BB0000090009810200190032002901348039693
:101BC00000F0BAFE124DB948432128604020C5E913
:101BD00001104FF48060EE604FF4006128614FF413
:101BE0000050C5E905104FF48030EE61C5E90806E4
:101BF000284600F02FFC08B1FFF77DF9A560AC6323
:101C000006B070BD00740040E04402580000025865
:101C1000780600242DE9F0410446407901284FF070
:101C2000020060D0884606990126B8F1000F66715F
:101C3000207113D0E06808292C4D2D4F2668C0E98B
:101C40000F572C4FC764376847F0805737601AD05A
:101C500004291BD0E9B906F114051BE0A068082986
:101C6000254EDFF898C02568C0E90F6C244EC66485
:101C70002E6846F480562E6013D0042914D0B1B9D2
:101C800005F1080C15E006F11C0503E006F1180546
:101C900000E00025316841F00051316011462A46CC
:101CA0000DE005F1100C04E005F10C0C01E04FF023
:101CB000000C296841F4005129601146624600F089
:101CC00029FD00210028617103D004F110010422D4
:101CD00006E008F01000012101FA00F2216800205E
:101CE0000B681A430A60BDE8F08100BF8F0B000843
:101CF000D50B0008B70B00087F0B0008CF0B0008BE
:101D00009F0B0008F8B5044600F0E6FE002C6FD0EB
:101D1000054694F83500022865D12768624EB7421F
:101D200038463BD061488742384637D060488742C2
:101D3000384633D05F48874238462FD05E488742C6
:101D400038462BD05D488742384627D05C488742CA
:101D5000384623D05B48874238461FD05A488742CE
:101D600038461BD059488742384617D058488742D2
:101D7000384613D05748874238460FD056488742D6
:101D800038460BD055488742384607D054488742DA
:101D9000384603D0534887426DD15248016821F03C
:101DA0001E0207F1140102606FF080000A68104003
:101DB0000860206E016821F480710160386820F0AD
:101DC000010038603868C00715D000F085FE401B60
:101DD0000628F7D320206065002084F83400032013
:101DE00084F8350004E080206065002084F8340029
:101DF000012001B0F0BD2068B0421CBF2B498842D1
:101E00001DD02B4988421CBF2A49884217D02A4935
:101E100088421CBF2949884211D0294988421CBFE9
:101E2000284988420BD0284988421CBF274988424C
:101E300005D0274988421CBF264988421FD1A06D82
:101E4000E16D3F2201F01F0102FA01F18160E06EB5
:101E5000D4E9191200284A6006D0016821F4807183
:101E60000160D4E91C0141600020012184F83400A4
:101E700084F83510BDE76FF00E00394696E7164935
:101E80008842DCD016498842D9D014498842D6D03D
:101E900014498842A06DD3D0E16D012201F01F01E9
:101EA00002FA01F14160D2E710000240280002402E
:101EB000400002405800024070000240880002408A
:101EC000A0000240B8000240100402402804024072
:101ED000400402405804024070040240880402405A
:101EE000A0040240B80402402DE9FC410021C54F86
:101EF00001910446DFF8941D0068A56DB842D1F841
:101F000000802E6829682AD0BF4A90421CBFBF4A71
:101F1000904224D0BE4A90421CBFBE4A90421ED07E
:101F2000BD4A90421CBFBD4A904218D0BC4A904264
:101F30001CBFBC4A904212D0BB4A90421CBFBB4A55
:101F400090420CD0BA4A90421CBFBA4A904206D086
:101F5000B94A90421CBFB94A904240F09F81E16D5E
:101F6000082201F01F018A40324236D0BC46B842F6
:101F70004FF0040324D0A44FB8421CBFA34FB84273
:101F80001ED0A34FB8421CBFA24FB84218D0A24FD8
:101F9000B8421CBFA14FB84212D0A14FB8421CBFDB
:101FA000A04FB8420CD0A04FB8421CBF9F4FB842C0
:101FB00006D09F4FB8421CBF9E4FB84240F096815A
:101FC00007681F42674608D0036823F004030360D4
:101FD000AA60626D42F00102626501228A403242CB
:101FE0002ED0B84224D0884B98421CBF874B9842D1
:101FF0001ED0874B98421CBF864B984218D0864B08
:1020000098421CBF854B984212D0854B98421CBF0A
:10201000844B98420CD0844B98421CBF834B98420F
:1020200006D0834B98421CBF824B984240F06B8194
:1020300043691B0604D5AA60626D42F00202626524
:1020400004228A4032422ED0B84224D06E4B9842AD
:102050001CBF6E4B98421ED06D4B98421CBF6D4BFF
:10206000984218D06C4B98421CBF6C4B984212D0CF
:102070006B4B98421CBF6B4B98420CD06A4B9842FA
:102080001CBF6A4B984206D0694B98421CBF694BF3
:10209000984240F0468103689B0704D5AA60626DB0
:1020A00042F004026265102202FA01F131423FD08F
:1020B000B8424FF0080224D0D14B98421CBFD14BFC
:1020C00098421ED0D04B98421CBFD04B984218D09B
:1020D000CF4B98421CBFCF4B984212D0CE4B984268
:1020E0001CBFCE4B98420CD0CD4B98421CBFCD4B61
:1020F000984206D0CC4B98421CBFCC4B984240F043
:102100001E810368134213D0A96001684903016866
:1021100006D4C90506D4016821F00801016001E078
:10212000080301D4216C00E0A16C09B12046884766
:10213000E06D00F01F01202000FA01F2324200F0B1
:10214000838020681023B84224D0AD4EB0421CBF1B
:10215000AC4EB0421ED0AC4EB0421CBFAB4EB042F3
:1021600018D0AB4EB0421CBFAA4EB04212D0AA4EFD
:10217000B0421CBFA94EB0420CD0A94EB0421CBF09
:10218000A84EB04206D0A84EB0421CBFA74EB042E7
:1021900040F0E28007681F4256D0AA6094F83520CC
:1021A000042A026819D122F016020260426922F064
:1021B00080024261226C0AB9A26C1AB1026822F054
:1021C000080202603F208840A860002084F83400A4
:1021D000012084F83500216D5BE0510301680CD4C7
:1021E000C9052DD4016821F010010160002084F898
:1021F0003400012084F8350022E0080320D4616C0B
:102200001FE000BF100002402800024040000240D2
:10221000580002407000024088000240A0000240C6
:10222000B80002401004024028040240400402406A
:10223000580402407004024088040240A004024096
:10224000E16B09B120468847606D28B3606DC00717
:102250001ED04FF41650B8FBF0F1042084F835007E
:102260002068026822F001020260019A01328A426B
:10227000019202D80268D207F7D1002184F8341005
:102280000068C0074FF0030008BF012084F8350044
:10229000E16C09B120468847BDE8FC81664A90425E
:1022A0001CBF664A90420CD0654A90421CBF654AEA
:1022B000904206D0644A90421CBF644A904240F06B
:1022C00092800268E36D570703F01F0351D504277E
:1022D0009F4017EA01064CD011046F6060D491064C
:1022E00062D4016821F0040101605DE0504FB84202
:1022F0003FF466AE4F4FB8423FF462AE544FB8421F
:1023000018BF08235CE6F74B98423FF491AEF64BBA
:1023100098423FF48DAE4E4B98423FF489AE02682E
:102320008EE6F04B98423FF4B6AEEF4B98423FF446
:10233000B2AEF64B98423FF4AEAE0268B3E6E94B5C
:1023400098423FF4DEAEE84B98423FF4DAAEEF4BF2
:10235000984218BF0422D4E6E24EB0423FF41AAFCE
:10236000E14EB0423FF416AFE84EB04218BF022330
:1023700010E797071AD502279F4017EA010615D0E4
:1023800011046F6029D491062BD4016821F00A0151
:102390000160002084F83400012084F8350020E03A
:1023A000D00301D4A16C74E7216C72E712077FF5AA
:1023B00073AF08229A4011403FF46EAF01680122CA
:1023C00021F00E01016002FA03F0686000206265EE
:1023D00084F8340084F835205AE7D00301D4616CC6
:1023E00057E7E16B55E7C74A90423FF46AAFC64AE8
:1023F00090423FF466AFC54988423FF4B0AD4BE729
:102400002800024040000240580002407000024094
:1024100088000240A0000240B800024010040240C0
:102420002804024040040240580402407004024064
:1024300088040240A00402409454025808540258F0
:102440001C540258305402584454025858540258EC
:10245000B8040240B0B5044600F03EFB002C7CD02E
:1024600005462068924988422AD0924988421CBF7A
:102470009149884224D0914988421CBF90498842A2
:102480001ED0904988421CBF8F49884218D08F497E
:1024900088421CBF8E49884212D08E4988421CBF98
:1024A0008D4988420CD08D4988421CBF8C49884296
:1024B00006D08C4988421CBF8B49884240F0A080DE
:1024C000002184F83410022184F83510016821F0CD
:1024D0000101016005E000F0FFFA401B052837D834
:1024E00020680168C907F6D10168894A1140D4E91A
:1024F000022311432269194363691143A5691943F2
:10250000E26941EA0503616A1A43236A042943EA3E
:10251000020324D1D4E90BC14CEA0302A36A11439C
:102520000160BCF1000F50F8141F21F0030141EAD3
:10253000030141F0040118D0B5F5005F47D0002D2C
:1025400051D1022B52D0012B47D0002B4ED00CE0A2
:1025500020206065032084F835000120B0BD0360B1
:1025600050F8142F22F00702114301602046FEF7B5
:1025700041FBE16D3F2201F01F0102FA01F1816090
:102580002046FEF789FBA068802802D10020606009
:1025900000E06068C2B2216E0138D4E9193507281D
:1025A0000A605D6009D82046FEF7BEFB04F16C02AC
:1025B00007CA002303604A6003E00020C4E91B004F
:1025C000606700200121606584F83510B0BD032BE1
:1025D000CBD8DFE803F00F0B0F02ACF1C072B2FAF8
:1025E00082F2520904E0032B04D3BED1CCF3006283
:1025F000002ABAD040206065012084F83500B0BDC3
:102600003A4988421CBF3A4988420BD0394988422E
:102610001CBF3949884205D0384988421CBF384917
:10262000884239D1002184F83410022184F8351011
:102630000168A2686FF31011A2F18003B3FA83F36B
:102640005B09402AE2684FEA833341EAD20108BFBE
:10265000102322691943636941EAD201A26941EA60
:10266000D301E36941EAD201226A41EAD30141EA96
:10267000121140F808191421C0B2B0FBF1F080002B
:10268000E0652046FEF7B6FAE16D012201F01F0178
:1026900002FA01F1416073E71A498842C2D01A492F
:1026A0008842BFD08D4988423FF40AAF402050E7AE
:1026B0001000024028000240400002405800024042
:1026C0007000024088000240A0000240B8000240B2
:1026D0001004024028040240400402405804024012
:1026E0007004024088040240A0040240945402583E
:1026F000085402581C54025830540258445402588A
:10270000585402586C54025880540258B80402407D
:102710003F8010FE10B5002800F0AB80044690F812
:102720003400012801D1022010BD012084F83400BA
:1027300094F83500012840F09680022084F8350096
:1027400000206065D4F800C0DCF8000020F0010033
:10275000CCF800002046FEF719FB2068504988425B
:1027600002463BD04F4A9042024637D04E4A9042F2
:10277000024633D04D4A904202462FD04C4A9042F6
:1027800002462BD04B4A9042024627D04A4A9042FA
:10279000024623D0494A904202461FD0484A9042FE
:1027A00002461BD0474A9042024617D0464A904202
:1027B000024613D0454A904202460FD0444A904206
:1027C00002460BD0434A9042024607D0424A90420A
:1027D000024603D0414A90424DD1404A12680B2331
:1027E00063F344020260226C1AB1026842F00802EC
:1027F0000260226E1368DB0303D5136843F4807311
:102800001360E26E1AB1136843F480731360884258
:1028100023D0244988421CBF234988421DD0234924
:1028200088421CBF2249884217D0224988421CBFD7
:102830002149884211D0214988421CBF2049884241
:102840000BD0204988421CBF1F49884205D01F4930
:1028500088421CBF1E49884219D1016841F001011C
:102860000160002010BD002084F834004FF40060A7
:102870006065012010BD0268052363F34302026016
:10288000226C002AB5D0026842F00402B0E7114978
:102890008842E2D011498842DFD00F498842DCE704
:1028A0001000024028000240400002405800024050
:1028B0007000024088000240A0000240B8000240C0
:1028C0001004024028040240400402405804024020
:1028D0007004024088040240A0040240B804024090
:1028E000B0B5044600F0F8F8A54905460978621C21
:1028F00018BF0C4400F0F0F8401BA042FAD3B0BD62
:10290000B0F5005F18BF704780B58021044800F023
:10291000D1F84FF4FA70BDE88040FFF7E1BF00BF87
:102920000004025803490A68024208BF7047086061
:10293000FFF7E6BF880000582DE9FC4F5A4A0A27E6
:102940005A4C02444FEAB223A04208BF09274FF075
:10295000000A4FF0010B4FF000090024092B38BF8B
:102960004FEAB227009795E00BFA04F215EA020C41
:1029700000F08B80D1F804E04EF01006122E11D139
:102980006FF0030303EA5406064409F01C07336A98
:102990000F25BD40AB430D6905FA07F73B43336292
:1029A000D1F804E00325036805FA0AF50EF00306E2
:1029B000AB4306FA0AF63343BEF1120F03606FEA27
:1029C000050815D80BFA0EF313F0061F10D0836814
:1029D000CD6803EA080305FA0AF52B4383604368D0
:1029E000CEF3001523EA020205FA04F31A4342600B
:1029F000C2688B6802EA080203FA0AF31A435FEA24
:102A0000CE03C26041D5664A1346294D12680F268F
:102A100042F002021A604FF0B04E1A6802F0020251
:102A2000019224F00302019B09F00C0357599E40C8
:102A3000B743009E06FA03F33B435351194A154628
:102A4000D26F4B6842EA0C07DE0358BF22EA0C073C
:102A5000EF679E03D5F8802042EA0C0758BF22EAB0
:102A60000C07C5F88070DEF80020DE0242EA0C0791
:102A700058BF22EA0C07CEF800702A689B0242EA8F
:102A80000C0758BF22EA0C072F60013409F1040932
:102A90000AF1020A0D6835FA04F27FF465AFBDE869
:102AA000FC8F00BF040000580000FEA7002402585D
:102AB0000804005842690A408A4208BF090481613B
:102AC0007047002A08BF0904816170470148006807
:102AD000000C70470010005C05480068704700BF9C
:102AE0002748007802490A6810440860704700BF10
:102AF0008008002480B5032000F082F801F096F8E9
:102B000061490A68C2F30322694B9A5C02F01F0212
:102B1000D0405E4A1060096801F00F01595C01F075
:102B20001F01C84005490860002000F009F808B1FD
:102B3000012080BD00F026F8002080BD1400002494
:102B400070B50F4E3178C1B104464FF47A70B0FBC6
:102B5000F1F04E490968B1FBF0F001F01FFB0F2CBA
:102B60004FF001050AD848B94FF0FF300022214646
:102B7000002500F025F8746000E00125284670BDAE
:102B80000800002481B00648016841F0020101609C
:102B9000006800F002000090009801B0704700BF8C
:102BA000F4440258002808DB00F01F01012202FA59
:102BB00001F1024A400942F82010704700E100E0AC
:102BC00080B5154B1B68C3F3022C8CF0070EBEF1C9
:102BD000040F28BF4FF0040EBCF103034FF0FF3C7D
:102BE00038BF00230CFA0EFE21EA0E0199400CFAC0
:102BF00003F39A431143BDE8804002F053BD00BF88
:102C000005490A684FF6FF031A4060F30A22034899
:102C100010430860704700BF0CED00E00000FA05AB
:102C2000B0B5104D2968490704D4296801F007019F
:102C3000814215D1296821F0070108432860FFF778
:102C40004BFF044655F8080C800407D4FFF744FFF7
:102C5000001BB0F57A7FF5D90320B0BD0020B0BDD0
:102C60000120B0BD0C48025880B500F0DFFF0649D6
:102C70000F4A0968C1F30321515C01F01F01C840EC
:102C80000249086080BD00BF1844025810000024AB
:102C900080B500F097FF0549054A0968C1F30211A4
:102CA000515C01F01F01C84080BD00BF20440258A4
:102CB000E47B000810B53C4CA36AA26AC2F3051C71
:102CC000E26A616B02F00102C1F3CC01BCF1000FBA
:102CD00002FB01F100EE101AB8EE400A0AD003F030
:102CE0000303022B0AD063B9216889060CD49FED37
:102CF000311A13E00021C0E9001153E09FED2C1AB6
:102D00000CE09FED2A1A09E021682B4AC1F3C101AA
:102D100022FA01F101EE101AB8EE411A02EE10CAC1
:102D20009FED263AB8EE422A216B6FF35F2181EEC8
:102D3000021A02EE101AB8EE422A216BC1F34621A4
:102D400000EE032AB7EE000A03EE101A32EE002A54
:102D5000B8EE433A21EE021A33EE002A81EE022A3F
:102D6000BCEEC22A80ED002A216BC1F3064102EEBF
:102D7000101AB8EE422A32EE002A81EE022ABCEE88
:102D8000C22A80ED012A216BC1F3066102EE101AFE
:102D9000B8EE422A32EE000A81EE000ABCEEC00A0A
:102DA00010EE101A816010BD004402580024744ACD
:102DB0000024F44A0024744C0090D0030000003931
:102DC00010B53C4CA36AA26AC2F3053CE26AE16B0F
:102DD00002F01002C1F3CC01BCF1000F02FB01F1C3
:102DE00000EE101AB8EE400A0AD003F00303022BDB
:102DF0000AD063B9216889060CD49FED311A13E01B
:102E00000021C0E9001153E09FED2C1A0CE09FED6A
:102E10002A1A09E021682B4AC1F3C10122FA01F103
:102E200001EE101AB8EE411A02EE10CA9FED263AD2
:102E3000B8EE422AA16B6FF35F2181EE021A02EE17
:102E4000101AB8EE422AA16BC1F3462100EE032A04
:102E5000B7EE000A03EE101A32EE002AB8EE433A3B
:102E600021EE021A33EE002A81EE022ABCEEC22ABB
:102E700080ED002AA16BC1F3064102EE101AB8EEF4
:102E8000422A32EE002A81EE022ABCEEC22A80EDEE
:102E9000012AA16BC1F3066102EE101AB8EE422AB4
:102EA00032EE000A81EE000ABCEEC00A10EE101AE3
:102EB000816010BD004402580024744A0024F44A82
:102EC0000024744C0090D0030000003910B53C4C35
:102ED000A36AA26AC2F3055CE26A616C02F48072C2
:102EE000C1F3CC01BCF1000F02FB01F100EE101A9E
:102EF000B8EE400A0AD003F00303022B0AD063B9EC
:102F0000216889060CD49FED311A13E00021C0E935
:102F1000001153E09FED2C1A0CE09FED2A1A09E0F6
:102F200021682B4AC1F3C10122FA01F101EE101A06
:102F3000B8EE411A02EE10CA9FED263AB8EE422AC8
:102F4000216C6FF35F2181EE021A02EE101AB8EEC7
:102F5000422A216CC1F3462100EE032AB7EE000A93
:102F600003EE101A32EE002AB8EE433A21EE021AAE
:102F700033EE002A81EE022ABCEEC22A80ED002A3E
:102F8000216CC1F3064102EE101AB8EE422A32EE6D
:102F9000002A81EE022ABCEEC22A80ED012A216CB1
:102FA000C1F3066102EE101AB8EE422A32EE000AB0
:102FB00081EE000ABCEEC00A10EE101A816010BD4E
:102FC000004402580024744A0024F44A0024744C3B
:102FD0000090D00300000039F8B5B0F5002F40D0C4
:102FE000B0F5007F49D0B0F5806F16D0B0F5006F16
:102FF0001FD0B0F5805F28D0B0F5807F40F05E80B4
:103000003749486800F00702042A00F25780384820
:10301000DFE802F03F44565A48003149C868C0F31F
:103020004252042A4AD83248DFE802F033384A4E86
:103030003C002B49C868C0F30262042A3ED82C48E1
:10304000DFE802F0272C3E42300025494868C0F3F3
:103050000232042A32D82648DFE802F01B2032363A
:1030600024001F49C86800F44030B0F5003F19D073
:10307000B0F5803F2AD008BB10E019494868C0F37A
:103080008212042A1AD81A48DFE802F003081A1E2E
:103090000C0001A8FFF70EFE029815E001A8FFF74B
:1030A0008FFE10E0086810F0405014D0B0F1805F3F
:1030B00013D0B0F1005F01D10B4805E0002003E020
:1030C00001A8FFF703FF019804B080BD01A8FFF736
:1030D000FDFE0398F8E70348F6E70448F4E700BF6D
:1030E0004C4402580090D00300127A0000093D00C1
:1030F0000080BB002DE9F0470446C078AC4F0007C4
:1031000021D5606E4FEA3051032908D8DFE801F07D
:1031100002090E16F96941F40031F9610EE0012649
:1031200012E0201D022101F01FFC04E004F1240044
:10313000022101F099FC064630B9606E396C21F429
:1031400040110843386400266078BA46C00701D1B0
:10315000354629E0606D04280BD83546DFE800F0DD
:10316000030C11171700F869354640F40030F86178
:103170000DE00125012718E0201D002101F0F4FBDE
:1031800004E004F12400002101F06EFC0546002D4E
:103190002F460AD1DAF84000002520F00700616DC3
:1031A00008435246CAF840003746607880072CD55D
:1031B000A06D4FEAB01004280CD8DFE800F0030E31
:1031C00013191900DAF81C00514640F40030CAF80F
:1031D0001C000DE00125012618E0201D002101F052
:1031E000C3FB04E004F12400002101F03DFC05468E
:1031F000002D2E460AD1DAF84000002520F4E070B8
:10320000A16D08435246CAF840003E466078400728
:1032100002D4B04657462BE0D4F8A40057464FEAF4
:103220007050042809D8DFE800F0030C11171700CC
:10323000F86940F40030F8610EE001254FF0010814
:1032400016E0201D002101F08FFB04E004F12400B2
:10325000002101F009FC0546002DA84608D1B86CF4
:10326000002520F46000D4F8A4100843B046B864E8
:10327000607800072BD5D4F8A8004FEA3060042806
:1032800009D8DFE800F0030B10161600F86940F4C7
:103290000030F8610DE00125012719E0201D002113
:1032A00001F062FB04E004F12400002101F0DCFBEA
:1032B0000546002D2F460BD1DAF84800002520F0F6
:1032C000E060D4F8A81008435246CAF848004746C0
:1032D000E078800725D5A06C4FEA301003280BD882
:1032E000DFE800F012020D12DAF81C00514640F43B
:1032F0000030CAF81C0007E00125012612E0201D5D
:10330000022101F031FB0546002D2E460AD1DAF8E4
:103310003C00002520F03000A16C08435246CAF85A
:103320003C003E466078C0062CD5E06D4FEA303058
:1033300004280CD8DFE800F0030E13191900DAF89E
:103340001C00514640F40030CAF81C000DE0012575
:10335000012718E0201D002101F006FB04E004F124
:103360002400002101F080FB0546002D2F460AD1E4
:10337000DAF84000002520F4E040E16D08435246B1
:10338000CAF8400037466078800626D5206E4FEA9E
:103390003040052809D8DFE800F013030D1313139C
:1033A000201D012101F0E0FA09E00125012615E0C8
:1033B0001044025804F12400012101F055FB054698
:1033C000002D2E460AD1DAF84000002520F4E02036
:1033D000216E08435246CAF840003E4660784006D7
:1033E00026D5D4F8AC004FEA3070052809D8DFE8BC
:1033F00000F011030B111111201D012101F0B4FA8D
:1034000007E00125012714E004F12400012101F067
:103410002BFB0546002D2F460BD1DAF8480000257E
:1034200020F0E040D4F8AC1008435246CAF84800F7
:1034300037466078000621D5E06E90B1B0F1005FAC
:103440000AD0B0F1805F2DD1DAF81C00514640F46B
:103450000030CAF81C0004E0201D012101F084FAAC
:103460000546002D2E460AD1DAF84000002520F04E
:103470004050E16E08435246CAF840003E46E078AC
:10348000C00702D1B046574623E0606C5746032878
:103490000BD8DFE800F013020E13F86940F4003097
:1034A000F8610BE001250126E9E701254FF001084D
:1034B0000FE0201D022101F057FA0546002DA84615
:1034C00007D1F86B002520F00300616C0843B0467B
:1034D000F863A078400601D4474617E0D7F8F00318
:1034E00040F48070C7F8F003FFF7F6FA0646D7F805
:1034F000F003C00507D4FFF7EFFA801B6428F6D964
:103500000325032702E0002D2F4611D02078C007A5
:103510004FD0A06F4FEAF000052834D8DFE800F064
:103520003C03363C3C3C201D012101F01DFA32E0F9
:10353000DAF860105346D4F8B000414011F4407FEF
:103540000BD0196E1A6E21F4407142F480321A6663
:103550001A6E22F480321A661966B0F5807F40F048
:103560001882FFF7B9FA064641F288390325032786
:10357000DAF86000800700F10982FFF7ADFA801BDE
:103580004845F5D9C2E70125012613E004F12400DE
:10359000012101F069FA0546002D2E460AD1DAF81C
:1035A0004400002520F03800A16F08435246CAF8B5
:1035B00044003E462078800722D5606F052809D850
:1035C000DFE800F011030B111111201D012101F0A2
:1035D000CBF907E00125012713E004F124000121C4
:1035E00001F042FA0546002D2F460AD1DAF84400D0
:1035F000002520F00700616F08435246CAF84400D6
:1036000037462078400724D5D4F89000052809D8FB
:10361000DFE800F011030B111111201D012101F051
:10362000A3F907E00125012614E004F1240001219B
:1036300001F01AFA0546002D2E460BD1DAF84800A3
:10364000002520F00700D4F8901008435246CAF82D
:1036500048003E462078800626D5D4F88C004FEAF4
:103660003070052809D8DFE800F011030B111111A3
:10367000201D002101F078F907E00125012714E061
:1036800004F12400022101F0EFF90546002D2F4638
:103690000BD1DAF84400002520F0E040D4F88C107B
:1036A00008435246CAF8440037462078400626D5DB
:1036B000D4F898004FEAB020052809D8DFE800F0D8
:1036C00011030B111111201D002101F04DF907E02C
:1036D0000125012614E004F12400022101F0C4F9BF
:1036E0000546002D2E460BD1DAF84800002520F4BF
:1036F000E050D4F8981008435246CAF848003E46B5
:103700002078000626D5D4F89C004FEA70300528B2
:1037100009D8DFE800F011030B111111201D002161
:1037200001F022F907E00125012714E004F124004B
:10373000022101F099F90546002D2F460BD1DAF848
:103740004800002520F46040D4F89C1008435246FD
:10375000CAF8480037462068010716D5D4F880100B
:10376000B1F5805F09D104F12400022101F07CF958
:10377000002818BF0127206807E0DAF844205346E4
:1037800022F440521143CAF84410C10616D5D4F8A9
:103790009410B1F5807F09D104F12400022101F0D9
:1037A00063F9002818BF0127206807E0DAF84820ED
:1037B000534622F440721143CAF84810000321D541
:1037C000D4F8A000B0F5003F0ED0B0F5803F05D092
:1037D00080BB201D002101F0C7F804E004F12400A3
:1037E000022101F041F90546002D2E460BD1DAF8F1
:1037F0004800002520F44030D4F8A0100843524679
:10380000CAF848003E46A07840072AD5D4F884007C
:10381000B0F5401F17D0B0F5001F0ED0B0F5801FD7
:1038200040F0AF80DAF81C00514640F40030CAF88E
:103830001C0008E001250126E5E704F12400012130
:1038400001F012F90546002D2F460BD1DAF844009D
:10385000002520F44010D4F8841008435246CAF8DA
:1038600044003746A078C00701D13E4621E0E06C15
:10387000B0F5803F08D0D0B9DAF81C00514640F4CA
:103880000030CAF81C0004E0201D022101F06CF891
:103890000546002D2E460CD1DAF83C00002520F418
:1038A0008030E16C08435246CAF83C00DDE7012550
:1038B00001262068810008D504F12400022101F0CE
:1038C000D3F8002818BF01262068810319D5E16FBD
:1038D0006FF0010202EB3122022A0AD34FEA3122B1
:1038E0003AB1012A50D1DAF81C2042F40032CAF869
:1038F0001C203DB9DAF8442022F440721143CAF882
:1039000044103546C10207D5DAF8401021F00041D5
:10391000226F1143CAF84010C10008D5DAF8001030
:1039200021F48041D4F8B4201143CAF80010810278
:1039300007D5DAF8401021F08071A26E1143CAF861
:10394000401041000CD5DAF8001021F40041CAF80B
:103950000010D4F8B810DAF800201143CAF80010AB
:10396000B0F1FF3F07DCDAF83C0020F04050216D59
:103970000843CAF83C00002D18BF01252846BDE8C1
:10398000F087012501276DE70125BBE75346D4F8F1
:10399000B00000F440711A68B1F5407F22F47C5108
:1039A00003D1064A02EA1012114319606FF31F3067
:1039B000196E0025084318668EE500BFCFFFFF0093
:1039C0002DE9F843002800F0F48004467B4D286878
:1039D00000F00F00884688420BD2286820F00F00C4
:1039E00040EA08002860286800F00F00404540F0D9
:1039F000E0802068C44F41070AD52169BA6902F006
:103A00007002914204D9BA6922F070021143B9617F
:103A100001070AD56169FA6902F07002914204D97E
:103A2000FA6922F070021143F961C1060AD5A16951
:103A3000FA6902F4E062914204D9FA6922F4E06280
:103A40001143F96181060AD5E1693A6A02F0700210
:103A5000914204D93A6A22F070021143396210F09F
:103A600002010AD0E268BB6903F00F039A4204D94D
:103A7000BB6923F00F031A43BA61C20737D0B86994
:103A800020F47061D4E9010211430328B96105D023
:103A9000022807D1396889030CD48AE03968890182
:103AA00008D486E00128396802D1C90502D480E033
:103AB00049077ED53969A94621F0070108433861D5
:103AC000FFF70AF8064641F28835386900F03800F9
:103AD0006168B0EBC10F06D0FEF7FEFF801BA84265
:103AE000F3D9032066E020684D4600F0020151B191
:103AF000E168BA6902F00F02914204D2BA6922F079
:103B00000F021143B961296801F00F0141450AD93B
:103B1000296821F00F0141EA08012960296801F0B4
:103B20000F01414545D141070AD52169BA6902F023
:103B30007002914204D2BA6922F070021143B96155
:103B400001070AD56169FA6902F07002914204D254
:103B5000FA6922F070021143F961C1060AD5A16920
:103B6000FA6902F4E062914204D2FA6922F4E06256
:103B70001143F96180060AD5E069396A01F07001E4
:103B8000884204D2396A21F070010843386200F09B
:103B90004DF8B969C1F30321234A515C084A01F089
:103BA0001F0120FA01F100201160BDE8F843FEF783
:103BB000C7BF012001B0BDE8F08300BF0020005264
:103BC0001000002480B5FFF74FF80649164A09682F
:103BD00001F00F01515C01F01F01C840024908606B
:103BE00080BD00BF184402581400002480B5FFF7C0
:103BF000E9FF0C490C4A0968C1F30211515C01F05C
:103C00001F01C84080BD00BF80B5FFF7DBFF05493D
:103C1000054A0968C1F30221515C01F01F01C84047
:103C200080BD00BF1C440258E47B00083649086987
:103C3000C0F3C20003280CD0022828D048BB086873
:103C40008006374858BF70470968C1F3C101C840B2
:103C500070478A6A886AC0F3051CCB6A486B03F018
:103C60000103C0F3CC00BCF1000F03FB00F000EE39
:103C7000100AB8EE400A0ED002F00302022A0CD05D
:103C800072B9086880060ED49FED241A15E020480A
:103C900070471E487047002070479FED1F1A0CE0C8
:103CA0009FED1C1A09E008681D4AC0F3C10022FA02
:103CB00000F001EE100AB8EE411A02EE10CA9FEDB4
:103CC000193AB8EE422A086B6FF35F2081EE021AB0
:103CD00002EE100AB8EE422A086BC0F3462000EE4E
:103CE000032AB7EE000A013032EE000A21EE000A84
:103CF00001EE100AB8EE411A80EE010ABCEEC00ACD
:103D000010EE100A704700BF0044025800093D0041
:103D100000127A000024744A0024F44A0024744CEF
:103D20000090D00300000039F8B5002800F05B8156
:103D300004460078CF4EC0074AD0306900F0380101
:103D4000B06A102905D0182909D100F00300022813
:103D500005D1306880033BD56068C8BB43E160682B
:103D600068B1B0F5803F06D0B0F5A02F30681CD107
:103D700040F480203060306840F480301BE03068D0
:103D800020F480303060306820F480203060FEF70E
:103D9000A3FE0546306880031AD5FEF79DFE401B42
:103DA00064284FF00300F5D932E120F48030306010
:103DB000306820F480203060FEF78EFE05463068C3
:103DC000800305D4FEF788FE401B6428F7D91EE166
:103DD000207880075BD5306910F03801B06A18D0C0
:103DE000182908BF5FEA807013D0E06800283168A6
:103DF00036D021F0190108433060FEF76DFE05460C
:103E0000306840071FD4FEF767FE401B0228F7D931
:103E1000FDE030684007E06802D5002800F0E3804C
:103E2000316821F0190108433060FEF755FE054660
:103E30003068400707D4FEF74FFE401B02284FF0C2
:103E40000300F5D9E4E0FEF741FE41F203018842A8
:103E5000706816D820F47C30216940EA013015E002
:103E600021F001003060FEF737FE0546306840075C
:103E70000DD5FEF731FE401B02284FF00300F5D9A7
:103E8000C6E020F0FE40216940EA016070602078C1
:103E9000C0064ED5306900F03801B06A082905D057
:103EA00018290AD100F00300012806D13068C005A6
:103EB00018D5E069802815D095E0E06900283068C1
:103EC00026D040F080003060FEF706FE05463068E0
:103ED000C00507D4FEF700FE401B02284FF0030088
:103EE000F5D995E0FEF7F2FD41F20301884207D8CB
:103EF000706820F0F840216A40EA8160706018E044
:103F0000F06820F07C50216A40EA0160F06010E027
:103F100020F080003060FEF7DFFD05463068C00508
:103F200007D5FEF7D9FD401B02284FF00300F5D955
:103F30006EE02078000723D560690028706F0ED0EE
:103F400040F001007067FEF7C7FD0546706F8007FF
:103F500016D4FEF7C1FD401B0228F7D957E020F028
:103F600001007067FEF7B8FD0546706F800707D542
:103F7000FEF7B2FD401B02284FF00300F5D947E0E1
:103F80002078800623D5A069002830680ED040F440
:103F900080503060FEF7A0FD05463068800416D4DE
:103FA000FEF79AFD401B0228F7D930E020F480503C
:103FB0003060FEF791FD05463068800407D5FEF7B6
:103FC0008BFD401B02284FF00300F5D920E020783C
:103FD00040070AD4656A002D00F0C680306900F001
:103FE0003800182825D1012012E0D6F8000440F44A
:103FF0008070C6F80004FEF76FFD0546D6F8000491
:10400000C00507D4FEF768FD401B6428F6D90320DD
:1040100001B0F0BDA06878B3012806D00528306F44
:1040200040F0A48040F004003067306F40F00100A1
:10403000A2E0306820F080703060FEF74DFD022D68
:1040400005460AD1306880012ED5FEF745FD401B9C
:1040500002284FF00300F5D9DAE73068800140F11B
:104060008380FEF739FD401B03284FF00300F4D393
:10407000CEE700BF00440258306F20F001003067E7
:10408000306F20F004003067FEF726FD054641F250
:104090008837306F80079DD5FEF71EFD401BB84264
:1040A0004FF00300F5D9B3E7B06A40F2F33188432B
:1040B000A16A226B0843511E626B4FF47E4303EBEF
:1040C0004222E36A6FF35F2192B240EA0310B062CA
:1040D0005018A16B4FF4FE0202EB014101F4FE0106
:1040E0000844E16B4FF0FE4202EB016101F0FE413A
:1040F000084430634FF6F871F06A20F00100F06276
:10410000706B8843A16C40EAC1007063F06A20F0D4
:104110000C00216C0843F062F06A20F00200616C30
:104120000843F062F06A40F48030F062F06A40F4D4
:104130000030F062F06A40F48020F062F06A40F0F3
:104140000100F062306840F080703060FEF7C4FC1F
:1041500004463068800107D4FEF7BEFC001B02282D
:104160004FF00300F5D953E7002051E720F001009C
:104170003067306F20F004003067FEF7ADFC054675
:1041800041F28837306F80073FF524AFFEF7A4FC7B
:10419000401BB8424FF00300F4D939E7411E00201C
:1041A000B0EB116F01D001207047044A5160F0213B
:1041B000034B1970072190601160704710E000E018
:1041C00023ED00E090F83C20012A4FF0020224D0B9
:1041D00010B54FF0010C124C80F83CC080F83D2027
:1041E000026842F4806E5368A645D2F808E002BF28
:1041F00023F470034C68234323F070030C682343BB
:1042000089682EF08004536021439160002280F879
:104210003DC080F83C20BDE810401046704700BF0C
:1042200000040140B0B110B5044690F83D0028B933
:10423000002084F83C00204600F00EF8022084F8AC
:104240003D00211D206800F029FD012084F83D007B
:10425000002010BD0120704782B000680E498842DE
:104260000DD00E49884214D10D48016841F0020179
:104270000160006800F002000190019809E0084820
:10428000016841F010010160006800F0100000902A
:10429000009802B0704700BF0010004000040040CA
:1042A000E844025802220A4B80F83D20014600688B
:1042B00082681A40062A18BFB2F5803F03D0026810
:1042C00042F0010202600122002081F83D20704787
:1042D00007000100B0B5044690F83C0001284FF0FB
:1042E000020032D001223E4D84F83C2084F83D008B
:1042F0002068024652F8083F2B4013600B68BBB1A0
:10430000102B15D0202B18BF302B11D0402B34D0C0
:10431000502B3ED0602B48D03248834208D0B3F5B2
:10432000005F4ED0B3F5801F18BFB3F1101F0DD141
:1043300010682F490840184340F007001060012022
:1043400084F83D00002084F83C00B0BD264883423C
:10435000EED026488342EBD0702BF0D1D1E9010397
:10436000C9681843156840EA012025F47F452843B1
:104370001060106840F07700E0E74B68CA681946A3
:1043800000F008FD22681A4952F8080F084047302B
:10439000D4E74B68CA68194600F0FCFC226814494F
:1043A00052F8080F08405730C8E74B68CA681946EA
:1043B00000F001FD22680E4952F8080F08406730EE
:1043C000BCE7D1E90103C9681843156840EA012038
:1043D00025F47F4528431060106840F48040ADE725
:1043E0008800CEFF400010002000100030001000B8
:1043F00088FFCFFF90F87C10012901D1022112E043
:104400002421C0F8801002681368116823F000535B
:1044100021F0010111600021416613602022C0F8E3
:10442000802080F87C1008467047B0B5044690F8AC
:104430007C00012801D10220B0BD012084F87C005D
:104440002420C4F8800020680568026822F0010278
:104450000260826822F0606211438160204600F0B1
:10446000BDFC206805602020C4F88000002084F88E
:104470007C00B0BDB0B5044690F87C00012801D1A5
:104480000220B0BD012084F87C002420C4F8800004
:1044900020680568026822F001020260826822F04A
:1044A000604211438160204600F098FC206805605E
:1044B0002020C4F88000002084F87C00B0BD10B536
:1044C000B0B10446D0F8800028B9002084F87C0000
:1044D000204600F027F82420C4F8800020680168F6
:1044E00021F001010160204600F038FD012801D1D2
:1044F000012010BDA06A10B1204600F099FC206890
:10450000416821F490414160816821F02A01816075
:10451000016841F0010101602046BDE8104000F053
:10452000EABC000010B586B0044601A81421FBF7D0
:1045300007FF20681249884220D1BF48816841F4B2
:1045400080218160816801F48021009100990168D7
:1045500041F00801016001A9006800F00800009026
:1045600000984FF440700190022002900020CDE9A5
:104570000300072005900348FEF7DEF906B010BDE2
:1045800000480040000C02582DE9F8430446D0F8DA
:10459000800020280AD10E4600294FF0010706D0DE
:1045A000154622B194F87C00012804D10227384630
:1045B00001B0BDE8F083012084F87C0000272120B1
:1045C000C4F888709946C4F88000FEF785FAA4F80C
:1045D00054508046A4F85650A168B1F5805F20D1B0
:1045E0002069002814BF30463746064619E080216E
:1045F000CDF8009000222046434601F01DF8F0B9A6
:104600001EB116F8010B216805E037F8020B0026F1
:1046100021686FF35F208862B4F856000138A4F86F
:104620005600B4F856000028E1D14021CDF80090A2
:10463000002220464346002700F0FEFF08B1032772
:10464000B5E72020C4F8800084F87C70AFE7FEE76F
:10465000C1F3406300EB8300D0F814C0C1F30451F0
:1046600007238B402CEA030302FA01F1194341614D
:1046700070470000B0B588B001A81C21FBF760FEB0
:104680001A481B494FF4802201600821426000242F
:104690008160042501214FF490624FF48063C0E9EA
:1046A0000345848281610477C0E9092300F12C036A
:1046B0004FF4805216C380F83840FCF775FF08B1FC
:1046C000FCF719FC0B48019001A906200290052077
:1046D000039040F2FF70CDE9040504480694FCF70E
:1046E0005BFC08B1FCF707FC08B0B0BD88050024EE
:1046F000002102400000214380B58AB001A8242196
:10470000FBF71EFE0C480D490160FDF71FFA08B1CA
:10471000FCF7F1FB002016210190CDE902100121E8
:10472000CDE9041001A904480022FDF731F908B1D0
:10473000FCF7E1FB0AB080BDEC05002400740040EA
:10474000E0B50E480168002241F00101016002213C
:10475000006800F00100019001980C20FEF730FA8B
:104760000C20FEF71FFA0D2000210022FEF728FA88
:104770000D20BDE88C40FEF715BA00BFD8440258A2
:10478000F0B587B000262C482C4CCDE905660168B1
:10479000002241F0040101604FF48147016801F0FB
:1047A000040101910199016841F0800101600168F3
:1047B00001F0800101910199016841F0010101605E
:1047C000016801F0010101910199016841F00201C4
:1047D0000160016801F0020101910199016841F055
:1047E000080101604FF48141006800F00800019069
:1047F00001982046FEF765F94FF4005002901048EA
:1048000002ADCDE9030604F580602946FEF794F871
:1048100001200297CDE90306204605962946FEF7BA
:104820008BF8282002210022FEF7CAF92820FEF783
:10483000B9F907B0F0BD00BFE044025800040258C7
:104840000000111180B588B000211748174A4FF4B5
:10485000FA730791CDE90511CDE90311CDE90111F5
:10486000C0E900236422C0E9021201618161FFF7FF
:10487000D9FC08B1FCF73FFB4FF48050049004A929
:104880000948FFF727FD08B1FCF735FB2020019010
:104890000020039001A90448FFF794FC08B1FCF73D
:1048A0002AFB08B080BD00BFF006002400040040D1
:1048B0001FB500240E480F494FF4C8720394CDE988
:1048C0000144C0E900120921C0E902418461FFF7F7
:1048D000A9FC08B1FCF70FFB2020019001A90448B6
:1048E0000394FFF76FFC08B1FCF705FB1FBD00BF89
:1048F000300700240010004010B5174C17484FF443
:10490000E13120600020C4E901100C21E060C4E91D
:10491000040104F118001421FBF712FD2046FFF7F3
:10492000CEFD08B1FCF7E7FA0B480021FFF7A2FD26
:1049300008B1FCF7E0FA08480021FFF776FD08B15E
:10494000FCF7D9FA0448FFF755FD18B1BDE810404F
:10495000FCF7D1BA10BD00BF70070024004800402A
:10496000FEE7704770470000F8B5C94FBA6A02F019
:104970000302032A01D1012074E00546386820F0C3
:1049800080600C463860FEF7A7F8064638680001DC
:1049900005D5FEF7A1F8801B0228F7D95FE0B86AB9
:1049A0004FF47E43696820F47C30AA68013903EB38
:1049B00042222B686FF35F2192B240EA0330114428
:1049C000EA684FF4FE03B86203EB024202F4FE020F
:1049D000881829694FF0FE4202EB016101F0FE41A7
:1049E0000844B863002CF86A20F0C000696940EA06
:1049F0000100F862F86A20F02000A96940EA01008D
:104A0000F8624FF6F871F86A20F01000F862F86B5F
:104A100020EA0100E96940EAC100F863F86A40F061
:104A20001000F86205D0012CF86A06D140F480101D
:104A300005E0F86A40F4002001E040F40010F8625C
:104A4000386840F080603860FEF746F80446386801
:104A5000000106D4FEF740F8001B0328F7D303201B
:104A600000E0002001B0F0BDF8B5894FBA6A02F04D
:104A70000302032A01D1012074E00546386820F0C2
:104A800080500C463860FEF727F8064638688000EC
:104A900005D5FEF721F8801B0228F7D95FE0B86A38
:104AA0004FF47E43696820F07C70AA68013903EBFB
:104AB00042222B686FF35F2192B240EA0350114407
:104AC000EA684FF4FE03B86203EB024202F4FE020E
:104AD000881829694FF0FE4202EB016101F0FE41A6
:104AE00008443864002CF86A20F44060696940EAA0
:104AF0000100F862F86A20F40070A96940EA010038
:104B0000F8624FF6F871F86A20F48070F862786CF9
:104B100020EA0100E96940EAC1007864F86A40F4DB
:104B20008070F86205D0012CF86A06D140F40000CC
:104B300005E0F86A40F4800001E040F08070F8621F
:104B4000386840F080503860FDF7C6FF044638688A
:104B5000800006D4FDF7C0FF001B0328F7D3032015
:104B600000E0002001B0F0BD7047FDF7B9BF0000C4
:104B700010B5CCB039A82D4C4C21FBF7E1FB31A886
:104B80002021FBF7DDFB02A8BC21FBF7D9FB0220AB
:104B9000FEF746F8002001902548016821F0010148
:104BA0000160006800F001000190206840F440407E
:104BB0002060206800F44040019001982068800443
:104BC000FCD50220012139903C9120213D91002407
:104BD00004214290322243944491CDE94520CDE90D
:104BE00047100C20CDE9490439A84B94FFF79CF8F5
:104BF0003F2031900320CDE932040820349040203A
:104C00004FF48061CDE93500CDE9371031A802219C
:104C1000FEF7D6FE074802904FF4003016941F941A
:104C20002A9002A8FEF766FA4CB010BD1848025848
:104C30002C0400580200088010B51448D0F88010E9
:104C4000144C41F47001C0F8801011490A6842F018
:104C500001020A6000220A610B6823400B608A612E
:104C6000CA610A628A62CA620A634A638A63CA6361
:104C70000A644A640B6823F480230B600A660649C1
:104C800001220A604FF00061016010BD08ED00E0F4
:104C9000004402587FEDF6EA08810051F0B5B0F10A
:104CA000804F0368334A05D0334CA0421CBF334CBD
:104CB000A04234D123F070034C68234302F58044B2
:104CC000041BB4FA84F44FEA541C02F58844041B14
:104CD000B4FA84F44FEA541E02F59044041BB4FA6B
:104CE00084F4640923F44073CD682B4323F08003DC
:104CF0004E690D6833438F68002C0360C76285627C
:104D000008BFBEF1000F05D190421CBF02F58062C2
:104D100090422BD10969016301214161F0BD184C1A
:104D2000A042C7D0174CA04218BF9042C2D002F593
:104D30008044154D041BB4FA84F44FEA541C02F568
:104D40008844041BB4FA84F44FEA541E02F59044DC
:104D5000041BB4FA84F4A8424FEA5414C2D00B4D99
:104D6000A842BFD00A4DA842BCD0BFE7BCF1000F9B
:104D7000D2D0CFE70000014000040040000800400E
:104D8000000C004000040140004001400048014088
:104D900000440140D0F820C0036A23F001030362FD
:104DA000836923F0F00343EA02122CF00A038261C4
:104DB000194301627047036A23F010030362836999
:104DC00023F47043D0F820C043EA02322CF0A00351
:104DD000826143EA0111016270470000416ED9B15E
:104DE00080B501688A68C2F342628968490FDFF8BA
:104DF00038C01CF80130DFF834E01EF80110DB0089
:104E0000B3FBF1F11CF802301EF80220DB00B3FB0B
:104E1000F2F2BDE8804001E001210122A0F86A1011
:104E2000A0F86820704700BF4CB1000854B10008DA
:104E3000816ACA0708D00268D0F82CC0536823F4EE
:104E4000003343EA0C0353608A0708D50268D0F8A0
:104E500030C0536823F4803343EA0C0353604A079D
:104E600008D50268D0F834C0536823F4802343EA9D
:104E70000C0353600A0708D50268D0F838C053689D
:104E800023F4004343EA0C035360CA0608D50268C2
:104E9000D0F83CC0936823F4805343EA0C0393603A
:104EA0008A0608D50268D0F840C0936823F40053FE
:104EB00043EA0C0393604A0612D50268D0F844C056
:104EC0005368BCF5801F23F4801343EA0C0353603E
:104ED00006D1536823F4C00C836C43EA0C0353607F
:104EE000090658BF70470168C06C4A6822F4002266
:104EF000104348607047BCB500210446C0F88810D4
:104F0000FDF7EAFD216805460A6812070BD56FF028
:104F10007E404FF400110090002220462B4600F006
:104F20008BFB70B92168086840070CD56FF07E4094
:104F30004FF480010090002220462B4600F07CFBBD
:104F400008B1032007E02020C4F88000C4F88400E2
:104F5000002084F87C0002B0B0BD00002DE9F041D3
:104F600086B004460068D4E9021322699A4D1143C1
:104F700062691143E2691143676E394307682F4044
:104F8000964D39430160416821F440511943944BD7
:104F900041609842A1691CBF276A394387682F4046
:104FA000904D39438160A842C16A21F00F07616AC0
:104FB00047EA01068C4FB846C66227D08B4DA842FF
:104FC00030D08B4DA84239D08A4DA84242D08A4D6C
:104FD000A84200F04A80894DA84200F051809842D2
:104FE00000F05980864DA84200F06080854DA842AF
:104FF00040F069807E6DC6F3C205052D00F2638026
:105000000126DFE805F0695E626466687F6D07F07F
:105010000705052D00F257800026DFE805F05D52F8
:1050200056585A5C7F6D07F00705052D00F24B803E
:105030000026DFE805F051464A4C4E507F6D07F0E0
:105040000705052D00F23F800026DFE805F0453A10
:105050003E4042447F6D07F00705052D33D80026FA
:10506000DFE805F03A2F333537397F6D07F0070554
:10507000052D28D80026DFE805F02F24282A2C2E1D
:105080007F6D07F00705052D1DD80026DFE805F028
:1050900024191D1F2123BF6D07F00705052D12D808
:1050A0000226DFE805F0190E121416187F6DC7F3FB
:1050B000C205052D07D80126DFE805F00E03070914
:1050C0000B0D042608E0802606E0082604E01026E2
:1050D00002E0202600E04026984214D0B2F5004FAE
:1050E0002ED1082E4FF001003CD8DFE816F0090061
:1050F000D10093029302DB00930293029302EA0031
:10510000FEF774FDC6E0402E00F07E80042E00F015
:105110008F80082E00F09F80102E00F0A580202E9A
:1051200000F0AF80022E40F07482FDF7B1FD616A9D
:105130000B2980F08580DFF8F02452F8212084E0EC
:10514000082E4FF001002AD8DFE816F00900C3004E
:1051500064026402CD00640264026402DC00FEF7B3
:1051600045FDB8E0102E00F0D580202E00F0DC8048
:10517000402E40F04F820A294FF0010000F2E181F9
:10518000DFE811F0F5010B00E401E601E801EA01B6
:10519000EC01EE01F001F201F4010220E7E1102E32
:1051A00000F0C880202E00F0CF80402E40F03282E8
:1051B0000A294FF0010000F2E281DFE811F0F60168
:1051C0000B00E501E701E901EB01ED01EF01F10160
:1051D000F301F5010220E8E1F369FFCFFFF4FF11CD
:1051E000000C0058004400400044025800480040B1
:1051F000004C00400050004000780040007C00401F
:1052000000140140001001400A294FF0010000F293
:105210000481DFE811F018010B00070109010B01FF
:105220000D010F01110113011501170102200AE1FF
:1052300003A8FDF7C5FD616A0B290498FFF47BAF55
:105240004FF0010208BF4FF48072B0FBF2F3002B65
:1052500040F0FD80B7E16846FDF738FE616A0B2932
:105260000198FFF468AFEBE7D8F8000042468006EB
:1052700070D40B2980F0A480DFF8AC0350F8210033
:10528000A3E00B2972D2DFF8A00350F8210072E0EE
:10529000FEF7BAFC616A0B290BD2DFF88C2352F8B7
:1052A00021100BE003A8FDF78BFD616A0B29049820
:1052B000F3D34FF0010108BF4FF48071B0FBF1F060
:1052C00095E06846FDF702FE616A0B290198E4D378
:1052D000EFE7FEF799FC616A0B290BD2DFF8482350
:1052E00052F821100BE003A8FDF76AFD616A0B2953
:1052F0000498F3D34FF0010108BF4FF48071B0FB65
:10530000F1F056E16846FDF7E1FD616A0B2901986D
:10531000E4D3EFE7D8F8000080062ED40B295ED244
:10532000C14850F821005FE00B2931D2BE4850F847
:10533000210032E0D8F80000800630D40B2965D275
:10534000B94850F8210066E00B2932D2B64850F82F
:10535000210033E010680B29C0F3C100B44A22FADF
:1053600000F034D2B04A52F8212035E04FF001006D
:1053700008BF4FF48070AD4A67E0D8F800000B29F1
:10538000C0F3C100AA4A22FA00F0FFF486AF90E70A
:105390004FF0010008BF4FF48070A44925E0D8F811
:1053A00000000B29C0F3C100A14A22FA00F095D3F6
:1053B000A0E74FF0010008BF4FF480709B49F6E072
:1053C0004FF0010008BF4FF48070994A3DE04FF064
:1053D000010208BF4FF48072B0FBF2F337E04FF0E8
:1053E000010008BF4FF480709149B1FBF0F0616893
:1053F00040004A081044B0FBF1F04FF6F071014054
:1054000000F00781C0F342000843DAE04FF00100EA
:1054100008BF4FF480708649C9E00B2908BF4FF4DC
:10542000807010E004200EE006200CE008200AE066
:105430000A2008E00C2006E0102004E0202002E012
:10544000402000E080204FF40042B2FBF0F362689D
:1054500002EB420083424FF00100C0F0DB801703F3
:10546000BB4200F2D780402E13D0042E20D0082E4D
:105470002ED0102E34D0202E3FD0022E40F0C980E6
:10548000FDF706FC616A0B2919D2674A52F8211010
:105490001AE00A294FF0010000F29780DFE801F0DE
:1054A000AB069A9C9EA0A2A4A6A8AA000220A2E0F5
:1054B00003A8FDF785FC616A0B290498E5D34FF03A
:1054C000010108BF4FF48071B0FBF1F0626827E082
:1054D0006846FDF7FBFC616A0B290198D5D3EEE71E
:1054E000D8F80000800652480DD40B2913D34FF092
:1054F000010108BF4FF4807110E00B291AD24A480D
:1055000050F821001BE0D8F800300B29C3F3C10389
:1055100020FA03F0EBD2444B53F82110B0FBF1F02A
:10552000010E000210EB520041F100010023FAF7D6
:10553000CFFE69E04FF0010008BF4FF480703B4997
:105540005BE00B2908BF4FF4807010E004200EE0F0
:1055500006200CE008200AE00A2008E00C2006E003
:10556000102004E0202002E0402000E080204FF4E2
:105570000041B1FBF0F06168420048083AE70B29AE
:1055800008BF4FF4807010E004200EE006200CE00D
:1055900008200AE00A2008E00C2006E0102004E0C1
:1055A000202002E0402000E080204FF40041B1FBC9
:1055B000F0F0616800EB5100B0FBF1F080B2102810
:1055C00027D32168C860002024E00B2908BF4FF4CE
:1055D000807010E004200EE006200CE008200AE0B5
:1055E0000A2008E00C2006E0102004E0202002E061
:1055F000402000E080204FF40041B1FBF0F00002B9
:1056000000EB5200B0FBF2F0A0F54071094A914264
:10561000D7D901204FF001110022C4E91A122267E4
:1056200006B0BDE8F08100BFB87B000800093D006E
:105630000090D003FFFC0F002DE9F843DDF8208037
:10564000994616460F46044608F101052068C069D0
:105650003840C01BB0FA80F04009B0421DD1002D87
:10566000F4D0FDF739FAB8F1000F03D0A0EB090030
:105670004045EBD92068016821F4D0710160816850
:1056800021F0010181602020C4F88000C4F884006A
:10569000002084F87C00032000E0002001B0BDE879
:1056A000F083FEE700F00F02044B09011A44044B9B
:1056B000B0F1FF3FC8BFC2181170704714ED00E091
:1056C00000E400E0B0B5002921D0002302EB430C38
:1056D00032F813E0BCF802C002332EF0030E2CF0B7
:1056E000030C50F80E4050F80C508B4240F80E500E
:1056F00000EB0E0540F80C4000EB0C04D5F804C09C
:10570000D4F804E0C5F804E0C4F804C0DED3B0BDAA
:105710002DE9F041048816460746012A98460D46B1
:105720000CD1E4B3281D214690ED000AB1EE400AE9
:10573000013980ED000A00F10800F5D1FF2C0CDDE5
:10574000B4F5806F10DBB4F5805F22D0B4F5006F44
:1057500011D0B4F5806F17D021E03F2C10DC102C55
:1057600012D0202C07D01AE0B4F5807F03D0B4F516
:10577000007F0ED013E03846294600F0F7F80EE01F
:10578000402C06D0802C0AD13846294600F02EF84D
:1057900005E07A6801232846214600F071FBB8F144
:1057A000000F04D0B9892846BA68FFF78BFF012E95
:1057B0001AD100EE104A002CB8EE400A14D0B7EE11
:1057C000001A81EE000A00BF95ED001A95ED012A3E
:1057D00020EE011A013C20EE422A85ED001A85EDEB
:1057E000012A05F10805EFD1BDE8F0812DE9F04768
:1057F0002DED068B038880460020D8F80420B0EBFE
:10580000D30F084601EB830A4FEA530900F09E804C
:10581000D9080AEB890C00EB890E4C42002700BF27
:10582000C3190AEB070593ED000A95ED004A30EE27
:10583000048A0EEB07010CEB070630EE440A93EDE9
:10584000011A93ED022A93ED033A95ED015A95ED75
:10585000026A95ED037AD1ED000AD1ED011AD1ED7E
:10586000022AD1ED033AD6ED004AD6ED015AD6ED23
:10587000026AD6ED037A31EE059A83ED008A32EEA4
:1058800006AA013433EE078A83ED019A30EEA49A1A
:1058900083ED02AA31EEA5AA83ED038A32EEA68A31
:1058A00033EEA74A81ED009A31EE451A81ED01AA47
:1058B00081ED028A02EB070381ED034A34EEE05AE0
:1058C000D3ED000A35EEE14A07F1100761EE201A28
:1058D000D3ED014A21EE241A40EE641A65EE245AF3
:1058E00064EE244A00EE201A44EE605A45EE204A47
:1058F00032EE460A85ED001A33EE471AC5ED011A5D
:1059000036EEE22AC6ED005A37EEE33AC6ED014A1A
:1059100093ED034A93ED026A21EE045A21EE061A32
:1059200022EE047A63EE040A00EE065A00EE441AF0
:1059300003EE467A42EE060A85ED025A85ED031A19
:1059400086ED027AC6ED030A7FF46AAF0223494668
:1059500000F096FAD8F80420022350464946BDECE0
:10596000068BBDE8F04700F08BBA00002DE9F04F40
:1059700081B02DED0C8B90B08446008891ED000A2B
:10598000420801EB820404EB820591ED011A95EDCA
:10599000002A95ED013A30EE024A0F4630EE420AF7
:1059A00005EB820631EE032A910031EE431A0F9186
:1059B00094ED003A94ED015A30EE056A810871EEDB
:1059C000430A009174EE432A6FF0010172EE453AEA
:1059D00001EB900A30EE450AD00034EE034A6FF036
:1059E000070832EE052A0E9031EE031A02EB42014F
:1059F00096ED007AD6ED011A36EE616A08EB0210D8
:105A000070EE870A4FEA810972EEC72A0C9073EE96
:105A1000E13A059730EE210A08EB810334EE073AAC
:105A20006FF0030132EE212A029431EE471A01EBA6
:105A3000C20E87ED003A4FF0000B87ED012A0027D8
:105A400084ED006AA7EB5A0AC4ED010A01EB820457
:105A5000C5ED002A0020C5ED013A86ED000A86ED6D
:105A6000011ADCF8041003950196CDF810C00691D8
:105A70000D90C1E0C518CDF8249000EB0409CDF8D5
:105A80001CA099ED006A95ED017A76EE070A00EB0D
:105A90000E01D1ED002AF246DDF830E070EEA23AB8
:105AA000089400EB0E0436EE476AD4ED015A73EE0B
:105AB000A53A0F9859ED011AD5ED004A71EEA46A86
:105AC000083051ED017A94ED008AC9ED003A71EE8B
:105AD000E41A51ED013A76EEA33AAEF1080E94EDD8
