:020000040800F2
:10000000780C00246D0300088F4E0008D54B0008C3
:100010008D4E0008D91A00086D5900080000000034
:100020000000000000000000000000006550000813
:10003000A91C000800000000914E0008675000084D
:100040008703000887030008870300088703000868
:100050008703000887030008870300088703000858
:100060008703000887030008870300088703000848
:10007000391B0008451B0008870300088703000898
:100080008703000887030008CD1A000887030008CB
:100090008703000887030008870300088703000818
:1000A0008703000887030008870300088703000808
:1000B00087030008870300088703000887030008F8
:1000C00087030008870300088703000887030008E8
:1000D00087030008870300088703000887030008D8
:1000E000AB1C00088703000800000000870300081D
:1000F00087030008870300088703000887030008B8
:1001000087030008870300088703000887030008A7
:100110008703000887030008870300088703000897
:100120008703000887030008870300088703000887
:100130008703000887030008870300088703000877
:1001400000000000000000000000000000000000AF
:100150008703000887030008870300088703000857
:100160008703000887030008870300088703000847
:1001700087030008870300088703000800000000C9
:100180008703000887030008870300088703000827
:100190008703000887030008870300088703000817
:1001A0008703000887030008870300088703000807
:1001B00087030008870300088703000887030008F7
:1001C00087030008870300088703000887030008E7
:1001D00087030008870300088703000887030008D7
:1001E00087030008870300088703000887030008C7
:1001F00087030008870300088703000887030008B7
:1002000087030008870300088703000887030008A6
:100210008703000887030008870300088703000896
:100220008703000887030008870300080000000018
:100230008703000887030008000000008703000808
:100240008703000887030008870300088703000866
:100250008703000887030008870300088703000856
:100260008703000887030008870300088703000846
:1002700087030008870300088703000800000000C8
:10028000870300080000000087030008000000004A
:1002900000000000870300084B1C012B98BF70472B
:1002A0002DE9F003911C9B08B1F80480B1F802908D
:1002B0000A8831F802CC8044814402448444D9F84D
:1002C0000070D8F800601568DCF80040C9F80060DC
:1002D000C8F80070CCF800501460D9F80470D8F851
:1002E00004605568DCF80440C9F80460C8F804707C
:1002F000CCF80450546008315B1ED5D1BDE8F00342
:1003000070474B1C012B98BF70472DE9F003911CDF
:100310009B08B1F80480B1F802900A8831F802CC49
:1003200000EB580800EB590900EB520200EB5C0CA3
:10033000D9F80070D8F800601568DCF80040C9F8FA
:100340000060C8F80070CCF80050146008315B1EE3
:10035000DFD1BDE8F0037047DFF80CD001F034FACC
:1003600000480047A15B0008780C0024064880473D
:1003700006480047FEE7FEE7FEE7FEE7FEE7FEE78A
:10038000FEE7FEE7FEE7FEE72551000859030008F7
:100390009FED3E0A5FEA920C59D000BFD0ED000AF3
:1003A00090ED011A0B1D60EEA00A083041EE010A23
:1003B000F5EEC00AF1EE10FAA6BFB1EEE01A81ED3B
:1003C000001A81ED000AD0ED000A90ED011A00F14B
:1003D000080160EEA00A181D41EE010AF5EEC00A00
:1003E000F1EE10FAA6BFB1EEE01A83ED001A83ED2C
:1003F000000AD1ED000A91ED011A031D60EEA00A7A
:10040000083141EE010AF5EEC00AF1EE10FAA6BF7E
:10041000B1EEE01A80ED001A80ED000AD1ED000A7D
:1004200091ED011A081D60EEA00A191D001D41EE94
:10043000010AF5EEC00AF1EE10FAA6BFB1EEE01A1D
:1004400083ED001A83ED000ABCF1010CA6D112F075
:10045000030208BF704700BFD0ED000A90ED011AFB
:1004600008300B4660EEA00A091D41EE010AF5EEC8
:10047000C00AF1EE10FAA6BFB1EEE01A83ED001A41
:1004800083ED000A521EE7D1704700000000000013
:1004900091ED001AD1ED010AB6EE000A31EE011A13
:1004A00070EEA00A0388D0F814C001F108005B1EAA
:1004B00071EE201A71EE600A01EBC3010CF1080C19
:1004C00021EE801A60EE800A82ED001AC2ED010A68
:1004D000083200BFD1ED002A90ED003A9CED001AE1
:1004E000D1ED010A72EEC33AD0ED011A9CED012A5A
:1004F00033EE223A30EEA14A61EE234A62EE232A1D
:1005000071EEE00A22EE042A73EE241A21EE041A98
:1005100070EEA20A083071EE821A083970EEC10A34
:100520005B1E21EE801A0CF1080C60EE800AA2EC32
:10053000011AE2EC010ACDD17047D1ED000A91ED2C
:10054000011AB6EE000A038870EE811A70EEC10A35
:10055000D0F814C05B1E01F1080021EE801A60EE95
:10056000800A01EBC30182ED001AC2ED010A02F11B
:1005700008020CF1080C08BF704700BFD1ED002A3B
:1005800090ED003ADCED003AD1ED010A73EE621A0B
:1005900090ED011A9CED014A73EE222A31EE202AD9
:1005A00023EEA15A71EE600A64EE211A64EE024A4B
:1005B00032EEC51A23EE822A70EEA10A083031EE1F
:1005C000641A083970EEC20A5B1E21EE001A0CF1A3
:1005D000080C60EE800AA2EC011AE2EC010ACDD10F
:1005E00070472DE9F0410446008A1D0016460F466B
:1005F0004FEA500020800AD02046FFF79EFF2A468F
:1006000031462046BDE8F041012300F09FBB0123A5
:100610002A46204600F09AFB324639462046BDE87D
:10062000F04135E70022018249080180B1F5807F61
:1006300031D008DC10294FD0202945D040293BD0AB
:10064000802931D008E0B1F5007F1BD0B1F5806F73
:100650000FD0B1F5006F03D04FF0FF321046704756
:100660004FF46E638381214B8360214B21494360AA
:1006700039E04FF4E16383811F4B83601F4B2049B6
:10068000436030E04FF4E07383811E4B83601E4B68
:100690001E49436027E04FF4DC7383811C4B836069
:1006A0001C4B1D4943601EE0D02383811B4B83609C
:1006B0001B4B1C49436016E0382383811A4B83602F
:1006C0001A4B1B4943600EE030238381194B836032
:1006D000194B1A49436006E014238381184B836049
:1006E000184B194943604161B8E7000070030108E5
:1006F000D8AB0008B060010860F50008D88B00088E
:10070000B0400108E0F10008D87B0008B0300108D3
:1007100070EE0008D8730008B0280108D0EC00087B
:10072000D86F0008B024010860EC0008D86D0008FC
:10073000B022010800EC0008D86C0008B0210108C4
:10074000D8EB0008586C0008302101082DE9F0476B
:10075000064688462DED088B0088D6F804C045086B
:1007600001EB8004AB08274601EB850004EB850212
:100770007ED000BF91ED001AD4ED001AD1ED013A00
:10078000D4ED01BAD1ED025A94ED022A91ED030A9B
:10079000D4ED032AD0ED034AD2ED030A71EE217A9B
:1007A000D0ED006A90ED013A90ED025A92ED007A98
:1007B00092ED016A92ED024A33EEAB8A75EE828ABF
:1007C00030EE229AC1ED007A76EE879A81ED018AA9
:1007D00033EE06AAC1ED028A75EE04AA81ED039AF2
:1007E00034EEA0BAC0ED009A80ED01AAC0ED02AAD5
:1007F00070EE622A80ED03BA71EE611A9CED000A78
:1008000073EEEB3A70EEE44ADCED010A34EE454A51
:1008100035EEC22A21EE805A63EE805A63EEA03A8A
:1008200037EE661A36EE433A61EEA01A35EE236AC9
:1008300061EE203A23EE005A63EE200A21EE000A10
:1008400075EEE11A84ED006A33EEC51AC4ED011AA3
:1008500030EE800A82ED001A0CF1080A82ED010ADE
:100860005B1E9AED000A04F1080402F1080900E099
:100870002DE0DAED010A22EE001A62EE801A62EE35
:10088000A02A22EE202A0AF1080C00F1100031EE15
:10089000223A24EE201A64EE802A64EEA00A24EEA6
:1008A000000A71EEC21A84ED003A31EE621AC4ED0C
:1008B000011A30EE800A89ED001A04F1080489ED6E
:1008C000010A01F1100109F108027FF453AF7268C7
:1008D00002232946404600F0E1FA7268294638466C
:1008E0000223BDEC088BBDE8F04700F0D7BA2DE934
:1008F000F34F04244FF0060B2DED0A8B87B01198AF
:10090000DDF844C0D1ED003A0088DCF804C04608A8
:100910000CF1080901EB860202EB8600D2ED000A19
:1009200090ED002A00EB86031D1F93ED000A019451
:1009300005EB860473EE821A0492760805910CF199
:100940001008D1ED014A30EEA11A90ED014A93ED65
:10095000013A33EEC22A71EE002A92ED011A74EECA
:10096000C43AC1ED002A74EE842A009601F1040114
:1009700092ED015A71EE024A31EEE06A72EEC11A4E
:1009800032EE412A35EE225A93ED014A74EEC32A23
:1009900071EEC31A32EE032A73EEE05A35EE043AD2
:1009A0000CF1180703900293A6F1020C70EEA33A23
:1009B00081ED003A161F35EE801AC2ED002A02F1D1
:1009C000040E76EE400A8EED001A01F10402C0ED2D
:1009D000000A00F104015FEA5C0AA0F1040CC1ED19
:1009E000001A0EF1040033EEC00A83ED002A03F171
:1009F000040E01F104038EED000A0EF1040100F073
:100A0000078100BFD2ED007AD3ED006AD0ED002A55
:100A100091ED002A37EEA61AD2ED010A90ED016A97
:100A2000D1ED015A32EE810A31EE629A77EEE66A32
:100A300070EE021A93ED010A76EE267AC2ED001AE4
:100A400030EE805AD0ED011A91ED013A71EE851A1F
:100A500075EE469A71EE831AC2ED011AD6ED003A90
:100A6000D5ED004ADCED001A94ED001A33EEA47ABD
:100A700016ED01AA55ED018A14ED014A31EE873ACF
:100A80003AEE285A33EE018A1CED013A86ED008ACF
:100A90005CED01AA37EEE58A7AEE857A54ED01AA7B
:100AA00077EEAABA70EEC07A71EEC1AA46ED01BA2D
:100AB000D9ED010A37EEE20A72EEA77A7AEE682AD9
:100AC00030EE02BA99ED000A7AEEA28A68EE00BA18
:100AD0002BEE20CA2BEE00BA28EE208A28EE80AA40
:100AE0007BEE8CBA3BEE488AC0ED00BA80ED018AFD
:100AF00033EEE48A38EE438A38EE048A28EE20BAD0
:100B000068EEA00A28EE000A39EE428A3BEE4AAAB5
:100B100079EEE58A30EE800A8CED00AA0CED010A30
:100B200037EE610A30EE417A98ED000A28EE009A1D
:100B3000D8ED010A35EE435AB1EE47AA68EEA09A05
:100B400068EE808A28EE208A35EE445A79EE299A9A
:100B50002AEE009A38EEC88AC3ED009A25EE000A04
:100B600083ED018A25EE208A67EE200A37EEC22A3D
:100B700034EE433A39EE488A30EEC00A31EEC11AFB
:100B800085ED008A05ED010A36EEC60AD7ED010AA9
:100B900031EE621A083030EE255A97ED000A22EE47
:100BA000206A083265EE005A22EE002A25EE205A0D
:100BB00061EE001A75EE865A083332EE452AC1ED11
:100BC000005A083D81ED012A33EEE42A0831083E3F
:100BD00009F1080933EE422AACF1080C07EB8B0748
:100BE00022EE203A61EE200A22EE000A73EE611A2C
:100BF00030EE800AC4ED001A04ED010ADDF804E0CD
:100C0000083CBAF1010A08EB8E087FF4FBAE00BF86
:100C100092ED001A93ED000A92ED013A71EE000A8E
:100C200071EE402A90ED000A30EE201A70EEC01AE4
:100C3000D1ED000A71EE203A31EEE01AD3ED011A3F
:100C400033EE212A73EE611A31EEC03A30EE210AFA
:100C500073EE201A30EE603A90ED010A70EE220A2F
:100C600032EEC04AD1ED012AC2ED003AD0ED013A90
:100C700032EE400A70EEE20A33EE822AD1ED013AFA
:100C800030EE620A74EE222A32EE232A82ED012A25
:100C900099ED002AD9ED013A20EE824A60EEA30ACE
:100CA00061EEA33A61EE821A34EE232A71EEE00A75
:100CB00080ED002AC0ED010AD8ED010AD8ED001A36
:100CC00020EE202A61EE213A20EE210A61EE200A70
:100CD00033EE821A30EE600A83ED001A83ED010ACA
:100CE00097ED000AD7ED010A042362EE801A23EE85
:100CF000201A23EE000A62EEA00A31EE811A30EECD
:100D0000600A81ED001A81ED010A1198009942688C
:100D1000059800F0C3F811980423009942680498DC
:100D200000F0BCF81198042300994268039800F081
:100D3000B5F81198042300994268029807B0BDECF9
:100D40000A8B02B0BDE8F04F00F0A8B82DE9F041E1
:100D50000488012A984617460D46064621D1281DCB
:100D6000FCB114F0010FA0F1080106D091ED020AC8
:100D7000B1EE400A81ED020A08315FEA540C10D04E
:100D800091ED020AD1ED040ABCF1010CB1EE400A6A
:100D9000F1EE600A81ED020AC1ED040A01F11001D1
:100DA000EED1B4F5807F1BD008DC102C13D0202CA2
:100DB00016D0402C19D0802C0DD01CE0B4F5007F4B
:100DC00013D0B4F5806F06D0B4F5006F08D0B4F539
:100DD000805F0AD00FE029463046FFF7B7FC0AE0F3
:100DE00029463046FFF783FD05E07268012321465E
:100DF000284600F053F8B8F1000F04D0B189284616
:100E0000B268FFF749FA012F18BFBDE8F08100EE84
:100E1000104AF7EE000A002CB8EE401A80EE810A64
:100E200008BFBDE8F08114F0010FA5F108000ED055
:100E3000D0ED030A90ED021AF1EE600A21EE001ADD
:100E400060EE800A80ED021AC0ED030A08306108E6
:100E500008BFBDE8F08100BF90ED031AD0ED021A83
:100E6000D0ED050A90ED042AB1EE411A61EE801A28
:100E7000F1EE600A22EE002A21EE001A60EE800AEE
:100E8000C0ED021A80ED042A80ED031AC0ED050AB8
:100E9000491E00F11000DFD1BDE8F0812DE9FF4FC0
:100EA0002DED108B82B09FEDFE0A0B464FF0000C2B
:100EB0009E46DB080CEB0304E51800EBC408EC18B5
:100EC00004EB030600EBC50906EB030500EBCC07BA
:100ED00000EBC60605EB030AD6ED000AD7ED002AA3
:100EE0000AEB030B00EBC50532EEA01A00EBCA0AB1
:100EF00072EEE00A95ED002ADAED004AD8ED002AFC
:100F000099ED005A00EBCB0B00EBC404DBED001AAB
:100F100094ED003A32EE824A75EE243A72EEC22A1D
:100F200033EE212A33EE613A71EE631A71EE233A01
:100F300034EE421A34EE022A32EEC38A72EE832A6B
:100F400035EE645A33EE823A33EEC22A62EE806A9C
:100F500087ED003A86ED002AD8ED017A95ED014A39
:100F600097ED017A96ED013AD9ED013A9AED012A11
:100F7000D4ED018ADBED014A77EE845A37EEC44A9C
:100F800037EE036A78EEA42A73EE827A73EEC23AE1
:100F900035EE662A37EE433A75EE266A36EE677A04
:100FA00036EE275A78EEE44A35EEE26A75EEA25A3A
:100FB000F44474EE648A74EE242A75EE257A35EED4
:100FC000655A71EE865A62EE802A28EE004A68EE73
:100FD000804A31EEC66A8C4537EE418A37EE017A97
:100FE00030EEC41A70EE841A73EE640A33EE244AAB
:100FF00033EEE23A73EEA22AC7ED017A86ED015A8A
:10100000C9ED005A71EEA23A71EEE21A8AED006A59
:1010100089ED018A71EE032A8AED017A31EE431AD5
:10102000C8ED003A34EE663ACBED001A34EE264AAB
:10103000C5ED002A70EEC24A84ED001A70EE820AF5
:1010400088ED013A8BED014AC5ED014AC4ED010A74
:10105000FFF430AF082B3FBF02B0BDEC108B04B0E3
:10106000BDE8F08F4FF0000CCDF804C04FF0010C3C
:10107000CDF800C0DDF804C0159C64440194DDF88F
:1010800000C065002E1902EBC40702EBC508351934
:1010900097ED00FA97ED019A98ED00CAD8ED018A14
:1010A00002EBC60702EBC5082E1935192C4402EBDA
:1010B000C60602EBC50502EBC404D7ED00BA97EDF6
:1010C000018A98ED00BAD8ED017AD6ED00AA96ED26
:1010D000017A95ED00AAD5ED016AD4ED009A94ED60
:1010E000016A00BF0CEB0304E51800EBC409EC181F
:1010F00004EB030808EB030700EBCC0A00EBC50682
:1011000000EBC80807EB030598ED001ADAED000ABA
:1011100000EBC70705EB030B30EE814A30EEC11A36
:10112000D7ED002AD9ED000A00EBCB0B00EBC5058B
:1011300030EEA23A00EBC40470EEE20A9BED002A06
:10114000D5ED001AD6ED002A94ED005AF44472EE63
:10115000A14A75EE023A35EE422A72EEE11A74EEB9
:10116000642A33EE635A34EE244A33EE233A70EEA7
:10117000823A70EEC2EA8C4534EE032A74EE430ADA
:1011800023EE804A8AED002A9AED013A98ED012A71
:101190006BEE20FA27EEA0DA73EE020A33EE423A43
:1011A00031EEC42A71EE841AD9ED013A97ED014A65
:1011B000D6ED015AD4ED01DA73EE84CA73EEC43A67
:1011C00095ED014A75EE844A35EEC44A30EEE4EA04
:1011D00070EEA45ADBED014A7DEEA40A7DEEE44AEE
:1011E0007CEEE0DA7CEEA0CA72EEAD0A72EEED2A79
:1011F00075EEACDA75EEEC5ACAED01DA67EEA5DAF7
:101200006BEE25CA7EEE455A3EEE055A7FEEADDA0C
:101210007CEECDCA28EEA5EAC8ED00DA6CEE20DA45
:10122000C8ED01CA6CEE255A68EEA00A73EEE4CA56
:1012300073EEA43A7DEE8EDA75EEE04A6CEE80CA6B
:101240002AEE22EA66EEA25A63EE803AC6ED00DA92
:1012500073EE6C2A2EEE80DA33EE2C3AC6ED014A9C
:1012600066EE85FA74EE634A74EE233A2AEE055A66
:1012700071EE4D0A33EE614A31EE0D1A3EEE2FEA61
:1012800073EE211A32EEC23A75EE655A72EE822A78
:1012900085ED00EA31EE232A29EE045A02E000002F
:1012A000F304353F31EE631A70EEA43A70EEE40AAF
:1012B0006FEE024AC5ED015A66EE215A2FEE044A3E
:1012C00034EE855A69EE814A29EE022A69EEA11AA6
:1012D00026EE011A74EEA55A34EE422A67EE034A4E
:1012E00071EEC11A2AEE831A27EE233A2AEEA34A98
:1012F00089ED005A89ED012A6BEEA03A28EE222AE8
:1013000031EE433A2BEEA21A68EE200A34EE244A5C
:10131000CBED005ACBED011A73EE821A71EE600A22
:1013200087ED004A87ED013AC4ED001AC4ED010AC9
:10133000FFF4D8AEDDF800C00CF1010CCDF800C010
:1013400063453FF697AE159C4FF6FF7C072B0CEAE2
:10135000C40CCDF854C03FF6A9AD02B0BDEC108B63
:1013600004B0BDE8F08F2DE9F05F054600209246FD
:101370009B4688460646814640241BE02846414657
:101380004746224600F057F853465A46C01A914144
:1013900010D311461846224600F03EF82D1A67EB8E
:1013A00001084F4622460120002100F035F817EBD6
:1013B00000094E41201EA4F10104DFDC48463146FD
:1013C0002A464346BDE8F09FD2B201E000F8012B67
:1013D000491EFBD270470022F6E710B513460A46B5
:1013E00004461946FFF7F0FF204610BD30B50B4606
:1013F000014600202022012409E021FA02F59D4245
:1014000005D303FA02F5491B04FA02F52844151E18
:10141000A2F10102F1DC30BD202A04DB203A00FAFF
:1014200002F1002070479140C2F1200320FA03F33B
:10143000194390407047202A04DB203A21FA02F039
:101440000021704721FA02F3D040C2F120029140FE
:101450000843194670472DE9FE4F804681EA030094
:10146000C00F0C46009021F0004123F00045B8EB7E
:101470000200A94105D24046214690461C460B4633
:10148000024623F00040104347D0270DC7F30A005F
:10149000C3F30A510290401A019040286BDAC3F35B
:1014A000130040F4801B0098924620B10023D2EB39
:1014B000030A63EB0B0B01985946C0F140025046FA
:1014C000FFF7AAFF06460D4650465946019A00F01E
:1014D0008DF910EB08006141002487EA115284EA7B
:1014E000E7731A4340D0009A62B3019A012A4FEA87
:1014F000075215DC001B61EB02014FF0004202EACB
:101500000752CDE90042001C41F5801132462B46BE
:1015100000F08DF903B0BDE8F08F40462146F9E7B1
:10152000001B61EB0201001C41F5801300185B41B8
:101530002018A2F5001747EB030140EAD570B61951
:101540006D4111E06D084FEA360645EAC0754FEA75
:101550000752001B61EB0201001C41F58011490894
:101560004FEA30000019514132462B4603B0BDE826
:10157000F04F00F04DB90098012240000023D0EB5D
:10158000020263EBE073009821464FEAE074B8EB87
:10159000000061EB0401E9E783F000435BE781F0C1
:1015A000004158E72DE9FE4F81EA030404F00044AE
:1015B00021F0004100944FF0000B23F0004350EA6B
:1015C00001045ED052EA03045BD0C3F30A54C1F3B2
:1015D0000A552C44A4F2F3340194A0FB0254C1F345
:1015E000130141F48011C3F3130343F4801301FB8F
:1015F000024400FB034E840A970A44EA815447EAF6
:101600008357A4FB076802958D0A05FB07854FEAFF
:10161000932C04FB0C542705029D4FEA065847EA19
:101620001637B5EB08056EEB070C870E920E47EAEE
:10163000811742EA8312A7FB0201B6EB0B0164EBB0
:1016400000042B0D43EA0C335E1844EB1C50DA46C1
:101650005146E7FB0201C5F313044FEA0B3343EA9B
:1016600014534FEA0432019C43EA0603A4F10C042C
:101670000294009CCDE900B400F0D9F803B0BDE8B5
:10168000F08F00200146F9E72DE9F04D81EA0304CF
:1016900004F0004B21F0004514464FF0000A23F0FF
:1016A000004150EA050220D054EA01021DD0C5F3E2
:1016B0000A570246C5F31303C1F31300C1F30A56D8
:1016C00040F4801543F48013A7EB0608101BD646A0
:1016D00008F2FD3873EB050002D308F1010801E0C0
:1016E00092185B41B8F1000F03DA00200146BDE813
:1016F000F08D00204FF48011064684460EE0171B43
:1017000073EB050705D3121B63EB050306434CEA95
:10171000010C49084FEA300092185B4150EA01077A
:10172000EDD152EA030012D082EA040083EA0501F7
:10173000084305D0101BAB4106D20122002306E06E
:1017400000224FF0004302E06FF0010253101AEB49
:1017500006004CEB085110EB0A0041EB0B01BDE811
:10176000F04D00F055B8C1F30A52C1F3130140F235
:10177000FF3341F480119A4202DA0020014670479B
:1017800040F233439A42A2F2334202DC5242FFF764
:1017900052BEFFF741BE000030B5041E71F10004D7
:1017A00004DB4FF00044404264EB0101141E73F16E
:1017B000000405DB1C464FF00043524263EB040378
:1017C000994208BF904230BD064C074D06E0E068E4
:1017D00040F0010394E8070098471034AC42F6D378
:1017E000FEF7BEFDF8A1010818A20108202A06DBB9
:1017F000CB17203A41FA02F043EAE07306E041FADF
:1018000002F3D040C2F120029140084319467047CC
:1018100010B5141E73F1000408DA401C41F10001F8
:1018200092185B411A4301D120F0010010BD2DE94F
:10183000F04D92469B4611B1B1FA81F202E0B0FA46
:1018400080F220329046FFF7E7FD04460F4640EA5B
:101850000A0041EA0B0153465A46084313D0114689
:1018600053EA010019D0C8F140025046FFF7E3FDEA
:1018700005460E46504659464246FFF7CDFD084301
:1018800005D0012004E020463946BDE8F08D002057
:10189000054346EAE0762C4337430A986305E40A99
:1018A000A0EB08000022FD0A44EA47540A3002D5A2
:1018B00000200146E9E7010510196941DDE9084505
:1018C00000196941BDE8F04DA2E7000070B504467B
:1018D0000068826812F00C0F54D0C26812F0007FCA
:1018E00005D0627D012A04BF227D012A03D0602930
:1018F0000FD160211DE0244A4FF0FF31036813F03F
:10190000400F03D101319142F8D331E04021016011
:101910000C21826812F0040F07D0826812F0020FC7
:1019200002BF826842F0100282600C2901D10426B5
:1019300012E0826812F0080F07D0826812F0020FDE
:1019400002BF826842F0200282600426602908BF3C
:1019500008266C2908BF0C2601F00EFE05462068FB
:10196000806830420ED001F007FE401B0628F6D3F7
:10197000606D40F010006065A06D40F00100A06552
:10198000012070BD002070BD00DC0C00806B426D3A
:10199000416D12F0500F04D0C90648BF00F082BC60
:1019A000704741F40071416501680B68CA6813F023
:1019B000080F02D1910715D108E012F4406F18BF4B
:1019C00000F06EBCC96811F4005F0BD1416D21F4C9
:1019D00080714165416D11F4805F02BF416D41F03E
:1019E0000101416500F05CBC806B416D41F040013C
:1019F0004165816D41F00401816500F053BC806B4D
:101A000000F04FBCB0B504460068816801F00301E6
:101A1000012925D1016811F0010F21D0816801F061
:101A20000D01012912D1816841F002018160032179
:101A3000016001F0A1FD05462068806810F0010FEB
:101A40000ED001F099FD401B0328F5D3606D40F0E6
:101A500010006065A06D40F00100A0650120B0BDE0
:101A60000020B0BDB0B504460068816801F00301F4
:101A7000012903D1016811F0010F22D18168124AB6
:101A8000114214D1816841F00101816001F074FDBF
:101A900005462068016811F0010F12D1816841F0FC
:101AA0000101816001F068FD401B0328F1D3606DE6
:101AB00040F010006065A06D40F00100A0650120BD
:101AC000B0BD0020B0BD00BF3F000080014800F065
:101AD000F7BB00BF88050024FEE710B5846B2046E5
:101AE00000F0F2FF0120207110BD10B5846B20467C
:101AF00000F066FF0120207110BD10B5846B2069D5
:101B000040F004002061204601F023F801202071FC
:101B100010BD10B5846B206940F0040020612046A0
:101B200000F050FF0120207110BD806B01F010B853
:101B3000806B00F046BF0000014801F053B900BFC0
:101B400078060024014801F04DB900BF00060024CA
:101B500001686FF00F0240F2FF3352FA81F29943AD
:101B600018235F2AB2FBF3F204A39A5C88BF41F00A
:101B700004018165C2650846704700BF0006101663
:101B8000000610160168464A8B18CAB28C2B06D87C
:101B9000104BA2F108011422B1FBF2F10AE00B4B49
:101BA0000B44A2F110011822A92B094BB1FBF2F151
:101BB00038BF0831012203F1800C03EB810302FAE4
:101BC00001F1C0E9183C8166704700BFF0FBFDBF22
:101BD000000802400058025801790139072988BFDE
:101BE000704770B503682E4C0C4D0B4E01228A4095
:101BF000234405F140048D2B3EBF06F1400445F619
:101C00000015C5F6020505EB8101C0E91B1442670A
:101C1000BDE87040704700BF0059025800090240FB
:101C200070B5D0F858E0D0E919C4CCF80440C46EBF
:101C30001CB1D0E91CC4CCF80440D0F800C0174C4B
:101C40006444B4F5956F0CD8C46D3F2505FA04F4CF
:101C5000CEF80840DCF8005025F48025CCF8005080
:101C60000DE00F4C0CEB04058C2D88BF70BDC56DCD
:101C70000C4E012404FA05F5346825433560CCF890
:101C800004308068402802BFCCF80820CCF80C1043
:101C900070BDCCF80810CCF80C2070BDF0FFFDBF73
:101CA000F8ABFDA70454025870474FF4005001F000
:101CB0008DBB704770B5044690F8500016460D462F
:101CC000012804BF022070BD012084F85000204686
:101CD000FFF798FE616D10B141F010012AE041F26A
:101CE00002124FF6FF13914341F002016165216832
:101CF0008A6822F0804232438A608A6822F4803205
:101D00002A438A608A6842F000428A604FF0FF32BC
:101D10008E68B6F1FF3F09DC01329A42F8D3606D5C
:101D200020F0120040F01001012003E0616D01225B
:101D300062F30101002284F85020616570BD704794
:101D4000704770477047704778B50022009290F84E
:101D50005020012A01D1022196E2012380F850305F
:101D60000268956815F0040F40F06B820D68AB4077
:101D7000D5692B43D3614B68042B19D84FF4F86C09
:101D8000126B9CFAACF5D1E90043B5FA85F56B43CB
:101D90001F2505FA03F39A439CFAACF34D68B3FA96
:101DA00083F36B4304FA03F313430268136356E0AF
:101DB000092B1BD84FF4F86C526B9CFAACF5D1E9A7
:101DC0000043B5FA85F5053B6B431F2505FA03F380
:101DD0009A439CFAACF34D68B3FA83F3053D6B4329
:101DE00004FA03F313430268536338E00E2B1BD845
:101DF0004FF4F86C926B9CFAACF5D1E90043B5FA5C
:101E000085F50A3B6B431F2505FA03F39A439CFAB9
:101E1000ACF34D68B3FA83F30A3D6B4304FA03F362
:101E20001343026893631AE04FF4F86CD26B9CFA88
:101E3000ACF5D1E90043B5FA85F50F3B6B431F259F
:101E400005FA03F39A439CFAACF34D68B3FA83F3B3
:101E50000F3D6B4304FA03F313430268D3639368A3
:101E600013F00C0F35D0936803F00303012B04D15A
:101E7000136813F0010F40F00382CD680B68012452
:101E80009C40B5F1804F44D1D2F8C050092B45EAAF
:101E90000405C2F8C05042D33823926993FAA3F5DF
:101EA0000C68D1F808C093FAA3F3B5FA85F5093C9C
:101EB0006543072404FA05F5AA43B3FA83F50B68D2
:101EC000A3F1090169430CFA01F111430268916120
:101ED00040E00B680A2B5AD34FF0380C92699CFAF9
:101EE000ACF50C688B68B5FA85F50A3C65430724A8
:101EF00004FA05F5AA439CFAACF5D1F800E0B5FA6E
:101F000085F5AEF10A0465430468AB401A43A2614B
:101F100057E0D2F8C010A143C2F8C0101AE038232D
:101F2000526993FAA3F50C68D1F808C093FAA3F3A9
:101F3000B5FA85F501346543072404FA05F5AA438B
:101F4000B3FA83F50B68591C69430CFA01F111438C
:101F500002685161D94DCE4E42F48071A94202D13E
:101F600006F5407102E0CB4901F54071122B04D116
:101F70008D6815F4000F58D082E1132B50D0112B2F
:101F800040F07E818D6815F0807F4ED078E14FF073
:101F9000380C52699CFAACF50C688B68B5FA85F57B
:101FA0006543072404FA05F5AA439CFAACF5D1F879
:101FB00000E00468B5FA85F505FB0EF5AB401A4361
:101FC0006261D1E9043CE268013B032B5FD80E2536
:101FD00005EA52020CFA02FCDFE803F002A3C4E5B2
:101FE000226E4FF0F84393FAA3F3B3FA83F30EFA99
:101FF00003F302F0004242EA0C0213430268136644
:1020000013690D7E23F400632B4313614D7E136E21
:10201000002D0CBF23F0004343F00043136622E77A
:102020008D6815F4800F40F02B81956805F003054D
:10203000012D04D1156815F0010F40F00281B24264
:102040000CD0B56806F58074A24205F0030500F0D7
:10205000CB80012D40F0D8803568D2E0D6F8085109
:1020600005F00305012D05D1D6F8005115F0010F3B
:1020700040F0E780874CA56805F00305012D40F08E
:10208000CE80256815F0010F00F0C980D9E04FF02F
:10209000F842236E92FAA2F2B2FA82F20EFA02F536
:1020A000026803F0F843AB424FF0F84502BF136EED
:1020B00023F000431366536E0A6895FAA5F5B5FA46
:1020C00085F502FA05F5026803F0F843AB424FF0DC
:1020D000F84502BF536E23F000435366936E0A68BF
:1020E00095FAA5F5B5FA85F502FA05F5026803F04B
:1020F000F843AB424FF0F84502BF936E23F0004324
:102100009366D36E0A6895FAA5F5B5FA85F502FAD5
:1021100005F5026803F0F843AB427FF4A4AED36E3A
:102120005EE0626E4FF0F84393FAA3F3B3FA83F3E1
:102130000EFA03F302F0004242EA0C021343026873
:10214000536613690D7E23F4805343EA45031361FC
:102150004D7E536E002D0CBF23F0004343F000432F
:10216000536680E6A26E4FF0F84393FAA3F3B3FAF6
:1021700083F30EFA03F302F0004242EA0C02134327
:102180000268936613690D7E23F4005343EA8503C6
:1021900013614D7E936E002D0CBF23F0004343F07E
:1021A000004393665FE6E26E4FF0F84393FAA3F3C1
:1021B000B3FA83F30EFA03F302F0004242EA0C0290
:1021C00013430268D36613690D7E23F4804343EA08
:1021D000C50313614D7ED36E15B143F0004301E09A
:1021E00023F00043D3663EE6012D03D1356815F098
:1021F000010F26D1D74DAC6804F00304012C03D1A4
:102200002D6815F0010F1CD1D6F8085105F0030513
:10221000012D04D1D6F8006116F0010F11D1122B57
:102220001CD1CC4B9A422BD18A6842F400028A60BE
:1022300019491A4A0968B1FBF2F1C1EB0111C90051
:1022400007E0416D41F020014165012119E000994D
:102250000139009100990029F9D111E0132B08D020
:10226000112B04BFBB4B9A420AD18A6842F080729C
:1022700005E0B84B9A4203D18A6842F480028A6032
:102280000021002280F85020C8B201B070BD00BF0C
:1022900000200240006002581000002480841E00CC
:1022A000704770470168AE4A914218BF704780B5C9
:1022B00000F04EFBBDE88040704700BF00210240A7
:1022C000B0B5044600680168426802EA010515F0ED
:1022D000020F0DD0606D10F0100F02BF606D40F462
:1022E000006060652046FFF72AFD2068022101603A
:1022F00015F00C0F52D0616D11F0100F02BF616D1F
:1023000041F400716165014651F80C2F12F4406FE1
:102310003ED18F4A90421CBF8E4A90421CD1096820
:1023200011F4005F34D1016811F0080F30D08168DA
:1023300011F0040F24D1416821F00C014160606D5F
:1023400020F480706065606D10F4805F02BF606D86
:1023500040F0010060651BE07F4A936813F01F0F97
:10236000DDD0936803F01F03052BD8D0916801F0EE
:102370001F010929014618BFA2F540710C31CEE7B3
:10238000606D40F010006065A06D40F00100A06538
:102390002046FFF785FF20680C21016015F0600FD3
:1023A00051D0616D11F0100F02BF616D41F4005109
:1023B0006165016811F0400F3FD0654A03469042C5
:1023C00017D064490346884213D063498B6813F0E1
:1023D0001F0F03460DD08B6803F01F03062B034627
:1023E00007D08B6803F01F03072B034618BFA1F526
:1023F0004073D9689042034617D0F64A034690428C
:1024000013D0554A936813F01F0F03460DD09368FD
:1024100003F01F03052B034607D0936803F01F0347
:10242000092B034618BFA2F54073DA68C36C01F4A8
:10243000001103F4C07319435FD02046FFF780FCFE
:10244000206860210160290609D5606D40F4803064
:102450006065204600F0C4F9206880210160E9052C
:102460000AD5606D40F4003060652046FFF76AFCD5
:1024700020684FF480710160A9050AD5606D40F4B1
:10248000802060652046FFF75EFC20684FF40071F5
:102490000160E9061ED5216B71B1CD4A40F480710F
:1024A000914214BF2F492C498A6812F01F0F41D066
:1024B000896811F4404F0BD0606D40F48060606516
:1024C000A06D40F00200A0652046FFF7EBFE2068FB
:1024D00010210160690558BFB0BD616D41F48041B4
:1024E0006165A16D41F00801A1654FF48061016053
:1024F0002046BDE8B040FFF724BC18490A408A4294
:1025000004BFC16811F4406F97D0816811F0080FC3
:1025100015D1416821F060014160606D20F4805068
:102520006065606D10F4807F02BF606D40F0010057
:10253000606582E7C16811F0010FBDD1C8E7606D29
:1025400040F010006065A06D40F00100A06574E7E8
:1025500000200240006002580023024000200002D8
:102560000021024000630258BCB504460020002C44
:10257000019036D0606D30B9204600F033F900206C
:1025800084F85000A0652168886810F0005F1EBFC5
:10259000886820F000508860886810F0805F12D151
:1025A0008868894A40F08050886086480068B0FB9F
:1025B000F2F000EB8000400001E00198013801904A
:1025C00001980028F9D1886810F0805F0BD1606D08
:1025D00040F010006065A06D40F00100A065012092
:1025E00002E001200DE00020626D12F0100F04BF28
:1025F0008A6812F0040F06D0606D40F010010120CF
:10260000616502B0B0BD626DCC4D704B42F002020C
:10261000626541F48072AA4202D103F5407C02E077
:102620006C4A02F5407C8A6802F00302012A03D159
:102630000A6812F0010F42D199420AD09A6803F554
:102640008075A94202F0030216D0012A24D119682C
:102650001FE0D3F8081101F00301012904D1D3F8D8
:10266000001111F0010F2AD15A498A6802F00302C1
:10267000012A1CD1096817E0012A03D1196811F059
:10268000010F1CD153498A6802F00302012A03D1C9
:10269000096811F0010F12D1D3F8081101F00301FC
:1026A000012904D1D3F8001111F0010F07D1DCF892
:1026B0000810626821F47C111143CCF8081094F8DA
:1026C00015C04FF400524FF4803392FAA2F2256BFA
:1026D000D4F808E0217F93FAA3F3B2FA82F2B3FAB6
:1026E00083F30CFA02F22A43994042EA0E020A43AB
:1026F000217F012909D1216A4FF4602393FAA3F3C2
:10270000B3FA83F3013999400A43616A01291CBF76
:10271000A36A002B30D121682F4DCB682B401A4380
:10272000CA608A6812F00C0F3DD1217D4FF48042BF
:1027300044F2030592FAA2F2E36AB2FA82F201FAD3
:1027400002F221681A43CB68AB431A43CA6094F87B
:1027500039300A69012B13D1204BD4E90FE502EA85
:10276000030CD4E9112345EA0C0545EA0E452A433A
:102770001A4342F0010205E0114341EA0302CAE7AD
:1027800022F001020A610A69636B22F070421A4367
:102790000A6194F838208B6823F48075012A08BFF9
:1027A00043F480758D60E3680A6B22F00F02012B01
:1027B00002BFA369013B1A430A630122616D62F300
:1027C00001011DE71000002480841E00002002404B
:1027D000002102400060025803C0F0FF1EF800FC18
:1027E00070470000BCB5044601681A4800F5035262
:1027F000914218BFBCBD1849184D4FF480634FF487
:10280000006C4FF4005E0A6842F020020A60002269
:10281000096801F02001019101990A2185E807006A
:1028200005F10C0080E80C502846C5E907226A62D1
:1028300000F046FC08B1FFF73CFA1220002100220C
:10284000E564AC6300F0F0FE1220BDE8BC4000F08F
:10285000DDBE00BF40000240D844025800060024FC
:10286000F8B5044600680E461546816811F0040F5D
:1028700003D194F85010012902D1022001B0F0BD1B
:102880002E4F40F48070012184F85010B8420ED1D0
:102890002B48016811F01F0F09D0016801F01F01DA
:1028A000052904D0006800F01F0009283BD120460C
:1028B000FFF7D8F818B1002184F85010DEE7606DFA
:1028C00040F6017110F4805F1ABFA06D20F0060081
:1028D0000020A065606D884340F4807060652168C9
:1028E00041F48070B84223D1606D20F4801060659F
:1028F000E06C144A144BC0E90F32144A2B46C264F0
:102900001C220A604A6842F010024A604031324696
:1029100000F0D0FC002084F8500021688A6842F062
:1029200004028A60AAE7002084F850000120A5E78D
:102930000348006810F01F0FDAD1D5E700210240EC
:1029400008230240FF1900088D190008E919000842
:10295000B0B5044690F85000012801D102252DE0C1
:1029600001206C2184F850002046FEF7AFFF054699
:1029700008BB2068C16821F00301C160E06C00F071
:10298000C1F9054618B1606D40F01000606520681F
:10299000416821F0100141602046FFF733F855B936
:1029A0000028054607D1606D41F2011100258843DA
:1029B00040F001006065002084F850002846B0BD5A
:1029C00070477047704700002DE9F0410E4641798D
:1029D00004461546022001296FD020710120607144
:1029E0003068042834D14DB12068406BB0F1FF3F0E
:1029F0001BDC00F0C1FD0228F6D30FE000F0BCFDA7
:102A000007462F48804620684146406B10EA080F71
:102A100012D000F0B1FDC01B0228F4D3206940F0B1
:102A2000080020610320207147E0012000F0ACFC89
:102A30002068B169416405E0012000F0A5FC206830
:102A4000B1690164F169A9408164316AA940C16436
:102A500031692068012908D1826B1F21A94022EA2F
:102A600001017269AA4011438163C26B0721A94029
:102A700022EA01013268D6E902371A433A43AA40F2
:102A80001143C1634FF480410268A94022EA010169
:102A9000016040F6FE710268A94022EA01017268F5
:102AA000AA4011430160C0210268A94022EA010145
:102AB00001600020012160712171C0B2BDE8F08188
:102AC0000080002000000000BCB50068504988422A
:102AD00000D0BCBD1A4C2078012806D00028F8D1BF
:102AE0001848BDE8BC4002F055BF6078012810D0FE
:102AF000002818BFBCBD0020144A0021FA23009012
:102B0000104800F08FF801209FED0B0B60700E480D
:102B10000BE00C480C4A00250021FA23009500F038
:102B200081F89FED050B09486570FA21224602B035
:102B3000BDE8B04002F044BFF168E388B5F8F43E68
:102B400018000024EC0500242000002414020024B6
:102B50007047704710B5044668B1207920B900204D
:102B60006071204600F00AF8022001212071002047
:102B70002061217110BD012010BD000070B586B02C
:102B8000044601A81421FEF726FC2068204988424B
:102B90003BD120480026816841F000518160816866
:102BA00001F0005100910099016841F001010160BC
:102BB00001A9006800F00100009000980320029035
:102BC000102001901448039600F00AFC134D14499C
:102BD000432040224FF480634FF4006C4FF4005EBA
:102BE000C5E9001005F11000C5E9022680E808508B
:102BF0004FF48030EE61C5E90806284600F060FA1F
:102C000008B1FFF756F8A560AC6306B070BD00BF11
:102C100000740040E0440258000002587806002486
:102C20002800024070B50E46417904460220012971
:102C300059D0DDF810C020710120002E607119D02C
:102C4000E0682A492A4DBCF1080FC0E90F51294913
:102C5000C16421680D6845F080550D6025D0BCF138
:102C6000040F25D0BCF1000F0CBF01F1140C4FF084
:102C7000000C1FE0A068DFF880E02049BCF1080FDD
:102C8000C0E90F1E1E49C16421680D6845F48055D6
:102C90000D6016D0BCF1040F10D0BCF1000F0CBFBA
:102CA00001F1080C4FF0000C0DE001F11C0C01E0EB
:102CB00001F1180C0D6845F0005507E001F10C0C0E
:102CC00001E001F1100C0D6845F400550D6011464E
:102CD000624600F0EFFA002001216071B1402268E5
:102CE000136819431160C0B270BD00BF311B0008EA
:102CF000EB1A0008131B00082B1B0008DB1A000846
:102D0000FB1A00082DE9F843044600F035FC05469F
:102D1000E4B394F83500022810D12668E24831184F
:102D20003068B1F5956F0FD820F01E0030607069E3
:102D300020F080007061D4F858800AE0002084F808
:102D400034008020606521E020F00E004FF0000884
:102D50003060206ED74F016821F4807101603068C7
:102D600020F001003060D4488146306810F0010F37
:102D700010D000F001FC401B0628F6D3202060652F
:102D8000002084F83400032084F83500012001B0CD
:102D9000BDE8F0832168B94208D9E06D494506D203
:102DA0003F2101FA00F0C8F8080005E0E06D0121BC
:102DB00001FA00F00A490860D4E919014160E06EA7
:102DC00030B1016821F480710160D4E91C014160D7
:102DD000012084F83500002084F83400D7E700BFD4
:102DE000045402582DE9F84304460020AE490090EF
:102DF000AC48D4F85890D0F80080D9F8007020681A
:102E00000144B1F5956F38D8E16DAA4DAA4E08235B
:102E100003FA01F23A4218D0B042B4462E464FF0BF
:102E2000080538BF0425B04298BF1D4603682B42F1
:102E30003546664609D0036823F004030360C9F8E9
:102E40000820626D42F0010262659C4A02FA01F3B9
:102E50003B424AD0A84247D9B04245D2B4462E465A
:102E6000456915F0800F354666461FBFC9F8083022
:102E7000636D43F00203636537E08C4901448C299C
:102E800000F2F7808A4904230F68E26D93403B42C9
:102E90001CBF076817F0040F5FD10F68022393402F
:102EA0001F421CBF076817F0020F40F0E4800823A0
:102EB00003FA02F20B6813421CBF026812F0080FFB
:102EC00000F0D780026822F00E0202600122E06D5D
:102ED0004B6802FA00F0184348600020626584F8ED
:102EE000340084F83520BDE0036803328A403A425A
:102EF0000FD0A8420CD9B0420AD2036813F0020FD7
:102F00001FBFC9F80820626D42F00402626500E04C
:102F10000268102202FA01F1394233D0B0424FF078
:102F200004034FF0040238BF0823A84298BF134699
:102F300002681A4226D0C9F808100268016812F423
:102F4000802F06D1C9055EBF016821F0080101602C
:102F500001E0080312D4216C11E0026812F0200F86
:102F600007D1026822F0040202600422E06D02FA36
:102F700000F3486818434860216C74E0A16C09B103
:102F800020468847E16D202000FA01F23A4245D000
:102F9000206802270223B04238BF1027A84298BFFA
:102FA0001F4603683B4239D0C9F8082094F83530F1
:102FB0000268042B1AD122F016020260426922F044
:102FC00080024261226C0AB9A26C1AB1026822F036
:102FD000080202603F208840C9F80800012084F8F8
:102FE0003500002084F83400216D3CE00168520374
:102FF0000CD4C9050ED4016821F010010160012034
:1030000084F83500002084F8340003E0080301D47C
:10301000616C00E0E16B09B120468847606D40B308
:10302000606D10F0010F1DD04FF41650B8FBF0F199
:10303000042084F835002068026822F00102026052
:10304000009A01328A42009203D8026812F0010FFE
:10305000F6D1002184F834100121006860F34101A9
:1030600084F83510E16C002908BFBDE8F8832046DC
:103070008847BDE8F883026812F0200F0DD102687E
:1030800022F00A0202600120022284F835000020AA
:1030900084F83400E06D02FA00F348681843486091
:1030A000E16BE0E710000024F0FFFDBFF8ABFDA7E7
:1030B000005402580F000240B90402400100800091
:1030C0002DE9F041044600F057FA0546002C00F0C7
:1030D00099802068A9490144B1F5956F55D802211E
:1030E00084F83510002184F83410016821F00101C2
:1030F000016005E000F040FA401B05287DD82068FB
:10310000016811F0010FF5D10168694AD4E9025351
:1031100004F1100C01EA020E9CE84410D4E9077196
:10312000D4F8248045EA0E052B431A43B8F1040F66
:1031300042EA060242EA0C0242EA070242EA0105BA
:1031400063D1D4E90B2142EA0503002A41EA0301D5
:10315000016050F8141FA56A21F0070141EA05013A
:1031600041F0040158D0BCF5005F00F08580BCF14F
:10317000000F40F08D80022D00F08D80012D00F0B9
:103180008180002D00F0878046E0484901448C2969
:1031900031D8022247F6F07384F83520002284F8F3
:1031A000342002689A43D4E90237D4E9046542EA3C
:1031B000D702A3F18007402BB7FA87F74FEA5717DA
:1031C0004FEA873708BF1027A3693A43202742EA0E
:1031D000D60242EAD50242EAD302E36907EAD30300
:1031E0001A43236A42EA131202601420B1FBF0F082
:1031F0008000E06519E0402000E0202060650320A9
:1032000084F835000120BDE8F081056050F8141FF6
:1032100021F0070141EA080101602046FEF798FC11
:10322000E16D3F2202FA01F181602046FEF7AAFC1F
:10323000A068802806BF002060606068216EC2B26E
:1032400001380A600728D4E919124A6009D82046D3
:10325000FEF7C2FCE06E00210160D4E91C01416070
:1032600003E00020C4E91B006067002001216065C5
:1032700084F83510BDE8F081032DCDD8DFE805F0E6
:103280000F0B0F02A2F1C072B2FA82F2520904E0EF
:10329000032D04D3C0D1C2F30062002ABCD0402069
:1032A0006065012084F83500BDE8F081F8ABFDA72A
:1032B0003F8010FE10B50446B8B394F834000128DE
:1032C00001D1022057E0012084F8340094F8350041
:1032D000012824D1022084F8350000206065D4F84C
:1032E00000C0DCF8000020F00100CCF8000020460F
:1032F000FEF796FC2068214942180168B2F5956FE7
:1033000015D80B2262F344010160416941F080014C
:103310004161216CA9B1016841F0080110E04FF44E
:1033200000606065002084F83400012023E005225D
:1033300062F343010160216C19B1016841F004019D
:103340000160216E0A6812F4803F1EBF0A6842F4D1
:1033500080720A60E16E19B10A6842F480720A60F4
:103360000749884224BF07498842016841F00101AA
:1033700001604FF00000C0B210BD00BFF0FFFDBF04
:1033800010000240B8040240B0B5044600F0F4F862
:1033900005469548611C007818BF044400F0ECF81D
:1033A000401BA042FAD3B0BDB0F5005F18BF704714
:1033B00080B50548802100F0D5F84FF4FA70BDE8DB
:1033C0008040FFF7E1BF00BF0004025803490A68CC
:1033D00002421CBF0860FFF7E7BF70478800005833
:1033E0002DE9F84F5A4A4FF00A0C4FF000094FF000
:1033F000010A4FF00F0E4FF0000B00269042554A85
:1034000008BF4FF0090C02444FEAB223092B38BF22
:103410004FEAB22C102E08BFBDE8F88F0A680AFAEE
:1034200006F52A4200F08E804C6844F01002122A01
:1034300012D14A4B0BF01C020EFA02F403EA5607B3
:103440000744D7F8208028EA04080C6904FA02F23D
:1034500042EA08023A624C68032304F00302122C89
:1034600003FA09F7036802FA09F223EA070342EABA
:10347000030202606FEA070214D80AFA04F313F099
:10348000061F1FBF83681340CF6807FA09F71FBFE5
:103490003B438360C4F30013B3401FBF4768AF438F
:1034A0003B434360C3681A408B6803FA09F31A432D
:1034B000C260E20046D5544A0BF00C040EFA04F741
:1034C0000CFA04F41346126842F002021A601A68F9
:1034D000234B02F0020298460092009A26F0030263
:1034E000D358BB43234342F808301B4A4FF0B0483F
:1034F0001746D26F4C6842EA050314F4803F08BFB8
:1035000022EA050314F4003FFB67D7F8802042EA63
:10351000050308BF22EA050314F4801FC7F88030B2
:10352000D8F8002042EA050308BF22EA050314F494
:10353000001FC8F800303A6842EA050308BF22EAD3
:1035400005033B6009F102090BF1040B013661E749
:10355000002402580000FEA704000058FCFFFF7F73
:10356000080400584269514041617047002A0CBF6D
:10357000418301837047000005480068704700BF21
:103580001948034900780A6810440860704700BF72
:103590007408002480B5032000F068F8002000F0D3
:1035A00007F808B1012080BD00F020F8002080BDA0
:1035B00070B50D4E04464FF47A713078B1FBF0F0DF
:1035C0003D490968B1FBF0F001F022F901250F2C0B
:1035D00008D838B94FF0FF3021460022002500F00E
:1035E00023F87460284670BD0800002481B00648A6
:1035F000016841F002010160006800F002000090E3
:10360000009801B0704700BFF4440258002808DB5E
:1036100000F01F010122400902FA01F1014A42F8BB
:103620002010704700E100E010B5164B1B68C3F393
:10363000022E0EF1040CAEF103048EF00703BCF170
:10364000070F4FF0010C38BF0024042B28BF0423C0
:103650000CFA03F3013B19400CFA04F3013BA140BF
:103660001A401143BDE8104002F082B905494FF6F7
:10367000FF030A681A4060F30A22034810430860F7
:10368000704700BF0CED00E00000FA0580B500F0C7
:1036900015FE08494FF48072096892FAA2F2B2FA54
:1036A00082F201F47061D1400E4A515CC840024977
:1036B000086080BD184402581000002480B500F056
:1036C000BDFD07491022096892FAA2F2B2FA82F20D
:1036D00001F07001D140034A515CC84080BD00BF79
:1036E00020440258D0A10108B0B5324DAA6AA96A97
:1036F000EB6AEC6B03F01003C4F3CC0414FB03F48B
:1037000002F00303C1F3053200EE104A022BB8EEBB
:10371000400A0AD05BB92968294B11F0200F1EBF5F
:103720002968C1F3C101CB4002E0244B00E0224BE9
:10373000A96B9FED242AB7EE003A6FF35F2101EEEB
:10374000101AB3FBF2F1AA6BB8EE411A04EE101A8C
:1037500000EE021AC2F34622B8EE440A31EE031A12
:10376000511C02EE101A21EE000AB8EE422A80EE39
:10377000021ABCEEC11A80ED001AA96BC1F3064112
:10378000013101EE101AB8EE411A80EE011ABCEEBA
:10379000C11A80ED011AA96BC1F30661013101EE76
:1037A000101AB8EE411A80EE010ABCEEC00A80ED94
:1037B000020AB0BD0044025800093D0000127A0020
:1037C0000090D00300000039B0B5324DAA6AA96A52
:1037D000EB6A6C6C03F48073C4F3CC0414FB03F445
:1037E00002F00303C1F3055200EE104A022BB8EEBB
:1037F000400A0AD05BB92968294B11F0200F1EBF7F
:103800002968C1F3C101CB4002E0244B00E0224B08
:10381000296C9FED242AB7EE003A6FF35F2101EE89
:10382000101AB3FBF2F12A6CB8EE411A04EE101A2A
:1038300000EE021AC2F34622B8EE440A31EE031A31
:10384000511C02EE101A21EE000AB8EE422A80EE58
:10385000021ABCEEC11A80ED001A296CC1F30641B0
:10386000013101EE101AB8EE411A80EE011ABCEED9
:10387000C11A80ED011A296CC1F30661013101EE14
:10388000101AB8EE411A80EE010ABCEEC00A80EDB3
:10389000020AB0BD0044025800093D0000127A003F
:1038A0000090D003000000392DE9F0410446C078B3
:1038B000AA4F000722D5606E4FEA3051032908D87D
:1038C000DFE801F0020A0F17F96941F40031F961EC
:1038D0000FE04FF0010813E0201D022101F0DAFA99
:1038E00004E004F12400022101F048FB804638B9CD
:1038F000606E396C21F44011084338644FF00008C1
:103900006078C00701D1464626E0606D04280BD8D8
:103910004646DFE800F0030B10161600F86946462D
:1039200040F40030F8610CE001260BE0201D00217E
:1039300001F0B0FA04E004F12400002101F01EFBC4
:10394000064616B148EA060806E0386C616D0026A6
:1039500020F00700084338646078800726D5A06D02
:103960004FEAB010042809D8DFE800F0030A0F1569
:103970001500F86940F40030F8610CE001260BE016
:10398000201D002101F086FA04E004F1240000214A
:1039900001F0F4FA064616B148EA060806E0386C6B
:1039A000A16D002620F4E070084338646078400779
:1039B00028D5D4F8A4004FEA7050042809D8DFE8CD
:1039C00000F0030A0F151500F86940F40030F861A3
:1039D0000CE001260BE0201D002101F05BFA04E061
:1039E00004F12400002101F0C9FA064616B148EAA4
:1039F000060807E0B86CD4F8A410002620F4600094
:103A00000843B8646078000728D5D4F8A8004FEAC6
:103A10003060042809D8DFE800F0030A0F1515000C
:103A2000F86940F40030F8610CE001260BE0201D3D
:103A3000002101F02FFA04E004F12400002101F03C
:103A40009DFA064616B148EA060807E0B86CD4F8B5
:103A5000A810002620F0E0600843B864E0788007F2
:103A60001FD5A06C4FEA3010032808D8DFE800F01B
:103A70000E02090EF86940F40030F86106E00126F4
:103A800005E0201D022101F005FA064616B148EABC
:103A9000060806E0F86BA16C002620F03000084311
:103AA000F8636078C00626D5E06D4FEA3030042810
:103AB00009D8DFE800F0030A0F151500F86940F493
:103AC0000030F8610CE001260BE0201D002101F020
:103AD000E1F904E004F12400002101F04FFA064668
:103AE00016B148EA060806E0386CE16D002620F4BD
:103AF000E040084338646078800621D5206E4FEAA4
:103B00003040052809D8DFE800F010030A10101033
:103B1000201D012101F0BEF906E0012606E004F1B6
:103B20002400012101F02AFA064616B148EA0608E7
:103B300006E0386C216E002620F4E020084338644B
:103B40006078400625D5D4F8AC004FEA30700528DF
:103B50000BD8DFE800F012050C12121210440258C4
:103B6000201D012101F096F906E0012606E004F18E
:103B70002400012101F002FA064616B148EA0608BF
:103B800007E0B86CD4F8AC10002620F0E040084301
:103B9000B864607800061DD5E06E78B1B0F1005FC2
:103BA00007D0B0F1805F12D1F86940F40030F861BD
:103BB00004E0201D012101F06DF9064646B9386C7C
:103BC000E16E002620F040500843386402E00126F0
:103BD00048EA0608E078C0071DD0606C032808D8C2
:103BE000DFE800F00E02090EF86940F40030F861D9
:103BF00006E0012605E0201D022101F04BF90646F2
:103C000016B148EA060806E0F86B616C002620F061
:103C100003000843F863A07840061AD5D7F8F003EC
:103C20003D4640F48070C7F8F003FFF7A5FC074657
:103C30002846D5F8F00310F4807F06D1FFF79CFCEE
:103C4000C01B6428F4D9032600E0A6B148EA0608A0
:103C50002F462078C0074DD0A06F4FEAF00005280E
:103C600035D8DFE800F03C03363C3C3C201D012108
:103C700001F010F932E0296ED4F8B0002F4641402F
:103C800011F4407F0BD0396E3A6E42F4803221F449
:103C900040713A663A6E22F480323A663966B0F57F
:103CA000807F40F0D781FFF767FC064641F28837F6
:103CB0002846286E10F0020F40F0C981FFF75CFC27
:103CC000801BB842F4D948F003080326C0E7012658
:103CD00006E004F12400012101F050F9064616B176
:103CE00048EA060806E0786CA16F002620F038004C
:103CF00008437864207880071FD5606F052809D8AD
:103D0000DFE800F010030A101010201D012101F05F
:103D1000C1F806E0012606E004F12400012101F0CB
:103D20002DF9064616B148EA060806E0786C616F80
:103D3000002620F00700084378642078400721D54A
:103D4000D4F89000052809D8DFE800F010030A1025
:103D50001010201D012101F09DF806E0012606E06B
:103D600004F12400012101F009F9064616B148EAE0
:103D7000060807E0B86CD4F89010002620F0070081
:103D80000843B8642078800623D5D4F88C004FEA25
:103D90003070052809D8DFE800F010030A10101071
:103DA000201D002101F076F806E0012606E004F16E
:103DB0002400022101F0E2F8064616B148EA06089E
:103DC00007E0786CD4F88C10002620F0E04008431F
:103DD00078642078400623D5D4F898004FEAB020C4
:103DE000052809D8DFE800F010030A101010201D84
:103DF000002101F04FF806E0012606E004F124005E
:103E0000022101F0BBF8064616B148EA060807E0B1
:103E1000B86CD4F89810002620F4E0500843B86439
:103E20002078000623D5D4F89C004FEA703005288E
:103E300009D8DFE800F010030A101010201D00213F
:103E400001F028F806E0012606E004F12400022132
:103E500001F094F8064616B148EA060807E0B86C87
:103E6000D4F89C10002620F460400843B864206811
:103E700010F0080F12D0D4F88010B1F5805F08D18F
:103E800004F12400022101F079F848EA00082068D2
:103E900004E07A6C22F4405211437964C10612D5D1
:103EA000D4F89410B1F5807F08D104F124000221E8
:103EB00001F064F848EA0008206804E0BA6C22F4D3
:103EC00040721143B964000320D5D4F8A000B0F5C6
:103ED000003F0ED0B0F5803F05D0A0B9201D0021D5
:103EE00000F0D8FF04E004F12400022101F046F8BC
:103EF00006464EB9B86CD4F8A010002620F4403025
:103F00000843B86402E0012648EA0608A0784007A2
:103F100022D5D4F88400B0F5401F10D0B0F5001FB2
:103F200007D0B0F5801F14D1F86940F40030F86173
:103F300005E004F12400012101F020F806464EB905
:103F4000786CD4F88410002620F44010084378647C
:103F500002E0012648EA0608A078C0071AD0E06C03
:103F6000B0F5803F05D090B9F86940F40030F861B1
:103F700004E0201D022100F08DFF064646B9F86BD3
:103F8000E16C002620F480300843F86302E001264B
:103F900048EA0608206810F0005F07D004F124000A
:103FA000022100F0EBFF48EA00082068810319D5E0
:103FB000E16F6FF0010202EB3122022A08D34FEACF
:103FC00031222AB1012A0AD1FA6942F40032FA6197
:103FD00036B97A6C22F440721143796402E001260A
:103FE00048EA0608C10205D5396C226F21F000416C
:103FF00011433964C10006D53968D4F8B42021F4DE
:10400000804111433960810205D5396CA26E21F0DF
:10401000807111433964410008D5396821F40041A9
:104020003960D4F8B8103A6811433960B0F1FF3FF5
:1040300005DCF86B216D20F040500843F863B8F1BF
:10404000000F18BF4FF001084046BDE8F081D4F8DA
:10405000B0002F46396800F440720026B2F5407F68
:1040600021F47C5102BF054A02EA101211436FF39A
:104070001F303960396E08433866EAE5CFFFFF002C
:104080002DE9F0470D466B490446086800F007002B
:10409000A84209D2086820F0070028430860086891
:1040A00000F00700A84267D12068B64F8A4610F09A
:1040B000020F05D0B969E26821F00F011143B9611F
:1040C000C0074AD1DAF8000000F00700A8420CD976
:1040D000DAF8000020F007002843CAF80000DAF8F8
:1040E000000000F00700A84246D1206810F0040F3D
:1040F00005D0B969226921F070011143B961010746
:1041000005D5F969626921F070011143F961C106B1
:1041100005D5F969A26921F4E0611143F9618006CE
:1041200005D5386AE16920F070000843386200F074
:10413000C5F8B9694FF48072002792FAA2F2B2FA78
:1041400082F201F47061D1405B4A515CC8403A4947
:1041500008600020FFF72CFA0FE0B869A16820F48E
:1041600070600843B8616068032809D0022858D1FC
:10417000396811F4003F07D10127F8B2BDE8F08794
:10418000396811F0007FF7D0396921F00701084341
:104190003861FFF7F1F906466068B94641F28838A0
:1041A000032812D002281FD001282CD1D9F81000E2
:1041B0004F4600F0380008283FF484AFFFF7DCF9E1
:1041C000801B03274045F1D9D7E7D9F810004F46A7
:1041D00000F0380018283FF475AFFFF7CDF9801BC9
:1041E00003274045F1D9C8E7D9F810004F4600F041
:1041F000380010283FF466AFFFF7BEF9801B032795
:104200004045F1D9B9E7D9F810004F4610F0380F02
:104210003FF458AFFFF7B0F9801B03274045F2D9B0
:10422000ABE73968012802D1C905A5D5ACE7490734
:10423000A2D5A9E7002000521000002480B5FFF7A6
:1042400025FA08490122096892FAA2F2B2FA82F22A
:1042500001F00F01D140184A515CC8400249086082
:1042600080BD00BF184402581400002480B5FFF739
:10427000E5FF10491022096892FAA2F2B2FA82F21E
:1042800001F07001D1400C4A515CC84080BD00BFB4
:1042900080B5FFF7D3FF07494FF48072096892FA9F
:1042A000A2F2B2FA82F201F4E061D140024A515C1A
:1042B000C84080BD1C440258D0A10108314908699A
:1042C000C0F3C2023048032A0FD0022A04BF2F488D
:1042D00070474AB90A682E4812F0200F1FBF0968BC
:1042E000C1F3C101C8407047704780B5D1F828E0DC
:1042F000D1F828C0CB6A4A6B03F001035B4203EAA2
:10430000D2020EF003036FF35F32022B00EE102A8D
:10431000CCF30512B8EE400ABDE880400AD053B98C
:104320000B681B4813F0200F1EBF0B68C3F3C103BB
:10433000D84000E015480B6B096B9FED162AB0FBC7
:10434000F2F0B7EE003A04EE100A6FF35F2301EECD
:10435000103AB8EE411AC1F3462100EE021A481C89
:10436000B8EE440A02EE100A31EE031AB8EE422A01
:1043700021EE000A80EE020ABCEEC00A10EE100A1E
:10438000704700BF0044025800093D0000127A0047
:104390000090D00300000039F8B504460078D34EF1
:1043A000C0074FD0306900F03800102807D13068BE
:1043B00010F4003F46D06068002843D14EE13069D8
:1043C00000F03800182804D1B06A00F00300022879
:1043D000EDD0606868B1B0F5803F06D03168B0F5C7
:1043E000A02F1BD141F480203060306840F4803031
:1043F0001AE0306820F480303060306820F480208B
:104400003060FFF7B9F80546306810F4003F19D066
:10441000FFF7B2F8401B6428F6D934E121F480306C
:104420003060306820F480203060FFF7A5F8054642
:10443000306810F4003F05D1FFF79EF8401B642858
:10444000F6D920E1207880075ED5306910F0380F6A
:104450001CD0306900F03800182804BFB06A10F092
:10446000030F13D0E068316850B321F019010843FD
:104470003060FFF781F80546306810F0040F2FD147
:10448000FFF77AF8401B0228F6D9FCE03168E068B3
:1044900011F0040F02D0002800F0E080316821F014
:1044A000190108433060FFF767F80546306810F0DF
:1044B000040F1CD1FFF760F8401B0228F6D9E2E098
:1044C00021F001003060FFF757F80546306810F022
:1044D000040F19D0FFF750F8401B0228F6D9D2E09C
:1044E000706821694FF47C3292FAA2F205E070689C
:1044F00021694FF47C3292FAA2F2B2FA82F220F4ED
:104500007C309140084370602078C0064ED53069F9
:1045100000F0380008280ED1306810F4807F1CBFEE
:10452000E069802840F09A807068216A4FF0F84274
:1045300092FAA2F233E0306900F03800182804D172
:10454000B06A00F003000128E6D0E169306879B173
:1045500040F080003060FFF70FF80546306810F437
:10456000807F16D1FFF708F8401B0228F6D98AE0B1
:1045700020F080003060FEF7FFFF0546306810F441
:10458000807F13D0FEF7F8FF411B03200229F5D9E5
:104590007AE07068216A4FF0F84292FAA2F2B2FA19
:1045A00082F220F0F84091400843706020780007C4
:1045B00022D56169706F79B140F001007067FEF734
:1045C000DBFF0546706F10F0020F15D1FEF7D4FF28
:1045D000401B0228F6D956E020F001007067FEF774
:1045E000CBFF0546706F10F0020F05D0FEF7C4FF39
:1045F000401B0228F6D946E02078800622D5A16922
:10460000306879B140F480503060FEF7B5FF054660
:10461000306810F4005F15D1FEF7AEFF401B022892
:10462000F6D930E020F480503060FEF7A5FF054653
:10463000306810F4005F05D0FEF79EFF401B022893
:10464000F6D920E0207840070AD4676A002F00F0EE
:10465000C580306900F03800182827D1012013E008
:10466000D6F8000440F48070C6F80004FEF784FF1A
:104670000546D6F8000410F4807F08D1FEF77CFFD1
:10468000401B6428F5D90320C0B201B0F0BDA0687A
:1046900070B3012806D0316F052840F0A18041F0A9
:1046A00004003067306F40F001009FE0306820F078
:1046B00080703060FEF760FF0546022F0AD1306837
:1046C00010F0007F2CD0FEF757FF411B032002297A
:1046D000F5D9D9E7306810F0007F00F07F80FEF751
:1046E0004BFF411B03200329F4D3CDE700440258BC
:1046F000306F20F001003067306F20F00400306729
:10470000FEF73AFF054641F28837306F10F0020F8E
:104710009BD0FEF731FF411B0320B942F5D9B3E727
:10472000B06A40F2F33104F130034FF4FE078843DE
:10473000D4E90A12084340EA0210B0620FCB7F317D
:1047400000F2FF107F3249026FF35F2007EA024256
:1047500089B2084303F17F0110434FF0FE4202EAA1
:10476000016108434FF6F8713063706BA26C8843A7
:1047700091FAA1F1B1FA81F102FA01F108437063F3
:10478000F06A216C20F00C000843F062F06A616C62
:1047900020F002000843F062F06A40F48030F062DA
:1047A000F06A40F40030F062F06A40F48020F06279
:1047B000F06A40F00100F062306840F080703060D4
:1047C000FEF7DAFE0446306810F0007F06D1FEF7EF
:1047D000D3FE011B03200229F5D955E7002053E73A
:1047E00021F001003067306F20F004003067FEF7E1
:1047F000C3FE054641F28837306F10F0020F7FF498
:1048000024AFFEF7B9FE411B0320B942F4D93BE7C0
:10481000411E0020B0EB116F1CBF01207047044AFD
:10482000F023516003490B700721906011607047BD
:1048300010E000E023ED00E090F83C20012A01D1D7
:1048400002211FE010B501220F4C80F83C200268C5
:10485000536842F4806ED2F808C0A64502BF4C6887
:1048600023F4700323430C68896823F07003234307
:1048700053602CF0800319439160002180F83C10B4
:10488000BDE81040C8B270470004014010B50446AE
:10489000A0B194F83D0028B9002084F83C002046DF
:1048A00000F00EF80220211D84F83D00206800F081
:1048B0006BFC012084F83D00002010BD012010BDDC
:1048C00082B000680E4988420DD00E49884214D14A
:1048D0000D48016841F002010160006800F002002B
:1048E0000190019809E00848016841F01001016059
:1048F000006800F010000090009802B0704700BF00
:104900000010004000040040E8440258022180F8F2
:104910003D1001680A8842F001020A80012180F8F6
:104920003D1000207047000010B590F83C20044670
:104930000220012A00F0888084F83D000120434ACB
:1049400084F83C0020688368134083600B68BBB127
:10495000102B1BD0202B1FD0302B23D0402B27D047
:10496000502B31D0602B3BD0702B45D0B3F5005F7E
:1049700055D0B3F5805F61D18168364A11405CE063
:104980008168334A114041F0070156E08168304A9E
:10499000114041F0170150E081682D4A114041F06B
:1049A00027014AE081682A4A114041F0370144E07A
:1049B0004B68CA68194600F065FC2068244A816883
:1049C000114041F0470138E04B68CA68194600F0D1
:1049D00059FC20681E4A8168114041F057012CE0C3
:1049E0004B68CA68194600F05EFC2068184A816866
:1049F000114041F0670120E0D1E901C3C96802F527
:104A00007F4243EA0C0343EA0121836823F47F4396
:104A1000194381608168114041F077010DE0D1E9CF
:104A20000123C9681A4342EA0121826822F47F42C5
:104A300011438160816841F480418160002001213F
:104A400084F83C0084F83D10C0B210BD8800CEFF51
:104A500088FFCFFFF8FFFEFF10B50446A8B194F819
:104A6000790028B9002084F87800204600F026F864
:104A7000242084F879002068016821F00101016098
:104A8000204600F0BFFC012801D1012010BD606B61
:104A900010B1204600F018FC2068416821F49041D4
:104AA0004160816821F02A018160016841F00101C3
:104AB00001602046BDE8104000F070BC10B586B023
:104AC000044601A81421FCF786FC2068EE498842C0
:104AD00020D1AF48816841F480218160816801F470
:104AE000802100910099016841F00801016001A94D
:104AF000006800F0080000900098022002904FF437
:104B0000407001900020CDE9030007200590024885
:104B1000FEF766FC06B010BD000C02582DE9F84304
:104B2000044690F87900994617460E46202806D18B
:104B300001252EB127B194F87800012804D102256F
:104B4000E8B201B0BDE8F0830020E067012084F8FE
:104B50007800212084F87900FEF70EFD8046A4F845
:104B60006070A4F862701FE0B4F862008021002237
:104B700043460138A4F862002046CDF8009000F0CA
:104B8000BFFEF8B9A068B0F5805F04BF20690028B7
:104B900004D0206816F8011B018505E036F8021BD9
:104BA00020686FF35F210185B4F862000028DBD133
:104BB0002046402100224346CDF80090002500F019
:104BC0009FFE08B10325BBE7202084F8785084F8C5
:104BD0007900B5E7FEE70000B0B588B001A81C2158
:104BE000FCF7F9FB1848194A4FF4802108230024E8
:104BF0000425C0E9002100F108014FF4806200F1B2
:104C0000240C38C101254FF48053848280218561B2
:104C10000477ACE82600C0E90C340487FDF7A4FC57
:104C200008B1FDF746F81020029501A90190052072
:104C3000CDE903040448CDE90544FDF785F808B142
:104C4000FDF737F808B0B0BD880500240021024008
:104C500080B58AB001A82421FCF7BDFB0C480D49A2
:104C60000160FDF777FF08B1FDF723F81620012159
:104C700000220290002001900390CDE90410044826
:104C800001A9FDF7A1FE08B1FDF713F80AB080BD38
:104C9000EC05002400740040E0B50E4800220168D5
:104CA00041F0010101600221006800F00100019063
:104CB00001980C20FEF7B8FC0C20FEF7A7FC0D2095
:104CC00000210022FEF7B0FC0D20BDE88C40FEF76D
:104CD0009DBC00BFD8440258F0B587B02C480026D0
:104CE0002C4C00224FF48147CDE90566016841F064
:104CF00004010160016801F004010191019901685A
:104D000041F080010160016801F080010191019989
:104D1000016841F001010160016801F001010191A8
:104D20000199016841F002010160016801F002018E
:104D300001910199016841F0080101604FF481413E
:104D4000006800F00800019001982046FEF70EFC74
:104D5000114802AD294603904FF40050029004F52B
:104D600080600496FEF73CFB01202946CDE90270E5
:104D70002046CDE90466FEF733FB282002210022FD
:104D8000FEF752FC2820FEF741FC07B0F0BD00BF43
:104D9000E0440258000402580000111180B588B0A8
:104DA0001748184A00214FF4FA734FF0640CCDE90C
:104DB0000611CDE90411C0E90023C0E9021C01611C
:104DC00081610391CDE90111FFF760FD08B1FCF7A6
:104DD00070FF4FF4805004A904900948FFF7A4FD28
:104DE00008B1FCF766FF002001A903902020019084
:104DF0000348FFF721FD08B1FCF75BFF08B080BD59
:104E0000F0060024000400401FB50E480E494FF480
:104E1000C8720024092380E81600C36084610394EB
:104E2000CDE90144FFF732FD08B1FCF742FF202035
:104E3000039401A901900348FFF7FEFC08B1FCF7B9
:104E400038FF1FBD300700240010004010B50D4C86
:104E50000D494FF4E13000220C23C4E9001004F1A5
:104E600018002021C4E90222C4E90423FCF7B3FAA4
:104E70002046FFF7F1FD18B1BDE81040FCF719BF5F
:104E800010BD00BF7007002400480040FEE77047D7
:104E900070470000F8B5B94F05460C46B86A00F0F7
:104EA0000300032801D1012064E0386820F080600D
:104EB0003860FEF761FB0646386810F0006F05D0D9
:104EC000FEF75AFB801B0228F6D950E0B86A296821
:104ED0002B1D4FF4FE06002C20F47C3040EA0130FC
:104EE000B8620FCB01F17F0100F2FF1002F17F02E7
:104EF0004FEA41216FF35F2006EA024289B240EA9D
:104F0000010003F17F0140EA02004FF0FE4202EA95
:104F1000016140EA0100B863F86A696920F0C000E5
:104F200040EA0100F862F86AA96920F0200040EA2E
:104F30000100F86207D0F86A012C14BF40F4001099
:104F400040F4801002E0F86A40F40020F86238680B
:104F500040F080603860FEF70FFB0446386810F0C0
:104F6000006F06D1FEF708FB001B0328F6D30320D1
:104F700000E00020C0B201B0F0BD00BFF8B57F4F27
:104F800005460C46B86A00F00300032801D1012051
:104F900064E0386820F080503860FEF7EDFA06468D
:104FA000386810F0005F05D0FEF7E6FA801B022893
:104FB000F6D950E0B86A29682B1D4FF4FE06002C84
:104FC00020F07C7040EA0150B8620FCB01F17F0104
:104FD00000F2FF1002F17F024FEA41216FF35F20E0
:104FE00006EA024289B240EA010003F17F0140EA89
:104FF00002004FF0FE4202EA016140EA010038641B
:10500000F86A696920F4406040EA0100F862F86AD1
:10501000A96920F4007040EA0100F86207D0F86A3C
:10502000012C14BF40F0807040F4000002E0F86AE8
:1050300040F48000F862386840F080503860FEF735
:105040009BFA0446386810F0005F06D1FEF794FA28
:10505000001B0328F6D3032000E00020C0B201B0FB
:10506000F0BD00BF7047FEF78BBA000010B5CCB0A2
:1050700039A84C21FCF7AFF931A82021FCF7ABF996
:1050800002A8BC21FCF7A7F92448016821F004011B
:10509000016000210191C16841F44041C160C168D3
:1050A00001F4404101910199C16811F4005FFBD006
:1050B00001202021002432223C90022039903D9191
:1050C0000421429043944491CDE94520CDE9471015
:1050D0000C20CDE9490439A84B94FFF75DF93F2036
:1050E0004FF4806131900320CDE9320408203490E0
:1050F0004020CDE93500CDE9371031A80221FEF777
:10510000BFFF074802904FF4003016941F942A9076
:1051100002A8FEF7C9FB4CB010BD00BF0C480258F6
:105120000200088010B51448154CD0F8801041F4E6
:105130007001C0F8801011490A6842F001020A604B
:1051400000220A610B6823400B608A61CA610A620F
:105150008A62CA620A634A638A63CA630A644A64E7
:105160000B6823F480230B600A66064901220A605B
:105170004FF00061016010BD08ED00E000440258EE
:105180007FEDF6EA08810051B0B50388354DB0F1E6
:10519000804F0BD0344A90421CBF344A904205D015
:1051A000334A90421CBF334A90423BD14A6805F5CE
:1051B000884423F07003041BB4FA84F44FEA541EAD
:1051C00005F58044134305F59042041B821AB4FA96
:1051D00084F4B2FA82F24FEA541C5209CC6823F4E8
:1051E000407323434FF67F74002A03EA04034C699B
:1051F00043EA040303808B68C3620B68038508D10C
:10520000BEF1000F05D1A8421CBF05F58062904297
:1052100002D10969018602E0BCF1000FF9D1012138
:105220004161B0BDA842C1D005F5884405F5904262
:10523000041B821AB4FA84F4B2FA82F24FEA541EC2
:1052400005F580445209041BB4FA84F44FEA541C57
:10525000094CA0421CBF094CA042BFD0084CA04240
:10526000BCD0BFE70000014000040040000800403F
:10527000000C004000040140004001400048014093
:1052800000440140D0F820C0036A23F00103036208
:10529000836923F0F00343EA021282612CF00A02D0
:1052A000114301627047036A23F0100303628369AC
:1052B00023F4704343EA0232036A826123F0A002BE
:1052C00042EA011101627047416B11F0010F08D0F1
:1052D00002685368D0F838C023F4003343EA0C0363
:1052E00053608A0708D502685368D0F83CC023F49D
:1052F000803343EA0C0353604A0708D502685368B9
:10530000D0F840C023F4802343EA0C0353600A071B
:1053100008D502685368D0F844C023F4004343EA38
:105320000C035360CA0608D502689368D0F848C0D9
:1053300023F4805343EA0C0393608A0608D502687D
:105340009368D0F84CC023F4005343EA0C039360F5
:1053500080B54A0615D5D0F800E0DEF804C0036D2C
:105360002CF48012B3F5801F42EA0302CEF8042029
:1053700007D1DEF80420436D22F4C0021A43CEF8B0
:1053800004200906BDE8804058BF704701684A689C
:10539000806D22F40022104348607047BCB504467B
:1053A0000020E067FEF7E8F805462068016811F084
:1053B000080F0AD012484FF4001100222B4600902B
:1053C000204600F09DFA70B92068006810F0040FC4
:1053D0000BD00B484FF4800100222B460090204652
:1053E00000F08EFA08B1032007E02021002084F8A5
:1053F000791084F8780084F87A10C0B202B0B0BD99
:10540000FFFFFF01F0B587B00446D0F81CC0816AE9
:1054100000689E4AA368D4E9047605680B433B43C1
:1054200033439B4E2A4043EA0C031A43026042680E
:10543000E36822F440521A43A6F50E3342609842C4
:10544000A7691CBF226A1743B1F1005F02BFD4E90C
:105450000B12394341EA020781688E4A11403943F1
:105460008160C26A616A22F00F020A43C2628A4AFC
:10547000904228D0894A904231D0894A90423AD00D
:10548000884A904243D0884A904200F04B80874A35
:10549000904200F05280864A904200F05B80854A3C
:1054A000904200F06480844A904240F06D80834ACC
:1054B0001268C2F3C207052F00F26680DFE807F02A
:1054C0006266686A6C6E7D4A126802F00707052FF3
:1054D00000F25A80DFE807F03C5A5C5E6062774A6F
:1054E000126802F00707052F00F24E80DFE807F090
:1054F000304E50525456714A126802F00707052F79
:1055000000F24280DFE807F024424446484A6B4AF2
:10551000126802F00707052F36D8DFE807F01937C1
:10552000393B3D3F654A126802F00707052F2BD82B
:10553000DFE807F00E2C2E303234604A126802F099
:105540000707052F20D8DFE807F0032123252729A7
:10555000002724E0594A526802F00707052F13D8A4
:10556000DFE807F0031416181A1C022717E0534A45
:105570001268C2F3C207052F06D8DFE807F0030759
:10558000090B0D0F01270AE0802708E0042706E039
:10559000402704E0082702E0102700E02027984277
:1055A00014D00125BCF5004F21D10020082F2ED8A2
:1055B000DFE817F00900AF0027012701B900270134
:1055C00027012701C500FEF751FEA4E0C94D402F79
:1055D00044D0042F47D0082F4BD0102F53D0202F6A
:1055E0006ED0022F40F08081FEF768F83FE0082F70
:1055F00020D8DFE817F00900AD007A017A01BE007B
:105600007A017A017A01CF00FEF730FEA2E0102F76
:1056100000F0CA80202F00F0CC80402F40F0F180B5
:1056200001A8FEF7D1F8606AB14A616832F810004B
:10563000029A81E0102F00F0C780202F00F0C9806F
:10564000402F40F0528101A8FEF7BEF8D4E90001D6
:10565000626AA74B33F81220029B94E001A8FEF780
:10566000B3F8029803E004A8FEF73EF8059848BB9B
:10567000E2E03168A04811F0200F1EBF3168C1F38D
:10568000C101C8401EE028461CE000BFF369FFCFFF
:1056900000440258FFF4FF1100440040004800405D
:1056A000004C00400050004000780040007C00406A
:1056B000000C0058001401400010014054440258EE
:1056C0004FF40040324666682B46012506EB460142
:1056D0008842C0F00A813103884200F20681402FDF
:1056E00000F0AC80042F00F0B380082F00F0BA80E7
:1056F000102F00F0C180202F00F0C580022F40F055
:10570000D180FDF7DBFF616A794A666832F81120C3
:10571000D4E0FEF7BDFD626A754B616833F8122074
:10572000B0FBF2F067E004A8FDF7DEFF606A704AA4
:10573000616832F81000059AB2FBF0F05BE0306867
:1057400010F0200F4BD16A4830F811006A494FE041
:10575000FEF79EFD636A664F6268216837F8133072
:10576000B0FBF3F000EB5200B0FBF2F080B2C86087
:1057700062E004A8FDF7B8FFD4E90001626A5C4B5F
:1057800033F81220059BB3FBF2F202EB5102B2FB9D
:10579000F1F14FE03268334612F0200F3AD1544A0B
:1057A00032F81110544A3EE0514830F81100514986
:1057B0001EE04F4830F811004FF40041B1FBF0F00B
:1057C00061684200480818E0494A32F81110494A15
:1057D00029E0474A32F811104FF4004223E04448D0
:1057E000454A30F811003168C1F3C10122FA01F1D4
:1057F000B1FBF0F0616840004A0810440025B0FB9E
:10580000F1F04FF6F0710140C0F342000843216807
:10581000C8606AE0364A32F811101A68364BC2F393
:10582000C10223FA02F2B2FBF1F1626801EB52010C
:10583000B1FBF2F189B2C160002556E001A8FDF785
:10584000C3FF606A2A49666831F81020029835E083
:1058500004A8FDF749FF606A2549666831F8102001
:1058600005982BE0106810F0200F1DD1606A2049C8
:1058700031F81020204821E0606A1D4931F81000FD
:10588000B3FBF0F007E0606A194931F810004FF4FB
:105890000041B1FBF0F00002002500EB5600B0FB28
:1058A000F6F01CE001251AE01068616A104A32F82F
:1058B00011201149C0F3C10021FA00F0002100239A
:1058C0000025FBF750FD09023246002341EA106132
:1058D000000210EB560041F10001FBF744FD074ABE
:1058E000A0F54071914292D90125284607B0F0BD3C
:1058F000E0A1010800093D000090D003FFFC0F006B
:105900002DE9F843DDF82090984616460F460446E8
:1059100009F101052068C1693940C91BB1FA81F15B
:105920004909B1421DD1002DF4D0B9F1000F06D0C4
:10593000FDF722FEA0EB08004845EBD9206801687E
:1059400021F4D0710160816821F001018160202083
:10595000002184F8790084F8781084F87A00032014
:1059600000E00020C0B201B0BDE8F083FEE7000017
:1059700010B5074C054A00F00F03B0F1FF3F234478
:10598000C8BF83180801187010BD00BF00E400E014
:1059900014ED00E0E0B54FF40061084AADF80610E0
:1059A0000168914218BF8CBD00210DF10602012350
:1059B00000910021FDF736F98CBD00BF0074004056
:1059C0002DE9F8432DED0A8B9FED2F9B364E9FED71
:1059D00030AB9FED31BB9FED32CB1446B0EE408B28
:1059E0008946054600274FF4006842E025F81780F5
:1059F000606800EE100AB8EEC00B20EE080B20EE37
:105A0000090BB04735F8170020EE0A0BBDEEC00BAE
:105A100010EE101A084425F8170094ED010AB8EEAC
:105A2000C00B20EE080B20EE0B0BB04735F817002B
:105A300020EE0A0BBDEEC00B10EE101A084425F83C
:105A4000170094ED010AB8EEC00B20EE080B20EE13
:105A50000C0BB04735F8170020EE0A0BBDEEC00B5B
:105A600010EE101A084425F817000137606801305D
:105A70006060B945BAD12846BDEC0A8B01B0BDE8DB
:105A8000F08300BF00BF00BF00000000008CA840F2
:105A90000000000000407F4000000000008CB84083
:105AA000000000008087C340A15D000870B5C6B04B
:105AB00006AE0C4605464FF480713046FBF78BFC72
:105AC00068464021FAF7AEFD002008E035F91010D5
:105AD000013000EE101AB8EEC00AA6EC010A402808
